:020000040800F2
:1000000000500020054400084B440008C9020008C5
:100010004D4400084F44000851440008000000000F
:10002000000000000000000000000000494400083B
:10003000534400080000000047020008494400083B
:10004000494400084944000849440008494400085C
:10005000494400084944000849440008494400084C
:10006000494400084944000849440008494400083C
:10007000494400084944000849440008494400082C
:10008000494400084944000849440008513D00081B
:10009000493D00084D3D0008553D00084944000811
:1000A00049440008494400084944000849440008FC
:1000B00049440008B53D0008494400084944000887
:1000C00049440008494400084944000849440008DC
:1000D00049440008DD42000849440008494400083A
:1000E000F92E0008494400084944000800000000B7
:1000F0000000000000000000000000000000000000
:0C01000000000000000000005FF808F1A3
:10010C00F75F0008FB5F0008552A0008FF5F000836
:08011C00D15B0008036000083C
:1001240072AF000860AF00083B29000894AF0008D4
:1001340083AF000835290008B0AF0008A4AF000859
:1001440041290008D0AF0008C2AF000829290008DF
:10015400F1AF0008E4AF00081D2900080EB0000844
:1001640004B000081129000827B000081EB00008D8
:100174000529000840B0000836B00008F928000836
:1001840059B0000850B00008ED28000889B00008F4
:100194007CB0000829550008A3B000088EB0000800
:1001A40055500008C6B00008AEB0000881520008DF
:1001B400E8B00008D3B00008755300080CB100087B
:1001C400F3B000083D54000821B1000815B100083F
:1001D4004151000850B100082DB10008D94F000862
:1001E40072B1000858B10008994F00089DB1000889
:1001F40078B1000835560008BEB10008A2B1000865
:1002040029560008D7B10008C1B10008E955000813
:10021800EFF3108072B6704780F310887047374A42
:100228001368012B04D04FF001031360344A1060A7
:10023800344A116034484FF0805101607047EFF341
:10024800108272B62D48016891B14FF0000101602B
:100258002B48016829B1EFF3098121E9F00F006803
:100268000160284909680968B1E8F00F81F3098835
:1002780082F310884EF0040E704722490860204926
:100288004FF0000008601D494FF0010008601F484A
:100298001F49D0F8002041EA020101601A484FF0D6
:1002A800805101601B480068006800BF80F308881F
:1002B80061B662B6BFF34F8FBFF36F8F704700BF51
:1002C800EFF308801EF0040F01D0EFF3098020E956
:1002D800F00F40F804ED1EF0040F02D080F30988F7
:1002E80001E080F3088800B505F0D0FC5DF804EB68
:1002F8004EF0040E7047EFF3058070478C430020E2
:10030800944300209043002004ED00E020ED00E03D
:100318000000FFFF08ED00E081F0004102E000BFAF
:1003280083F0004330B54FEA41044FEA430594EAAD
:10033800050F08BF90EA020F1FBF54EA000C55EAE8
:10034800020C7FEA645C7FEA655C00F0E2804FEAB9
:100358005454D4EB5555B8BF6D420CDD2C4480EA9B
:10036800020281EA030382EA000083EA010180EACB
:10037800020281EA0303362D88BF30BD11F0004F19
:100388004FEA01314FF4801C4CEA113102D040424F
:1003980061EB410113F0004F4FEA03334CEA13338A
:1003A80002D0524263EB430394EA050F00F0A780A2
:1003B800A4F10104D5F1200E0DDB02FA0EFC22FA9D
:1003C80005F2801841F1000103FA0EF2801843FA91
:1003D80005F359410EE0A5F120050EF1200E012A82
:1003E80003FA0EFC28BF4CF0020C43FA05F3C018C0
:1003F80051EBE37101F0004507D54FF0000EDCF139
:10040800000C7EEB00006EEB0101B1F5801F1BD3E1
:10041800B1F5001F0CD349085FEA30004FEA3C0CE5
:1004280004F101044FEA445212F5800F80F09A80DB
:10043800BCF1004F08BF5FEA500C50F1000041EBDF
:10044800045141EA050130BD5FEA4C0C404141EBE3
:100458000101013C28BFB1F5801FE9D291F0000FDE
:1004680004BF01460020B1FA81F308BF2033A3F18D
:100478000B03B3F120020CDA0C3208DD02F1140C84
:10048800C2F10C0201FA0CF021FA02F10CE002F1BF
:100498001402D8BFC2F1200C01FA02F120FA0CFCB8
:1004A800DCBF41EA0C019040E41AA2BF01EB045101
:1004B800294330BD6FEA04041F3C1CDA0C340EDCFF
:1004C80004F11404C4F1200220FA04F001FA02F342
:1004D80040EA030021FA04F345EA030130BDC4F100
:1004E8000C04C4F1200220FA02F001FA04F340EAF5
:1004F8000300294630BD21FA04F0294630BD94F0A6
:10050800000F83F4801306BF81F480110134013D8C
:100518004EE77FEA645C18BF7FEA655C29D094EAFD
:10052800050F08BF90EA020F05D054EA000C04BF7B
:100538001946104630BD91EA030F1EBF0021002066
:1005480030BD5FEA545C05D14000494128BF41F005
:10055800004130BD14F580043CBF01F5801130BD69
:1005680001F0004545F0FE4141F470014FF00000F4
:1005780030BD7FEA645C1ABF194610467FEA655CA5
:100588001CBF0B46024650EA013406BF52EA033547
:1005980091EA030F41F4002130BD00BF90F0000F35
:1005A80004BF0021704730B54FF4806404F1320471
:1005B8004FF000054FF0000150E700BF90F0000F2A
:1005C80004BF0021704730B54FF4806404F1320451
:1005D80010F0004548BF40424FF000013EE700BF21
:1005E80042004FEAE2014FEA31014FEA02701FBFB1
:1005F80012F07F4393F07F4F81F06051704732F0E3
:100608007F4208BF704793F07F4F04BF41F4002139
:10061800704730B54FF4607401F0004521F0004197
:100628001CE700BF50EA010208BF704730B54FF021
:1006380000050AE050EA010208BF704730B511F022
:10064800004502D5404261EB41014FF4806404F15A
:1006580032045FEA915C3FF4D8AE4FF003025FEAE0
:10066800DC0C18BF03325FEADC0C18BF033202EB64
:10067800DC02C2F1200300FA03FC20FA02F001FABE
:1006880003FE40EA0E0021FA02F11444BDE600BF61
:1006980070B54FF0FF0C4CF4E06C1CEA11541DBF10
:1006A8001CEA135594EA0C0F95EA0C0F00F0DEF8DB
:1006B8002C4481EA030621EA4C5123EA4C5350EAC0
:1006C800013518BF52EA033541F4801143F4801311
:1006D80038D0A0FB02CE4FF00005E1FB02E506F0A2
:1006E8000042E0FB03E54FF00006E1FB03569CF0F7
:1006F800000F18BF4EF0010EA4F1FF04B6F5007FFD
:1007080064F5407404D25FEA4E0E6D4146EB06066E
:1007180042EAC62141EA55514FEAC52040EA5E50F7
:100728004FEACE2EB4F1FD0C88BFBCF5E06F1ED8A1
:10073800BEF1004F08BF5FEA500E50F1000041EBD8
:10074800045170BD06F0004646EA010140EA020085
:1007580081EA0301B4EB5C04C2BFD4EB0C0541EAA7
:10076800045170BD41F480114FF0000E013C00F3BC
:10077800AB8014F1360FDEBF002001F0004170BDE0
:10078800C4F10004203C35DA0C341BDC04F11404F9
:10079800C4F1200500FA05F320FA04F001FA05F285
:1007A80040EA020001F0004221F0004110EBD37052
:1007B80021FA04F642EB06015EEA430E08BF20EA7E
:1007C800D37070BDC4F10C04C4F1200500FA04F321
:1007D80020FA05F001FA04F240EA020001F00041B3
:1007E80010EBD37041F100015EEA430E08BF20EA26
:1007F800D37070BDC4F1200500FA05F24EEA020E6E
:1008080020FA04F301FA05F243EA020321FA04F09C
:1008180001F0004121FA04F220EA020000EBD37053
:100828005EEA430E08BF20EAD37070BD94F0000F53
:100838000FD101F00046400041EB010111F4801F87
:1008480008BF013CF7D041EA060195F0000F18BF38
:10085800704703F00046520043EB030313F4801F74
:1008680008BF013DF7D043EA0603704794EA0C0F2E
:100878000CEA135518BF95EA0C0F0CD050EA410644
:1008880018BF52EA4306D1D181EA030101F00041C1
:100898004FF0000070BD50EA410606BF10461946E9
:1008A80052EA430619D094EA0C0F02D150EA0136F5
:1008B80013D195EA0C0F05D152EA03361CBF104636
:1008C80019460AD181EA030101F0004141F0FE41D5
:1008D80041F470014FF0000070BD41F0FE4141F459
:1008E800780170BD70B54FF0FF0C4CF4E06C1CEA59
:1008F80011541DBF1CEA135594EA0C0F95EA0C0F0E
:1009080000F0A7F8A4EB050481EA030E52EA0335C8
:100918004FEA013100F088804FEA03334FF08055E9
:1009280045EA131343EA12634FEA022245EA111516
:1009380045EA10654FEA00260EF000419D4208BFC7
:10094800964244F1FD0404F5407402D25B084FEA74
:100958003202B61A65EB03055B084FEA32024FF420
:1009680080104FF4002CB6EB020E75EB030E22BF7D
:10097800B61A754640EA0C005B084FEA3202B6EB3D
:10098800020E75EB030E22BFB61A754640EA5C00EC
:100998005B084FEA3202B6EB020E75EB030E22BF7C
:1009A800B61A754640EA9C005B084FEA3202B6EB7D
:1009B800020E75EB030E22BFB61A754640EADC003C
:1009C80055EA060E18D04FEA051545EA16754FEA9E
:1009D80006164FEAC30343EA52734FEAC2025FEABC
:1009E8001C1CC0D111F4801F0BD141EA00014FF04B
:1009F80000004FF0004CB6E711F4801F04BF01431C
:100A08000020B4F1FD0C88BFBCF5E06F3FF6AFAE37
:100A1800B5EB030C04BFB6EB020C5FEA500C50F1C7
:100A2800000041EB045170BD0EF0004E4EEA11314A
:100A380014EB5C04C2BFD4EB0C0541EA045170BD51
:100A480041F480114FF0000E013C90E645EA060E95
:100A58008DE60CEA135594EA0C0F08BF95EA0C0FC3
:100A68003FF43BAF94EA0C0F0AD150EA01347FF40B
:100A780034AF95EA0C0F7FF425AF104619462CE7E2
:100A880095EA0C0F06D152EA03353FF4FDAE104645
:100A9800194622E750EA410618BF52EA43067FF496
:100AA800C5AE50EA41047FF40DAF52EA43057FF426
:100AB800EBAE12E74FF0FF3C06E000BF4FF0010C31
:100AC80002E000BF4FF0010C4DF804CD4FEA410C95
:100AD8007FEA6C5C4FEA430C18BF7FEA6C5C1BD062
:100AE80001B050EA410C0CBF52EA430C91EA030FE3
:100AF80002BF90EA020F0020704710F1000F91EA40
:100B0800030F58BF994208BF90422CBFD8176FEA0D
:100B1800E37040F0010070474FEA410C7FEA6C5CDB
:100B280002D150EA013C07D14FEA430C7FEA6C5CE2
:100B3800D6D152EA033CD3D05DF8040B704700BF0E
:100B48008446104662468C461946634600E000BF5C
:100B580001B5FFF7B7FF002848BF10F1000F01BD2E
:100B68004DF808EDFFF7F4FF0CBF012000205DF8F9
:100B780008FB00BF4DF808EDFFF7EAFF34BF01207E
:100B880000205DF808FB00BF4DF808EDFFF7E0FF17
:100B980094BF012000205DF808FB00BF4DF808ED68
:100BA800FFF7CEFF94BF012000205DF808FB00BFCF
:100BB8004DF808EDFFF7C4FF34BF012000205DF8B1
:100BC80008FB00BF4FEA410C7FEA6C5C02D150EA97
:100BD800013C0AD14FEA430C7FEA6C5C02D152EA2D
:100BE800033C02D14FF0000070474FF001007047FE
:100BF8004FEA4102B2F1E04324BFB3F5001CDCF137
:100C0800FE5C0DD901F0004C4FEAC0024CEA50706E
:100C1800B2F1004F40EB830008BF20F0010070479D
:100C280011F0804F21D113F13872BCBF01F00040A0
:100C3800704741F480114FEA5252C2F11802C2F1D2
:100C4800200C10FA0CF320FA02F018BF40F0010053
:100C58004FEAC1234FEAD32303FA0CFC40EA0C0005
:100C680023FA02F34FEA4303CCE77FEA625307D142
:100C780050EA01331EBF4FF0FE4040F44000704779
:100C880001F0004040F0FE4040F40000704700BF13
:100C980080F0004002E000BF81F0004142001FBF29
:100CA8005FEA410392EA030F7FEA226C7FEA236C32
:100CB8006AD04FEA1262D2EB1363C1BFD218414027
:100CC80048404140B8BF5B42192B88BF704710F0BD
:100CD800004F40F4000020F07F4018BF404211F060
:100CE800004F41F4000121F07F4118BF494292EAC8
:100CF800030F3FD0A2F1010241FA03FC10EB0C00F4
:100D0800C3F1200301FA03F100F0004302D5494280
:100D180060EB4000B0F5000F13D3B0F1807F06D32D
:100D280040084FEA310102F10102FE2A51D2B1F125
:100D3800004F40EBC25008BF20F0010040EA03001A
:100D48007047490040EB0000013A28BFB0F5000F9A
:100D5800EDD2B0FA80FCACF1080CB2EB0C0200FA50
:100D68000CF0AABF00EBC25052421843BCBFD0409F
:100D78001843704792F0000F81F4000106BF80F419
:100D880000000132013BB5E74FEA41037FEA226CDC
:100D980018BF7FEA236C21D092EA030F04D092F0A7
:100DA800000F08BF0846704790EA010F1CBF0020DB
:100DB800704712F07F4F04D1400028BF40F0004038
:100DC800704712F100723CBF00F50000704700F058
:100DD800004343F0FE4040F4000070477FEA22627F
:100DE80016BF08467FEA23630146420206BF5FEA50
:100DF800412390EA010F40F4800070474FF0000350
:100E080004E000BF10F0004348BF40425FEA000C16
:100E180008BF704743F0964301464FF000001CE0BE
:100E280050EA010208BF70474FF000030AE000BF14
:100E380050EA010208BF704711F0004302D5404252
:100E480061EB41015FEA010C02BF844601460020C4
:100E580043F0B64308BFA3F18053A3F50003BCFADF
:100E68008CF2083AA3EBC25310DB01FA02FC63448C
:100E780000FA02FCC2F12002BCF1004F20FA02F293
:100E880043EB020008BF20F00100704702F1200286
:100E980001FA02FCC2F1200250EA4C0021FA02F2E7
:100EA80043EB020008BF20EADC7070474FF0FF0CEC
:100EB8001CEAD0521EBF1CEAD15392EA0C0F93EAE7
:100EC8000C0F6FD01A4480EA010C400218BF5FEA89
:100ED80041211ED04FF0006343EA501043EA5111FC
:100EE800A0FB01310CF00040B1F5000F3EBF4900F6
:100EF80041EAD3715B0040EA010062F17F02FD2AFA
:100F08001DD8B3F1004F40EBC25008BF20F00100DC
:100F1800704790F0000F0CF0004C08BF49024CEAF3
:100F2800502040EA51207F3AC2BFD2F1FF0340EA85
:100F3800C250704740F400004FF00003013A5DDCF6
:100F480012F1190FDCBF00F000407047C2F1000237
:100F5800410021FA02F1C2F1200200FA02FC5FEA24
:100F6800310040F1000053EA4C0308BF20EADC706E
:100F7800704792F0000F00F0004C02BF400010F4E0
:100F8800000F013AF9D040EA0C0093F0000F01F08D
:100F9800004C02BF490011F4000F013BF9D041EAAF
:100FA8000C018FE70CEAD15392EA0C0F18BF93EAB1
:100FB8000C0F0AD030F0004C18BF31F0004CD8D1DB
:100FC80080EA010000F00040704790F0000F17BF62
:100FD80090F0004F084691F0000F91F0004F14D0A8
:100FE80092EA0C0F01D142020FD193EA0C0F03D100
:100FF8004B0218BF084608D180EA010000F0004003
:1010080040F0FE4040F40000704740F0FE4040F4DD
:10101800400070474FF0FF0C1CEAD0521EBF1CEA7C
:10102800D15392EA0C0F93EA0C0F69D0A2EB03029A
:1010380080EA010C49024FEA402037D04FF0805334
:1010480043EA111143EA10130CF000408B4238BFF9
:101058005B0042F17D024FF4000C8B4224BF5B1A07
:1010680040EA0C00B3EB510F24BFA3EB510340EA55
:101078005C00B3EB910F24BFA3EB910340EA9C0003
:10108800B3EBD10F24BFA3EBD10340EADC001B0173
:1010980018BF5FEA1C1CE0D1FD2A3FF650AF8B4217
:1010A80040EBC25008BF20F0010070470CF0004C24
:1010B8004CEA50207F32C2BFD2F1FF0340EAC2504F
:1010C800704740F400004FF00003013A37E792F010
:1010D800000F00F0004C02BF400010F4000F013A6E
:1010E800F9D040EA0C0093F0000F01F0004C02BF69
:1010F800490011F4000F013BF9D041EA0C0195E7D2
:101108000CEAD15392EA0C0F08D142027FF47DAF6A
:1011180093EA0C0F7FF470AF084676E793EA0C0F5A
:1011280004D14B023FF44CAF08466EE730F0004C58
:1011380018BF31F0004CCAD130F000427FF45CAFE8
:1011480031F000437FF43CAF5FE700BF4FF0FF3C56
:1011580006E000BF4FF0010C02E000BF4FF0010CA9
:101168004DF804CD4FEA40024FEA41037FEA226C72
:1011780018BF7FEA236C11D001B052EA530C18BF94
:1011880090EA010F58BFB2EB030088BFC81738BFF9
:101198006FEAE17018BF40F0010070477FEA226CE7
:1011A80002D15FEA402C05D17FEA236CE4D15FEAE3
:1011B800412CE1D05DF8040B704700BF8446084617
:1011C8006146FFE70FB5FFF7C9FF002848BF10F1D8
:1011D800000F0FBD4DF808EDFFF7F4FF0CBF01201D
:1011E80000205DF808FB00BF4DF808EDFFF7EAFFA7
:1011F80034BF012000205DF808FB00BF4DF808ED62
:10120800FFF7E0FF94BF012000205DF808FB00BF56
:101218004DF808EDFFF7D2FF94BF012000205DF8DC
:1012280008FB00BF4DF808EDFFF7C8FF34BF0120E9
:1012380000205DF808FB00BF4FEA4002B2F1FE4F04
:101248000FD34FF09E03B3EB12620DD94FEA002380
:1012580043F0004310F0004F23FA02F018BF404259
:1012680070474FF00000704712F1610F01D1420240
:1012780005D110F0004008BF6FF0004070474FF0F4
:101288000000704742000ED2B2F1FE4F0BD34FF070
:101298009E03B3EB126209D44FEA002343F00043E4
:1012A80023FA02F070474FF00000704712F1610F07
:1012B80001D1420202D14FF0FF3070474FF00000D9
:1012C800704700BF10F8012B11F8013B012A28BF15
:1012D8009A42F7D0D01A7047034613F8012B002A18
:1012E800FBD1181A013870470548064B1B1AD90F4D
:1012F80001EBA301491002D0034B03B11847704713
:1013080054020020540200200000000008B5054BDC
:101318001BB105490548AFF30080BDE80840FFF759
:10132800E3BF00BF0000000058020020F4B5000829
:1013380010B5044678B1084A92F84C0058B1074BEA
:1013480093F8300038B15268D86805492260FFF731
:10135800ADFD6060012010BD88020020CC00002097
:101368000000C8422DE9F04F87B090B340F2231235
:101378000368934234D0B3F50D7F2AD10023CDE919
:101388000033334B33491E683046FFF78FFD002189
:1013980005463046FFF73CFF4FF07C51E0B9284640
:1013A800FFF77AFCFFF748FF01238DF801000012D0
:1013B8008DF800308DF80200032340F232408DF89A
:1013C8000C30029002A9CDF810D0ADF8140003F04B
:1013D80012F807B0BDE8F08F2846FFF75FFCE1E799
:1013E8001D4B00241D796F466B1E042B88BF0525F5
:1013F8004FF07C58CDE90044184B164953F834A0F7
:101408005046FFF753FD002181465046FFF700FF85
:101418004146B0B14846FFF741FCFFF70DFF00B267
:10142800002812DBFF28A8BFFF200134E3B29D4249
:1014380007F8010BE0D840F221308DF80C500290EB
:10144800C0E74846FFF728FCE7E70020EDE700BFC4
:101458008802002000002041210100209402002081
:1014680000B501218BB0042003F072FC0121082093
:1014780003F06EFC0121084603F06AFC01211E48B6
:1014880003F0DEFB00211D4A1D48D36823F4E06306
:101498001B041B0C43F0BF6343F40033D360194BA8
:1014A8000193194B0293194B0393194B0493194B4E
:1014B8000693194B0593194BCDE90713184B09935C
:1014C80004F0F4FF174B186020B9174805F0B0FE78
:1014D8000BB000BD02F06EF902F078FE01A801F031
:1014E8008FFF00F0FDFE01F0D7F800F069F900F079
:1014F800E3FD00F007FBEBE70002300000ED00E041
:1015080010950008452700088D270008FD260008CB
:10151800D52700081D2800081F280008010501011B
:101528001C0C6810700200201A95000838B5134D7D
:1015380004462B8883421CD2B5F8C83083421AD996
:10154800034664220021284601F066F90A2183B285
:101558005A1E35F8122035F81330A41A4C439B1A3A
:1015680094FBF3F4013800EB800004EB400080B2F8
:1015780038BD0020FCE74FF47A70F9E7000000203E
:10158800864D2DE987488649E868FFF78FFCFFF705
:1015980079FE80B2FFF7CAFFFFF734FC8049FFF7F6
:1015A80039FD804C4FF00008616AE060A162FFF7E6
:1015B8007DFC7B4FE062DFF8F091464699F8042005
:1015C800D5F80CB005EBC203D3F804A00023C4F887
:1015D8001CA0C4F820B0D9B28A4200F29D801046FF
:1015E800FFF710FC01463046FFF714FD594620610D
:1015F8005046FFF751FBA96860616868FFF756FC21
:10160800AB6CA061002B46D068492868FFF74EFCF8
:10161800FFF712FE664A00B2B2F900309842CCBF1A
:10162800C31A1B1A092B36DDF928108000F38180B4
:1016380083B2A3F16402952A7DD9632B7DD903F186
:10164800C80292B2BD2A7AD903F596739BB2632B6E
:101658008CBF06230523FA3858430A2390FBF3F07E
:1016680040F2EE2300F57A7080B2984238BF1846EF
:1016780040F21A43984228BF1846FFF7C3FB616A35
:10168800FFF714FC3946FFF7C5FC0146A062E06885
:10169800FFF70CFCE06299F80030042B18D141F2F6
:1016A800883006F0C1FC3946E868FFF7FFFBFFF712
:1016B800E9FD80B2FFF73AFFFEF780FF00223D4BBD
:1016C800FFF710F9FFF794FAA16AFFF7EFFBE06262
:1016D80099F80090A66AB9F1030F33D03946A86883
:1016E800FFF7E4FBFFF7A8FDFFF78CFB3946FFF790
:1016F80091FC3149FFF78EFCB9F1010F20F0004051
:1017080039D1E16AFFF7CAFA31468146FFF776FD1B
:10171800B8B1C4F82C9015E00192284A304652F826
:1017280033100093FFF7BAFA009B0646019A01337B
:1017380051E701238FE702238DE703238BE7042377
:1017480089E7E6623146E06AFFF764FC4FF07E51B4
:101758000646FFF767FDF0B14FF07E50114BD86099
:1017680094F8303013B9012384F830304FF47A708C
:1017780006F058FC1FE7B9F1020FE3D10146E06A11
:10178800FFF78AFA41468146FFF742FD0028C0D19B
:10179800C4F82C80D6E73046E0E700BF8802002076
:1017A80000007A44CC0000202101002000002041E4
:1017B8007402002000408F40000061459402002020
:1017C80007B5152319220E49CDE900320D484FF40B
:1017D8008073002206F03CFB68B106F067FC0A48FB
:1017E80005F026FD094805F023FD094803B05DF81A
:1017F80004EB05F01DBD074805F01AFD0648F2E7A1
:101808008915000837950008449500085295000886
:1018180007990008889500089695000838B50121B1
:1018280047F6FF7001F0CCF80023074A074D137004
:10183800074AC82093832B6004F0D6FB044604F0C3
:10184800A7FB04442C6038BD800200207C020020E5
:10185800000100202DE9FF48974CDFF8608263788B
:10186800DFF85C9288F80030A3784FF4FA7089F8B2
:10187800003006F0D9FBDFF84CB204F089FB924B3C
:101888001B6898420AD99BF800303BB925788F4EDF
:1018980005F0FD05012D3BD00023B3772578022DF7
:1018A80000F0B480032D00F0C280012D12D1874BC7
:1018B8001968874BD868FFF7ABFC58B1284601F088
:1018C8006BF8844805F0B4FC834805F0B1FC834804
:1018D80005F0AEFC607898F80030834207D0012804
:1018E80040F0DD8001F058F8637888F80030A0787F
:1018F80099F80030834207D0012840F0D68001F0E3
:1019080037F8A37889F80030C82006F08BFBB4E7D5
:10191800DFF8CCA1237931690AEBC3035868FFF7D4
:1019280063FC0028B8D16A4B71695869FFF75CFC01
:101938000028B1D1DAF80C30B57701932279B78B4A
:10194800AA422BD2002FA9D00021384601F038F83E
:10195800012360488BF8003005F06AFC614805F007
:1019680067FC5E4805F064FC4FF47A70B3695E4D1D
:10197800584304F039FB002105AA0590286806F0B1
:1019880073FD286806F0D0FC524805F051FC574812
:1019980005F04EFC514805F04BFC7FE7531B013323
:1019A8000AEBC3030199586803920293FFF774F98D
:1019B8007169FFF72DFC0028C4D0029B039A99682F
:1019C80009B9B80708D5013A481E8A4247FA00F013
:1019D80015D110F0010F0FD101238B403B433D4837
:1019E8000291B38305F024FC02994148013105F0C6
:1019F8001FFC3A4805F01CFC0135EDB29EE74B1C74
:101A080047FA03F3034313F0010FE4E72F4B9968F8
:101A18002F4BD868FFF7F2FB00283FF45BAF01209B
:101A280000F0A6FF2B4805F003FC32484DE7637829
:101A3800CBB9314BB3F844301B0714D1234B9D7FEE
:101A48008DB95968224BD868FFF7CEFB58B12846A4
:101A580000F0A2FF1F4805F0EBFB284805F0E8FB63
:101A68001E4805F0E5FBA378002B7FF433AF224B2B
:101A7800B3F8440010F4F8757FF42CAF134BD96811
:101A8800134BD868FFF7CEFB00283FF423AF284656
:101A980000F06EFF0F4805F0CBFB194815E72378D7
:101AA800042B7FF421AF00201CE72378042B7FF45C
:101AB80028AF002023E700BF210100207702002083
:101AC80076020020800200207C0200200001002015
:101AD800CC000020BC950008139600080799000860
:101AE80088020020D995000878020020F3950008A4
:101AF800C99500081F9600082C0100202E960008A2
:101B08003B96000837B5162319221C49CDE9003247
:101B18001B484FF40073002206F09AF9002205468C
:101B2800C82318491848009206F0CEFB174C2060CD
:101B3800CDB1284606F0BAFA154805F079FB1548E4
:101B480005F076FB144805F073FB236883B1104851
:101B580005F06EFB114805F06BFB0F4803B0BDE8BC
:101B6800304005F065BB0E4805F062FB0D48E7E71D
:101B78000B4805F05DFB0C48EDE700BF5D18000859
:101B88004B96000825180008579600087802002090
:101B9800BC9500086596000807990008CC960008CF
:101BA8009A960008A79600080097000870B504F0F8
:101BB800EFF904464FF47A7004F016FA06460A2044
:101BC80004F012FA054602F006FC04F0E1F9001BE5
:101BD800B04204D302F00DFC04F0DAF904462846BA
:101BE80006F020FAEFE7000070B50C4605461149EB
:101BF8002046FFF75BF9002106462046FFF708FB61
:101C0800A0B14FF07C513046FFF748F8FFF714FBBE
:101C18000A2390FBF3F203FB1203002B2846BDE8CE
:101C280070400549B8BF5B4206F08ABF4FF03F419C
:101C3800E9E700BF000020412497000870B50C4672
:101C4800054611492046FFF731F90021064620468E
:101C5800FFF7DEFAA8B14FF07C513046FFF71EF8C7
:101C6800FFF7EAFA4FF47A7390FBF3F203FB1203DF
:101C7800002B2846BDE870400449B8BF5B4206F017
:101C88005FBF4FF03F41E8E700007A442A97000819
:101C980000262DE9804897B0AA4C3146E068FFF746
:101CA80099FA8046002800F02B8101224021A6489D
:101CB80002F0C1FF01228021A34802F0BCFF0122EB
:101CC8004FF48071A04802F0B6FF01224FF4007172
:101CD8009D4802F0B0FF9D4B1B78002B00F00B8154
:101CE8009B4805F0A5FA9B4805F0A2FA9A4805F02A
:101CF8009FFADFF868829A4998F8003006A8013BF5
:101D0800DBB2032B96BF974A974A52F8232006F076
:101D180017FF8F4805F08CFA06A9944805F088FA51
:101D28008D4805F085FA924805F082FAA16A02A862
:101D3800FFF784FF02AA8F4906A806F001FF84482E
:101D480005F076FA06A9894805F072FA824805F086
:101D58006FFAE16A02A8FFF771FF02AA864906A88E
:101D680006F0EEFE7A4805F063FA06A97F4805F00A
:101D78005FFA794805F05CFA7D4805F059FAE068A1
:101D88007E49FFF793F8014602A8FFF72DFF02AA44
:101D98007B4906A806F0D4FE6D4805F049FA06A965
:101DA800724805F045FA6C4805F042FAE16902A864
:101DB800FFF744FF02AA734906A806F0C1FE64486B
:101DC80005F036FA06A9694805F032FA624805F0C6
:101DD8002FFA216A02A8FFF731FF02AA6A4906A86A
:101DE80006F0AEFE5A4805F023FA06A95F4805F04A
:101DF8001FFA594805F01CFA616902A8FFF71EFF8F
:101E080002AA624906A806F09BFE514805F010FA9E
:101E180006A9564805F00CFA4F4805F009FA216959
:101E280002A8FFF70BFF02AA594906A806F088FE88
:101E3800474805F0FDF906A94C4805F0F9F9464868
:101E480005F0F6F9A16902A8FFF7F8FE02AA5149C0
:101E580006A806F075FE3E4805F0EAF906A94348CB
:101E680005F0E6F94C4C3C4805F0E2F9404805F02D
:101E7800DFF9616802A8FFF7E1FE02AA474906A850
:101E880006F05EFE324805F0D3F906A9374805F09A
:101E9800CFF9314805F0CCF9A16802A8FFF7CEFECA
:101EA80002AA3F4906A806F04BFE294805F0C0F9EA
:101EB80006A92E4805F0BCF9274805F0B9F900270E
:101EC800A36CFDB29D42C0F0B0800025DFF8D4A01D
:101ED800354FDFF8D8B098F804305FFA85F94B45EC
:101EE80000F2BA801A4805F0A3F9314805F0A0F9C4
:101EF800194805F09DF940F6B83006F093F8CBE69E
:101F08003146E068FFF78EF900283FF4E4AE4FF061
:101F18007A51E068FFF772F9074600284AD0012293
:101F28004021094802F087FE01228021064802F07C
:101F380082FE01224FF48071034802F07CFE424683
:101F4800C4E600BFCC000020000C014020010020A6
:101F58003D970008479700080799000821010020CD
:101F68008797000850AF000832970008A698000825
:101F78000699000898970008B59700080000C8421D
:101F8800D4970008E7970008FE97000815980008FE
:101F98003798000852980008880200206B980008BB
:101FA800819800080001002028A30008389700083D
:101FB800C59800084FF07C51E068FFF71FF980468C
:101FC80088B101224021364802F035FE01228021E5
:101FD800334802F030FE3A464FF48071304802F040
:101FE8002AFE3A4672E64FF07D51E068FFF706F99F
:101FF800074658B101224021294802F01CFE4246FA
:102008008021274802F017FE424693E74FF07E51A1
:10201800E068FFF7F3F800283FF45DAE3A46402148
:102028001F4802F008FE3A46D1E754F8251002A8E6
:10203800FFF7DAFD02AB6A1C1A4906A806F080FD14
:10204800194805F0F5F806A9184805F0F1F81848F8
:10205800013705F0EDF833E704EB8903596B02A863
:10206800FFF7ECFD0123BAF81C1003FA09F3194233
:102078000CBF3B465B4609F101020E49009306A8D6
:1020880002AB06F05DFD084805F0D2F806A907483E
:1020980005F0CEF8064805F0CBF801351BE700BF80
:1020A800000C0140979800083D970008A698000882
:1020B80007990008A99800081FB51D4B1D4803A9DA
:1020C800039302F05DFD4FF470711A4802F0AFFD02
:1020D800142319210022CDE9003117484FF48063F9
:1020E800164905F0B5FED8B105F0E0FF144805F033
:1020F8009FF8144805F09CF8134805F099F8162342
:1021080014221249CDE9003211484FF4007300221D
:1021180005F09EFE48B105B05DF804EB05F0C6BFBA
:102128000C4805F085F80C48E4E705B000BD00BF91
:10213800C0030310000C014009990008991C00080D
:10214800129900081C99000807990008B51B000897
:102158007A9900084E99000858990008B0FA80F05A
:10216800014B4009187070472001002008B5096824
:102178000068FFF757F8003818BF012008BD0000B5
:102188002DE98848464D474B474E1A8802F1FA0117
:1021980019804FF605718A421AD8444A1278BAB1A2
:1021A80000241C8000F020FC3D4A4148234681461B
:1021B8001446317902F1300C5FFA83FE714546D836
:1021C8003C4B08223C4800F06AFBD9F81C3063609D
:1021D8003A4A1388FA339BB2B3F5FA6F138013D3D4
:1021E800374B1B7883B1002427461480DFF8D4A02E
:1021F80000F00CFC96F805B0E2B2934531D83946A8
:102208002748AF6400F01FFB2F4A1388FA339BB2AC
:10221800B3F57A7F138009D32C4B1B7833B1002395
:10222800138000F003FC224B9B69AB602849A86827
:10223800FEF7F8FF38B30223337095F84C3013B922
:10224800012385F84C30FA2005F0ECFE9BE750F8A6
:1022580004EB08324CF804EF9360C2F804E0013351
:10226800AAE75AF8049F1B494846FEF7D1FF40B138
:1022780048461949FEF7C2FF18B17A1C45F827905D
:10228800D7B20134B8E71549A868FEF7ADFF08B121
:102298000123D1E73378042BCFD00323CCE700BF49
:1022A8008802002086020020210100202901002048
:1022B800E83E0020752100089402002084020020D6
:1022C80028010020F83E002082020020270100207B
:1022D800CDCC4C3E00005CC20000FA42CDCC4CBED6
:1022E80007B5132319220E49CDE900320D484FF4E2
:1022F8000073002205F0ACFD68B105F0D7FE0A486E
:1023080004F096FF094804F093FF094803B05DF80C
:1023180004EB04F08DBF074804F08AFF0648F2E793
:1023280089210008909900089C990008A99900083B
:1023380007990008DE990008EB99000880B5A14EBE
:10234800A14C96F80080B8F1010F38D0B8F1020F0F
:1023580000F09080B4F844506DB3EB0740F1BA80B8
:102368009A4BA168D86AFEF73FFF60B1984825F0FC
:102378000105A4F8445004F05BFF964804F058FFA8
:10238800954804F055FFB4F84450E90640F1EC8054
:102398008E4B2169D868FEF745FF60B18C4825F05F
:1023A8001005A4F8445004F043FF8C4804F040FFA3
:1023B800894804F03DFFC82005F036FEC1E7834D8B
:1023C8006169A86801F10041FEF70EFFF8B14FF40A
:1023D8007A71834F94F822203B884A43C8339BB2D2
:1023E80093423B8013DB404600F0D6FAB4F8443001
:1023F8007C4843F00203A4F8443000233B8004F0F7
:1024080017FF794804F014FF734804F011FFAB6C10
:10241800002B9FD0013B55F82350616B2846FEF7EF
:10242800E3FE90B1012000F0B7FAB4F844306D48EB
:1024380043F00803A4F8443004F0FAFE6B4804F0B3
:10244800F7FE654804F0F4FE84E72846616AFEF763
:10245800E9FE00283FF47EAF012000F09DFAB4F8B1
:102468004430604843F00403A4F8443004F0E0FE2C
:102478005F48E4E7554A936C002B3FF46BAF013B90
:1024880052F82350E16B2846FEF7AEFE68B10120F2
:1024980000F06EFAB4F84430524843F48073A4F85C
:1024A800443004F0C5FE5348C9E72846E16AFEF700
:1024B800B9FE00283FF44EAF012000F059FAB4F8F5
:1024C8004430484843F08003A4F8443004F0B0FE98
:1024D8004948B4E76F0713D53C4BA16A1868FEF763
:1024E80083FE00283FF44FAF707825F00405A4F868
:1024F800445000F051FA364804F09AFE3F483DE750
:1025080015F0080113D0314BA16B1868FEF78AFE4D
:1025180000283FF438AF707825F00805A4F8445037
:1025280000F03AFA2A4804F083FE354826E7A8075F
:102538007FF529AF4FF47A70324A1368C8331360B5
:10254800B3FBF0F394F823008342FFF41CAF7078D8
:1025580025F002051160A4F8445000F01DFA1C484B
:1025680004F066FE284809E72A0613D5174B216BA5
:102578001868FEF739FE00283FF41DAFB07825F043
:102588008005A4F8445000F0F3F9114804F050FE17
:102598001E480BE715F480703CD00C4B216C186872
:1025A800FEF740FE00283FF406AFB07825F48075AA
:1025B800A4F8445000F0DCF9054804F039FE14484A
:1025C800F4E600BF210100202C0100208802002031
:1025D800A59A0008B29A000807990008FD9A000811
:1025E800E0020020109A00081D9A0008379A000897
:1025F800519A00086B9A0008889A0008C49A000843
:10260800D79A0008DC020020EA9A0008129B00080A
:10261800289B000815F0200119D04FF47A711A4A46
:102628001368C8331360B3FBF1F394F820108B429E
:10263800FFF4C1AE106025F02005B078A4F844502E
:1026480000F096F9114804F0F3FD1148AEE66B0668
:102658007FF5B1AE4FF47A700B4A1368C833136034
:10266800B3FBF0F394F821008342FFF4A4AEB078F2
:1026780025F040051160A4F8445000F079F90348AA
:1026880004F0D6FD034891E6D8020020A59A000878
:102698003E9B0008549B000807B5142319220E49D5
:1026A800CDE900320D484FF48073002205F0D0FBCD
:1026B80068B105F0FBFC0A4804F0BAFD094804F0CB
:1026C800B7FD094803B05DF804EB04F0B1BD074855
:1026D80004F0AEFD0648F2E7452300086A9B0008AF
:1026E800A59A0008769B000807990008AB9B00088C
:1026F800B89B000810B50D4CB4F84430DB0713D470
:10270800012000F049F9B4F84430094843F00103C6
:10271800A4F8443004F08CFD064804F089FDBDE8B7
:102728001040054804F084BD10BD00BF2C010020F6
:10273800109A0008DD9B00080799000810B50D4C99
:10274800B4F844309B0613D4012000F011F9B4F812
:102758004430094843F02003A4F8443004F068FDED
:10276800064804F065FDBDE81040054804F060BD6A
:1027780010BD00BF2C010020109A0008F69B00082D
:102788000799000810B50D4CB4F844305B0613D413
:10279800012000F0EDF8B4F84430094843F0400354
:1027A800A4F8443004F044FD064804F041FDBDE8B7
:1027B8001040054804F03CBD10BD00BF2C010020AE
:1027C800109A0008139C00080799000810B50D4CD2
:1027D800B4F84430DB0613D4012000F0C9F8B4F88B
:1027E8004430094843F01003A4F8443004F020FDB5
:1027F800064804F01DFDBDE81040054804F018BD6A
:1028080010BD00BF2C010020109A0008309C000861
:10281800079900087047704770B51546A94205D357
:10282800954294BF28464FF0FF3070BD4C19641094
:1028380030F81460A4B29E4203D03EBF0134A1B266
:102848002C462546EAE72DE9F84F06460F460125AE
:1028580000EB810BBD4213D23446ABEB850AD4F8AA
:10286800008054F8049F40464946FEF7DBFC18B147
:1028780044F8049CC4F800805445F0D10135E9E7D8
:10288800BDE8F88F10B501380A44914200D110BD57
:1028980010F8013F0C78047001F8013BF5E72DE9C9
:1028A800F74F82460F46904601250193BD4216D246
:1028B80054460026A7EB0509A3464444214658463A
:1028C800019B9847002806F1010604DD424621468F
:1028D8005846FFF7D7FF4E45EED10135E6E703B07E
:1028E800BDE8F08F0022014B9A707047210100204B
:1028F8000122014B9A707047210100200022014BF0
:102908005A707047210100200122014B5A7070470C
:10291800210100200022014BDA70704721010020BC
:102928000122014BDA707047210100200020FFF7D7
:1029380015BC0120FFF712BC08B500F0DBFC50B154
:10294800074804F075FC074804F072FCBDE808402D
:10295800054804F06DBC024804F06AFC0348F3E73C
:102968004C9C0008559C000807990008639C0008C7
:1029780038B50546074C4FF0FF31206803F0C4FD19
:102988002946022000F000FD2068BDE8384003F029
:102998006FBE00BF7002002038B50546074C4FF0E7
:1029A800FF31206803F0B0FD2946012000F0ECFC5F
:1029B8002068BDE8384003F05BBE00BF700200200D
:1029C80070B505460E46074C4FF0FF31206803F0FE
:1029D8009BFD2846314600F0E5FC2068BDE87040C4
:1029E80003F046BE7002002010B5074C4FF0FF31CF
:1029F800206803F089FD00F0CFFA00F0FDFB2068A5
:102A0800BDE8104003F034BE7002002010B5064C3B
:102A18004FF0FF31206803F077FD00F009FB2068D4
:102A2800BDE8104003F024BE7002002010B5064C2B
:102A38004FF0FF31206803F067FD00F095FB206838
:102A4800BDE8104003F014BE7002002008B501F084
:102A5800DFFB002008BD000000487047E2020020AC
:102A680000487047E23E002008B504F073F803F010
:102A780095FABDE8084004F07BB810B501F068F994
:102A8800FFF7EAFF0446FFF7EBFF0146204604F094
:102A980045FCBDE8104003F0B3BA000010B5441E71
:102AA80014F8013F03B910BD0A2B09D10D210A48BA
:102AB80002F040FA8021084802F044FA0028F9D0D0
:102AC8002178054802F036FA8021034802F03AFAE4
:102AD8000028F9D0E4E700BF003801400E4B10B5DC
:102AE800186818B14FF0FF3103F0F2FBFDF790FBC7
:102AF8000A4A0B491388098899420FBF4FF0FF34DF
:102B08000849CC5C01331CBF03F07F031380FDF739
:102B180083FB204610BD00BFEC410020F04100209F
:102B2800F2410020F441002008B5FEF799FCC820C6
:102B380005F078FAFBE7431E0020F0B50822802450
:102B4800013913F8016FC9B247B24000C0B280F032
:102B5800070530EA270028BF284680F007052642E7
:102B6800EDB218BF2846013A4FEA5404ECD10029C7
:102B7800E4D1F0BD182270B58CB08DF807000E4670
:102B88000DEB0200002105F0FDFF0823ADF814301D
:102B9800ADF8243003AB0124089304230DF1070298
:102BA800049204A902222048ADF816408DF82A4064
:102BB800ADF8263001F0FAF9022801460BD01B487F
:102BC80004F036FB1A4804F033FB1A4804F030FBD3
:102BD80000200CB070BD11239DF80C5002A88DF890
:102BE80008308DF80950FFF7A6FF9DF80D30834295
:102BF80004D00E4804F01CFB0F48E4E721460DF111
:102C08000E00FFF798FF9DF80F30834204D00B4861
:102C180004F00EFB0A48D9E79DF80E30204645EA35
:102C280003253580D5E700BF78010020789C00088F
:102C3800859C000807990008A69C0008CA9C000803
:102C4800DA9C00082DE9F04194B004AC17468DF8E1
:102C5800070020220E462046002105F093FF182287
:102C680000210EA805F08EFF0DF1070308220C9332
:102C78000123ADF83420ADF83630ADF844208DF896
:102C88004A300CA907FA03F3022223481094ADF83E
:102C9800463001F08BF9022801460CD01F4804F099
:102CA800C7FA1F4804F0C4FA1E4804F0C1FA00200D
:102CB80014B0BDE8F08111239DF8105003A88DF8D9
:102CC8000C308DF80D50FFF736FF9DF81130834218
:102CD80004D0124804F0ACFA1348E3E735703546DF
:102CE800A046023401212046FFF725FF98F803305B
:102CF800834204D0094804F09BFA0C48D2E7013516
:102D08002B4698F8022003F8012B9B1BDBB29F424D
:102D1800E6D80120CCE700BF78010020789C0008A5
:102D2800009D000807990008229D0008479D00089B
:102D380070B5102406460D4686B02246002102A82A
:102D480005F020FF032101A88DF804408DF80560E7
:102D58008DF80650FFF7EFFE0DF1050302930B4BBC
:102D68008DF8070001220A4802A9039301F01EF911
:102D7800012809D0074804F05BFA074804F058FA1C
:102D8800064804F055FA002006B070BD080003009C
:102D980078010020789C00086A9D000807990008BF
:102DA800182230B58DB08DF807000D460DEB0200E6
:102DB800002105F0E7FE0DF1070308220493012323
:102DC800ADF81420ADF81630ADF824208DF82A306F
:102DD8000DEB0203022204A914480893ADF826203B
:102DE80001F0E4F8022801460AD0114804F020FA5C
:102DF800104804F01DFA104804F01AFA0DB030BD5E
:102E080011239DF8084003A88DF80C308DF80D406B
:102E1800FFF791FE9DF80930834204D0044804F07E
:102E280007FA0648E5E72C70E8E700BF78010020BC
:102E3800789C00088C9D000807990008AD9D000843
:102E48002DE9F04110240F4605468CB000211646A6
:102E580004A8202205F096FE22460021684605F0C7
:102E680091FE3B780DEB040003218DF810408DF89E
:102E780011508DF81230FFF75EFEB8468DF813003A
:102E88006C4408F101084546204615F8013B01212C
:102E980000F8043FFFF74FFEED1BEDB2AE42607144
:102EA80004F10204EDD808237600ADF804300122BD
:102EB8000DF1110369460A4801360093ADF8066022
:102EC80001F074F8012808D0064804F0B1F9064862
:102ED80004F0AEF9054804F0ABF90CB0BDE8F08198
:102EE80078010020789C0008CF9D00080799000809
:102EF80037B54FF4805001F02DFE002843D0002054
:102F08000DF107018DF80700FFF74AFF9DF80750FC
:102F180015F0010403D01F4B1B6803B19847AA079B
:102F280005D51C4B44F002045B6803B198476B0756
:102F380005D5184B44F004049B6803B1984728074B
:102F480005D5144B44F00804DB6803B19847E9063B
:102F580005D5104B44F010041B6903B19847AA0625
:102F680005D50C4B44F020045B6903B198472B0648
:102F780005D5084B44F080049B6903B19847214666
:102F88000020FFF7D5FE4FF4805003B0BDE8304075
:102F980001F0F0BD4C3F00202DE9F84F0A220C202B
:102FA8001A49FFF74FFE40B9194804F041F919488A
:102FB80004F03EF9184804F03BF905244FF47A7AF6
:102FC8004FF00008154B164EB3F900B0154B164DCF
:102FD80093F90070DFF8549036F8020F013C40BABC
:102FE80080B20BFB00F0B0FBFAF03844FDF7D6FADC
:102FF80042464B46FDF776FCFDF7FAFD14F0FF0458
:1030080045F8040BE8D1BDE8F88F00BF183F002051
:10301800789C0008F29D000807990008463F0020A8
:10302800163F0020453F0020E83E002000408F402A
:1030380070B5434B1A789AB10022182104201A70EF
:10304800FFF776FE40B93F4804F0F2F83E4804F036
:10305800EFF83E4804F0ECF84FF4FA6004F0E4FFAF
:1030680002222C203A49FFF7EDFD40B9354804F01B
:10307800DFF8354804F0DCF8344804F0D9F8354B6B
:10308800988D40BA80B2FDF799FA23A3D3E90023BB
:10309800FDF7FEFAFDF7ACFD2F490646FDF706FFE2
:1030A800FDF79EFA044630460D46FDF799FA0246AA
:1030B8000B461BA1D1E90001FDF732F902460B4688
:1030C80020462946FDF70EFCFDF792FD2249FDF743
:1030D800A1FFFDF785FA05F005FB13A3D3E900234B
:1030E800FDF700FC12A3D3E90023FDF71BF9024604
:1030F8000B4600201949FDF7F5FB0FA3D3E9002380
:10310800FDF70EF9164B0022FDF70CF9FDF770FDDF
:10311800144B586170BD00BF7978CF81E508393FFD
:103128006666666666660A400000000000DCAE401F
:10313800000000E0E1796B3F00000060661271401A
:10314800443F0020789C00080B9E0008079900085F
:10315800383F00200C3F002000401C460000F03F94
:103168000000E03FE83E002008B532201C49FFF788
:1031780001FD40B91B4804F05BF81B4804F058F8FF
:103188001A4804F055F81A4B5B8E5BBA98B2424263
:1031980013F4004F92B218BF5042FDF70FFA0AA37A
:1031A800D3E90023FDF774FA09A3D3E90023FDF757
:1031B80099FB09A3D3E90023FDF76AFAFDF718FD87
:1031C8000C4B986108BD00BFE17A14AE47E120407E
:1031D80000000040E17A743F8DEDB5A0F7C6B03E1F
:1031E8003E3F0020789C0008279E000807990008A9
:1031F8000C3F0020E83E002010B52A201749FFF7B1
:10320800B9FC40B9164804F013F8164804F010F851
:10321800154804F00DF8154B588D40BA80B2FDF7EB
:10322800F1FD134B04464FF081411868FDF73EFE4F
:1032380001462046FDF73AFE0E4B044693F900007E
:1032480000EB8000FDF7DEFD01462046FDF726FD78
:103258000949FDF7DFFE094BD86110BD363F002054
:10326800789C00083B9E0008079900080C3F002046
:10327800483F0020453F002000007A44E83E0020F7
:1032880070B55020154C1549FFF78AFD592014498F
:10329800FFF786FD611C5120FFF782FD14F83459B1
:1032A8006D0094F8363005F0180505F26D1000EB46
:1032B80053105E09FDF782F900220A4BFDF712FB55
:1032C800FDF796FC084B06F26D161860074B35445F
:1032D8001D8094F83520064B1A7070BD403F0020C1
:1032E800423F002000408F40483F0020463F0020DA
:1032F800453F002010B5064C04202146FFF73AFC54
:10330800208800F4C070A0F180035842584110BDD5
:10331800103F002007B5114B01A91148019301F096
:103328002FFC01224FF400410D4801F084FC4FF4BA
:103338007A7004F079FE00224FF40041084801F049
:103348007AFC084B064801A9019301F019FC4FF4D7
:103358007A7003B05DF804EB04F066BE00800310D9
:10336800000801400080030408B500210420FFF78D
:10337800DFFC01210420FFF7DBFCBDE80840022147
:103388000420FFF7D5BC0000054A537929B943EA60
:10339800000105205171FFF7CBBC23EA0001F8E7D3
:1033A8000C3F0020A1B9154B00F01F0219780A4301
:1033B80059781A70C0F344120A435A709A78C0F3C5
:1033C800842010439870032201200C49FFF738BD70
:1033D8000129F8D1094B00F01F011A7822EA0102ED
:1033E8001A705A78C0F3441122EA01025A709A7886
:1033F800C0F3842022EA00029A70E4E7E23E00204B
:103408002DE9F04F634B85B08046694662480093CA
:1034180001F0B6FB0C21012001F044FC4FF480536D
:1034280002934FF40063ADF80C300123454602A81F
:103438008DF80E3001F056FB584B01A8584C0193FB
:1034480001F086F8FFF790FF4FF4FA7004F0ECFDF6
:10345800FFF760FFFFF714FF0FCD0FC495E80700D3
:10346800504B84E8070093F900B04F4BB8F822009E
:10347800D3F800A0A0EB0B00FDF7C4FC5146FDF704
:10348800C9FDFDF7FFFEA0F50050484C08380011B3
:103498006072B8F8200098F81C50A0EB0B00FDF7FC
:1034A800B1FC5146FDF7B6FDFDF7ECFE44F21803FA
:1034B800E28898F81D90A38005F00303DB0043F42D
:1034C800817309F0070922F4FE4298F81F6022F080
:1034D8001F0243EA0933134398F81E70E38036014C
:1034E800237A06F0300603F00F0346EA87161E43D8
:1034F8001923C0F307100822A072211D0420E372CB
:103508002672FFF79DFC082204200DEB0201FFF74D
:1035180099FB9DF80830227903F07F039A4222D163
:103528009DF8092063799A421DD19DF80A20A37954
:103538009A4218D19DF80B20E3799A4213D19DF84D
:103548000C20237A9A420ED19DF80D20637A9A4274
:1035580009D19DF80E20A37A9A4204D19DF80F2034
:10356800E37A9A4209D0124803F062FE114803F048
:103578005FFE114803F05CFEFEE7104803F058FEBA
:103588000F4803F055FE0C4805B0BDE8F04F03F0B6
:103598004FBE00BF00100328000C014028030001A3
:1035A8004C3F0020453F0020483F00200C3F0020B2
:1035B800789C0008579E0008079900088B9E000811
:1035C800989E000838B5044604F0FAFA0C480178C9
:1035D8000F2911D80B4B0C4AE31A9B105343DBB24B
:1035E8000F2B09D8094C0A4D22780131AB5401320E
:1035F80002F00F0222700170BDE8384004F0EEBA04
:10360800693F00207C3F0020CDCCCCCC6B3F002014
:103618006C3F002013B50D4C2378ABB910210C4A30
:1036280013700C4A13700C4A11700C4A02F8013BD3
:103638000133102BFAD100220949009209480A4A9D
:1036480003F0ACF80123237002B010BD683F0020DE
:103658006B3F00206A3F0020693F00206C3F00203C
:10366800B79E0008FC400020BC4000201FB504465F
:1036780051B10FC98DE80F0069460020ADF80C4024
:1036880000F0EAF904B010BD0120FBE700F066BACB
:103698000023F7B504460D46019320B94FF0FF36D5
:1036A800304603B0F0BD0C4B1B780BB9FFF7B2FFE7
:1036B8002A460A4801A903F079F906460028EFD1FD
:1036C800019F002FEAD03D460FCD0FC42B68384626
:1036D8002360FFF777FFE3E7683F0020FC40002006
:1036E8002DE9F04180460E46002841D000293FD000
:1036F8004B68002B3CD01F4B1B780BB9FFF78AFF98
:1037080004F05EFA1C490A781AB9BDE8F04104F0E1
:1037180065BA1A481A4C0378013AE75C013303F09A
:103728000F03037014230A705F4304F057FA98E8F4
:10373800030033780022082B28BF0823114C3D19B9
:1037480085E8030008342B723C44D1B28B4209D877
:1037580029460D4803F026F950B12846BDE8F04146
:10376800FFF730BF7168895C013204F8011FECE78C
:10377800BDE8F081683F0020693F00206A3F0020D3
:103788006C3F00207C3F0020FC40002070477047C1
:103798007047000010B5064C207838B900F090F852
:1037A800FFF738FF00F014FE0123237010BD00BF9F
:1037B8002C41002008B5064B1B780BB9FFF7EAFF30
:1037C8000021084600F09CF9BDE8084000F002BE60
:1037D8002C41002000230449044A0B7013804B70CD
:1037E80053808B7093807047D0410020D4410020D3
:1037F800044B9A6952075ABF9869C0F340000220E7
:10380800704700BF00640040F0B50646284D294FB8
:103818008BB03146284801F06CF808B90BB0F0BD00
:103828006A463146244801F019F800239DF80A2019
:103838000DF10A0107A8DCB2A24233D89DF808307E
:103848009DF80910042B0CBF019B009B95F800E024
:1038580006BF23F0604343F00043C3F30A030EF1AD
:10386800010E022939780EF0070E08BF43F0804395
:103878008E45CED0059300238DF81830ADF81A3058
:10388800142329780D4C8DF81C2003FB01440DEB03
:10389800030CBCE80F000FC4DCF8003085F800E02A
:1038A8002360B6E711F8014F013300F8014FC2E772
:1038B8002E4100202D4100200064004030410020AE
:1038C80070B55A4B88B004A904465948049301F0CE
:1038D80057F94FF48061564801F0ABF901A800F0A0
:1038E8003BFF544B544804A9049301F049F9534B46
:1038F800514804A9049301F043F901214FF00070E5
:1039080001F032FA40F207230622CDE901234FF4F1
:1039180080730393FCB12368EBB11A88002A08BFAF
:103928000622ADF804209A788DF80720DA78002A64
:1039380008BF07228DF808201A79002A08BF02223A
:103948008DF809205A798DF80B209A798DF80C207A
:10395800DB798DF80D303A4801A900F023FE0128E3
:1039680000D0FEE724B1636813B1237A002B5AD143
:103978000023CDE90433069340F2011304A8ADF8FF
:103988001C3000F079FE2F4B04A8049300F0E0FDF2
:10399800152304A88DF8103000F0DAFD132304A8CD
:1039A8008DF8103000F0D4FD162304A88DF81030DF
:1039B80000F0CEFD01222449214800F0E9FFFFF77D
:1039C80009FF0023214A1370214A13700122214B59
:1039D8001A7008B070BD06FB03F2616804A88B1862
:1039E8008A5C01358DF81A20DA7A8DF81B201A7B4B
:1039F8008DF81C205A88ADF810209A88ADF812204E
:103A0800DA88ADF814201A89ADF816209A7AADF83C
:103A180018205B7B8DF81D3000F02EFE227AEBB269
:103A28009A42D8D8AFE700250E26F7E7000403141A
:103A3800000C01400008034800080140001003186A
:103A48000064004014040001138401002E4100208A
:103A58002D410020DA41002070B50D4686B00029BE
:103A680043D08A68002A40D0097908293DD8204BDC
:103A78001B78022BDCB238D12B68002B20DA04200B
:103A88008DF80C0023F06040029000200190C3F3F1
:103A980080735B008DF80D3013468DF80E100DF114
:103AA8000E0219448B4213D1124801A900F05FFE9F
:103AB800042802D0022810D90024204606B070BD80
:103AC8000020C3F30A06CDE901608DF80C00DEE79B
:103AD80013F8010B02F8010FE4E7AA89064B23F853
:103AE80010200122054B1A54E6E70124E5E700BF40
:103AF800DA41002000640040D4410020D041002079
:103B080010B5044610B10124204610BD0329FAD887
:103B1800DFE801F017020F1700210E4800F0F4FE4D
:103B280001280146EFD10C4B00201970FFF730FE39
:103B3800EAE70221074800F0E7FE0128E3D1032164
:103B4800F1E70121034800F0DFFE0128DBD1022163
:103B5800E9E700BF00640040DA4100202DE9F041A8
:103B6800154B88B01B78022B22D1DFF85080144EF9
:103B7800144F98F8002033789A4219D014233478D7
:103B880003AD03FB04740FCC0FC5236801A92B6098
:103B9800337803A8013303F0070333709DF814301A
:103BA800ADF804300DF115030293FFF799FDE0E736
:103BB80008B0BDE8F08100BFDA4100202E410020A6
:103BC8002D4100203041002070B5134B1B78022B8B
:103BD80017D10024114D124E15F8013B5BB1214657
:103BE800104800F013FE01280CD10023308805F896
:103BF800013CFFF7CBFD0134E4B2032C06F10206C9
:103C0800EAD170BD2146074800F000FE0028F2D135
:103C180005F8010CEFE700BFDA410020D041002091
:103C2800D44100200064004008B5FFF7E1FD0228F8
:103C380002D10020FFF7ABFD08BD0000034B1B7845
:103C4800022B01D1FFF7F0BF704700BFDA41002017
:103C580008B5094B1B786BB10221084800F0A0FE9B
:103C680040B10648022100F0FFFEBDE808400020F0
:103C7800FFF7CABD08BD00BF740100200064004002
:103C880008B5094B1B786BB11021084800F088FE75
:103C980040B10648102100F0E7FEBDE808400120C9
:103CA800FFF7B2BD08BD00BF7401002000640040EA
:103CB80008B5084B1B7863B10121074800F070FE76
:103CC80038B10121044800F0CFFEBDE80840FFF7F5
:103CD8007BBF08BD740100200064004008B5164B86
:103CE8001B783BB34FF48061144800F059FE38B19B
:103CF80012484FF4806100F0B7FE0020FFF747FD3F
:103D08004FF480310D4800F04BFE20B14FF4803164
:103D18000A4800F0A9FE4FF40041084800F040FEB0
:103D280040B14FF40041054800F09EFEBDE8084050
:103D3800FFF784BF08BD00BF740100200064004085
:103D4800FFF786BFFFF79CBFFFF7B2BFFFF7C6BFFD
:103D58001FB50121022001F007F84723019340F223
:103D6800E733ADF80830002301A90E488DF80C3070
:103D780001F006F801210B4801F05CF8012209481E
:103D8800114601F04EF84FF4407000F0D7FB064B97
:103D98006846009300F0DCFB0121024801F038F886
:103DA80005B000BD000400401D05000110B501214B
:103DB8000C4801F042F8A0B10B4C0121094801F070
:103DC80048F8D4E9002312F57A7043F10001074B53
:103DD800C4E900011B6803B19847BDE81040FEF72D
:103DE80043BE10BD00040040E0410020DC4100203B
:103DF80070470023142282B0ADF8063008B902B02B
:103E080070470138ADF80620BDF806309BB2591E40
:103E1800ADF80610002BF7D1F0E70000014B186849
:103E2800FCF7FAB9E841002008B5FCF7F1F9014BB5
:103E3800186008BDE841002001890122006800F0EF
:103E4800FABE41890122006800F0F5BE018900220E
:103E5800006800F0F0BE10B50446FFF7F7FF2369CD
:103E6800012098472046FFF7ECFF23690120984777
:103E78002046FFF7E1FF23690120BDE810401847FD
:103E880041890022006800F0D6BE10B50446FFF74D
:103E9800D3FF2046FFF7D5FF236901209847204626
:103EA800FFF7D4FF0120236998472046BDE810405A
:103EB800FFF7E6BF10B50446FFF7C8FF01202369E6
:103EC80098472046BDE81040FFF7DABFF7B504462B
:103ED8000F46082580262046FFF7D2FF37422046A6
:103EE80040D0FFF7A9FF2369012098472046FFF734
:103EF800A8FF012023699847013D4FEA5606EAD1F9
:103F08002046FFF7BDFF2369012098472046FFF7A9
:103F180093FF2369012098472046FFF792FF2389E2
:103F28002068ADF8043040F2034301A9ADF806302B
:103F380000F026FE2189206800F073FE23890546DB
:103F4800ADF8043041F20343206801A9ADF806300A
:103F580000F016FE2046FFF793FFB5FA85F04009FA
:103F680003B0F0BDFFF772FFBDE72DE9F843002469
:103F7800054689461746A04649462846FFF7A6FF44
:103F8800012806460FD047450DD02846FFF763FFA6
:103F9800013401202B699847E4B22846FFF78AFFCD
:103FA800BC42A046E8D93046BDE8F8832DE9F04F79
:103FB80004460D46174687B0002800F00081002906
:103FC80000F0FF80002A00F0E480836903B198477D
:103FD8000023019395F80AB002951BF0040A1FD03C
:103FE800AE7AD5F800A016F00106B5F8069040F0B4
:103FF800D480B14500F0DA80AB7A590600F1CF8061
:1040080095F90A30002B80F2D780297B2046FFF7EC
:104018005DFF18B9AB7A1A0740F1C8800136E8E7A6
:10402800019B2046002B3FD0FFF72FFFAE7AB5F853
:10403800048016F0080908BF94F80CA0B2075FFACC
:1040480088F334D54FEAD81808F0060852462046B7
:1040580048F0F0010393FFF788FF0128039B02D083
:10406800B9F1000F1BD019462046FFF72FFF012892
:1040780002D0B9F1000F12D0F607B1D52046FFF7EC
:1040880004FF5246204648F0F101FFF76EFF012871
:10409800A6D0B9F1000FA3D14B4803F0C9F81BF023
:1040A800080F9DD100276AE0FFF704FFBEE706F07E
:1040B800010141EA430152462046C9B2FFF755FFC4
:1040C80001288DD0B9F1000F8AD1E8E72046FFF723
:1040D800B3FE01202369984723892068ADF814307E
:1040E80040F2034305A9ADF816304FF0000800F080
:1040F80047FD4FF0800B082320460393FFF7A1FEEE
:104108002189206800F08DFD4BEA0802D2B2002810
:1041180018BF90462046FFF7B3FE0120226990475A
:10412800039B4FEA5B0B013BE6D123892068ADF87E
:10413800143041F2034305A9ADF8163000F020FD14
:104148000AF8018BAB7A013ED806B6B20CD416B188
:104158002046FFF77BFE0120236998472046FFF79A
:1041680070FE2046FFF78CFE002EAFD1A5F8089010
:10417800019B103501339F4201937FF42BAF029BC3
:104188009B7A9B0602D42046FFF765FEE36903B1DC
:104198009847384607B0BDE8F08F4E46E4E720461A
:1041A800E97AFFF793FE00287FF42AAFEB88B6B2CE
:1041B800B3422E81DCD075E71AF8061026E70746C9
:1041C800E7E70F46E5E700BFC09E000813B50F4CB0
:1041D80001A92289638920681343ADF8043041F2AC
:1041E8000343ADF8063000F0CBFC0122618920685A
:1041F80000F021FD01222189206800F01CFD63697F
:1042080003B19847002002B010BD00BF780100201C
:1042180010B5012186B0142000F09AFD254B4FF40B
:1042280000512548029300F002FD234802A900F03E
:10423800A7FC224B224802A9029300F0A1FC4FF4EC
:104248008063ADF8083004231D4802A98DF80B30AF
:1042580000F096FC01214FF4804000F079FD002326
:104268004FF4E132CDE902234FF4402202A9154868
:104278000492ADF8143000F0EFFD4FF4407000F0F8
:104288005DF9114B01A80193104C00F061F901226E
:1042980040F225510B4800F034FE0121094800F096
:1042A80027FE226822B91146094801F0D3FF206091
:1042B80006B010BD002003140010014000020318CE
:1042C800000801400038014025050001EC410020AC
:1042D800EE9E000838B502F03DFC40F2255110482A
:1042E80000F036FEA0B10F4D0F4B2C881B8801340F
:1042F80004F07F04A3420A480ED000F01FFE2B886A
:104308000A4A2C80D0540A4B186808B102F070F899
:10431800BDE8384002F02CBC00F010FEF8E700BF02
:1043280000380140F2410020F0410020F441002013
:10433800EC410020704700000023F0B587B002A8C8
:10434800CDE90033FCF7F4FF10B9012007B0F0BD48
:10435800029C00212046FCF747FF002600B13446A6
:10436800039F00213846FCF73FFF08B1039606E09B
:10437800134E38463146FCF755FF0028F6D111494F
:104388000398FCF747FEFCF77DFF0E4906462046DA
:10439800FCF740FEFCF776FF40F2F133ADF8000081
:1043A80002930020042302A9ADF802608DF80C30B6
:1043B800CDF810D0ADF81400FFF758F9C6E700BFE4
:1043C8000000C842CDCCCC3D08B1FCF7CBBF70474C
:1043D800FFF7B0BF70477FB5FFF758F9002101A874
:1043E800FFF756F908B107B000BD01A8FFF7ECFFC9
:1043F800F4E7FFF7A1BFFFF739B90000002103E098
:104408000A4B5B584350043109480A4B42189A42F8
:10441800F6D3094A02E0002342F8043B074B9A42CC
:10442800F9D300F013F801F046FE704708B600080B
:104438000000002054020020580200202C4B0020CD
:10444800FEE77047FEE7FEE7FEE77047374B82B0AE
:104458001A6842F001021A605968354A0A405A60DF
:104468001A6822F0847222F480321A601A6822F4E0
:1044780080221A605A6822F4FE025A604FF41F0222
:104488009A600022009201921A6842F480321A60FF
:104498001A6802F400320192009A01320092019ADD
:1044A8001AB9009AB2F5A06FF2D11A6812F4003264
:1044B80018BF01220192019A012A30D11D4A1168C0
:1044C80041F010011160116821F0070111601168B5
:1044D80041F0020111605A685A605A685A605A6875
:1044E80042F480625A605A6822F47C125A605A6810
:1044F80042F4E8125A601A6842F080721A601A6828
:104508009201FCD55A6822F003025A605A6842F0B8
:1045180002025A605A6802F00C02082AFAD14FF0D7
:104528000062054B9A6002B0704700BF001002405D
:104538000000FFF80020024000ED00E0034B40F0CF
:10454800BF6040F40030D860704700BF00ED00E065
:1045580070B50125017801F01F039D40C3784C090F
:10456800B3B10E4B4678DA68D243C2F30222C2F1E5
:1045780004039E4083780F2020FA02F21340084A71
:1045880033431B01114481F8003342F8245070BDB5
:10459800034B203443F82450F9E700BF00ED00E056
:1045A80000E100E00268034622F0020202600268AD
:1045B80042F0010202604FF480325868C00701D40B
:1045C800013AFAD1586810F0010053D08A79012ACB
:1045D8001A680CBF42F0800222F080021A60CA7981
:1045E800012A1A680CBF42F0400222F040021A6009
:1045F8000A7A012A1A680CBF42F0200222F020022F
:104608001A604A7A012A1A680CBF42F0100222F096
:1046180010021A608A7A012A1A680CBF42F008024E
:1046280022F008021A60CA7A012A1A680CBF42F0FE
:10463800040222F004021A60CA788878120642EA54
:104648008072087942EA00424879098842EA0052B1
:1046580001390A43DA611A6822F001021A604FF43C
:1046680080325968C90701D5013AFAD15868C04360
:1046780000F00100704700000121364A10B5D2F859
:104688000042837A44F00104C2F80042D2F81C4286
:10469800994024EA0104C2F81C42047B002C37D15B
:1046A800D2F80C42DB0024EA0104C2F80C42C488A8
:1046B800428803F1804342EA044203F5C843C3F841
:1046C80040228488028842EA0442C3F84422C37A1A
:1046D800204A93BBD2F8043223EA01030489C2F8C2
:1046E80004321C4B6CBBD2F8144224EA0104C2F811
:1046F8001442427B012A02BFD3F81C220A43C3F8A2
:104708001C22D3F8002222F00102C3F8002210BDB7
:10471800012CDCD1D2F80C42DB000C43C2F80C426D
:104728000488428803F1804342EA044203F5C843FF
:10473800C3F840228488C288C5E7D2F804320B4304
:10474800CCE7012C02BFD3F814220A43C3F8142281
:10475800CFE700BF00640040012340F2032203803A
:10476800002382804380C38003814381704783682C
:10477800F0B50446580139D4A3681A0138D4A3689F
:10478800DB0040D5022004EB0013D3F8802105019B
:1047980002F00102C3F880210E7A4A7A56BB0F68EC
:1047A800D3F8806142EA47523243C3F880218A7ABB
:1047B8002C4402F00F028A72D3F8846126F00F06A7
:1047C800C3F88461D3F884613243C3F88421D1F8F3
:1047D8000B20C4F88821D1F80F20C4F88C21D3F815
:1047E800802142F00102C3F88021F0BD0020CAE711
:1047F8000120C8E7D1F804C0D3F8807142EACC029E
:1048080032433A43D1E70420EFE7000001290AD0F8
:10481800022913D0C9B982680D4B02EA03009343F9
:1048280007D10120704780680A4B094A1840904216
:1048380007D8B0FA80F04009400070478068064BFE
:10484800F3E7C31A5842584170470220704700BF27
:1048580003000004000300080000031000EB01132C
:1048680010B5D3F8B04104F004041472BCBBD3F8FB
:10487800B041640D1460D3F8B04104F002045472DE
:10488800D3F8B44104F00F049472D3F8B4311B0A7E
:10489800D37400EB0113D3F8B841D472D3F8B841FC
:1048A800240A1473D3F8B841240C5473D3F8B841CC
:1048B800240E9473D3F8BC41D473D3F8BC41240AB2
:1048C8001474D3F8BC41240C5474D3F8BC311B0EB7
:1048D800937449B9C36843F02003C36010BDD3F88B
:1048E800B041E4085460C6E7036943F0200303615C
:1048F800F4E719B9C06800F003007047012901D135
:104908000069F8E700207047B1B9036823F0030392
:1049180043F0010303604FF48033426802F003025E
:10492800012A01D0013BF8D1406800F003000128BA
:1049380014BF002001207047012911D1036823F01A
:10494800030303604FF480334268920701D0013BB0
:10495800FAD1436813F0030F0CBF01200020704701
:10496800022913D1036823F0030343F00203036011
:104978004FF48033426802F00302022A01D0013B5F
:10498800F8D1406800F003000228D1E70020704702
:10499800436912B10B434361704723EA0103FAE705
:1049A80002464069084015D0B1F5807F4BD012D837
:1049B800082908D8013907290BD8DFE801F0252E86
:1049C8000A340A0A0A38202937D0402937D0102952
:1049D80031D000207047B1F5004F43D00CD8B1F565
:1049E800806F34D0B1F5006F35D0B1F5007FF0D1CC
:1049F8009069C0F340007047B1F5803F21D0B1F510
:104A0800003FE6D1506813E0906800F0013020F0D4
:104A18008070003818BF01207047D06810F003007C
:104A280018BF01207047D068C0F3C0007047D06835
:104A3800C0F3001070471069F0E71069F4E71069D7
:104A4800F6E75068F0E7906900F001007047906958
:104A5800C0F380007047936913F0700F14BF0120F2
:104A6800002070475068F3E7B1F5007F36D00FD8C3
:104A7800202927D006D804291FD0082920D00129A9
:104A880018D07047402920D0B1F5807F26D07047D4
:104A9800B1F5004F20D006D8B1F5806F1ED0B1F522
:104AA800006F19D07047B1F5803F10D0B1F5003FC5
:104AB80010D070470A4B836070470823C360704763
:104AC8001023FBE70823036170471023FBE7082343
:104AD800436070471023FBE7002383610423F7E753
:104AE800010101000279837902F1804210B5016861
:104AF80002F5823233B3164B1C6824EA01041C60A9
:104B08005C6824EA01045C601468214311609968B8
:104B1800026821EA02019960D96821EA0201D96094
:104B28004179102906D1996811439960D9680A43D7
:104B3800DA6010BD01F1804303F5823319680A4336
:104B48001A60F6E7136823EA01031360F1E700BF70
:104B580000040140064B19685A69014214BF012339
:104B68000023024203F0010008BF0020704700BF85
:104B780000040140014B5861704700BF0004014028
:104B88002DE9F041CB780F88DA0648BF8A7803F020
:104B98000F0548BF15430A78D2B100214FF0010C28
:104BA8004FF00F0E02680CFA01F636EA07040BD133
:104BB8008C000EFA04F822EA080205FA04F4282BFD
:104BC80042EA040225D1466101310829EBD102608D
:104BD800FF2F1CD900214FF0010C4FF00F0E426837
:104BE80001F108040CFA04F434EA07060BD18E002C
:104BF8000EFA06F822EA080205FA06F6282B42EA17
:104C080006020AD1446101310829E9D14260BDE8B0
:104C1800F081482B08BF0661D6E7482B08BF04611E
:104C2800F1E78368194214BF012000207047016131
:104C38007047416170470AB101617047416170472F
:104C4800002830B5164C00F44015B4BFE36963681A
:104C5800B5F5401F82B212D1656823F0706325F064
:104C680070656560440D2401A2401A43002918BFED
:104C780013460B4A0028B4BFD361536030BDC40249
:104C88004DBF0324440D2401C0F303454CBFAC4081
:104C980002FA04F423EA040343F07063E2E700BF76
:104CA8000000014010B50F2401F0030301F0FC01DE
:104CB80001F1804101F580318A689B009C4022EA1D
:104CC80004028A608A6898401043886010BD00001A
:104CD8001A4A10B5536803F00C03082B2CD15368FB
:104CE8005168C3F38343CC0303F1020302D551682F
:104CF80089031FD512494B4303605168114CC1F316
:104D08000311615CCB4043605168C1F30221615CCF
:104D180023FA01F181605168C1F3C221615CCB4083
:104D2800C36052680849C2F381328A5CB3FBF2F36C
:104D3800036110BD0549DEE7044BDDE700100240C2
:104D480000093D006CB0000868B0000800127A0045
:104D5800044B9A6911B102439A61704722EA000232
:104D6800FAE700BF00100240044BDA6911B10243B0
:104D7800DA61704722EA0002FAE700BF0010024039
:104D8800214A0388904212D002F5006290420ED068
:104D9800B0F1804F0BD0A2F59832904207D002F5BF
:104DA8008062904203D002F58062904203D14A8823
:104DB80023F070031343154A904207D002F580622E
:104DC80090421EBFCA8823F44073134303808B8824
:104DD80083850B8803850C4B98420FD003F500633D
:104DE80098420BD003F54063984207D003F58063DF
:104DF800984203D003F58063984201D10B7A038669
:104E080001238382704700BF002C0140001000403E
:104E1800038819B143F001030380704723F00103AD
:104E2800FAE7838912B119438181704723EA0103A4
:104E380083817047C94301827047038A828911427E
:104E480014BF01200020194200F0010008BF002013
:104E58007047C9430182704730B50446038ACA883F
:104E680023F44053134387B0038283898A8823F449
:104E7800B05323F00C0313430A890D4613434A89A0
:104E880013438381838A8A8923F44073134383827B
:104E980001A8FFF71DFFDDE9033214498C4208BF62
:104EA80013461922A18953432A680D044CBF5200A6
:104EB80092006421B3FBF2F3B3FBF1F201FB12336E
:104EC800A08900044BBFDB001B01323332334BBFD8
:104ED800B3FBF1F3B3FBF1F303F0070303F00F03A4
:104EE80043EA0212228107B030BD00BF00380140FA
:104EF800838919B143F400538381704723F4005325
:104F0800FAE7012310B5C1F34214012C01F01F0187
:104F180003FA01F305D10C3042B102681343036070
:104F280010BD022C0CBF10301430F5E7026822EADD
:104F38000303F4E7C1F30801818070478088C0F358
:104F4800080070470388194214BF012000207047E9
:104F58000123C1F3421210B5012A01F01F0403FA1C
:104F680004F30FD1828992B2134001220088090A02
:104F78008A4080B21040002B18BF002814BF0120BF
:104F8800002010BD022A0CBF028A828AEBE70000CB
:104F980008B5024802F04CF9002008BDF69E00084A
:104FA80038B505460468AC4200D138BD082106482A
:104FB800A4F1140202F03CF92368AB4202D0034882
:104FC80002F036F92468EEE7FE9E0008859700088F
:104FD80008B502F047F9002008BDF8B50026CB68EF
:104FE80004460D460E6193B10B7A83B10F6808B978
:104FF8003C460126FBF70CF9024656B914F8043C66
:10500800297A23F080038B4203D0FBF705F90020AF
:10501800F8BD00266B682468A7420BD0E968013602
:10502800B14243F8044BF6D11046FBF7F5F8204699
:105038002E61EDE70024F7E710B50824024802F0D6
:10504800F7F8013CFAD110BD039F00082DE9F0479D
:105058000A2090B002F090FB0821002604302D4A67
:1050680003900DF120092C480691CDF8109002F01C
:10507800DFF8FFF7E1FF294802F0DAF80A2734469B
:10508800204603A98DF814700796FFF7A6FFCA46B5
:1050980004464FF000089DF81470079EB0450BDBDE
:1050A800002CEDD100F074FF01461D4802F0C0F855
:1050B800204610B0BDE8F0875AF8045BFBF7A8F863
:1050C80015F8043C23F08003BB4204D0FBF7A4F896
:1050D80008F10108E2E7FBF79FF80822EB6911469F
:1050E8000193AB690F480093A5F10C0302F0A0F8F7
:1050F80015F8033CDA074CBF0B480C4802F098F847
:1051080015F8033C9B074CBF09480A4802F090F881
:10511800DEE700BF5F960008059F0008369F00087D
:10512800A89F0008649F00087A9F0008879F0008CE
:10513800949F00089E9F00082DE9F04F0120B3B00E
:1051480002F01AFB082100270430414A07900DF1AC
:10515800300A40480A91CDF820A002F069F8FFF71C
:105168006BFF3D4802F064F84FF001083E463046B8
:1051780007A98DF824800B97FFF72FFFD346064623
:105188004FF000099DF824800B9FB94505DB002EE0
:10519800EDD1304633B0BDE8F08F5BF8045BFBF728
:1051A80037F815F8043C044623F08003434504D03F
:1051B800FBF732F809F10109E7E7A5F10C031946F5
:1051C800782214A8039301F0EFFD2046FBF724F89A
:1051D80095F82920039B009208222048114602F0E6
:1051E80027F895F8283003F00703042B07D8DFE8E1
:1051F80003F02903272D2B00194802F019F8EC6950
:1052080023461A781846232A03F10103F9D06423A8
:105218002A6A29691444611A241A5C43B4FBF2F31C
:10522800686ACDE903326C6B059101F081FDDDE917
:105238000332CDE9004005990A4801F0F9FFB9E7C2
:105248000948DAE70948D8E70948D6E70948D4E71A
:10525800BD9F0008C49F000808A0000845A00008DA
:1052680051A000087EA000085AA0000863A000080A
:105278006CA0000875A000082DE9F04F052093B038
:1052880002F07AFA082100250430324A05900DF11F
:10529800280931480891CDF8189001F0C9FFFFF7A7
:1052A800CBFE2E4801F0C4FF05272C46204605A951
:1052B8008DF81C700995FFF790FECA4604464FF01A
:1052C80000089DF81C70099D454505DC002CEDD1B2
:1052D800204613B0BDE8F08F5AF804BBFAF798FFE0
:1052E8001BF8043C23F08003BB4204D0FAF794FF78
:1052F80008F10108E8E7FAF78FFFDBF808200BF15F
:1053080008069642BBF816004FF00002BBF814C01E
:10531800ABF10C0314D0314609688E420ED1CDE9A9
:1053280001C20822009011460D4801F081FF304665
:10533800FFF736FE0B4801F07BFFD9E70132EBE7B8
:10534800CDE901C2082200901146074801F070FF1C
:10535800CEE700BFA4A00008ACA00008CDA00008BC
:10536800E9A0000807990008FFA000082DE9F04F00
:10537800032093B002F000FA4FF00808002604302A
:105388004146284A05900DF1280A2748CDF818A06B
:10539800CDF8208001F04CFFFFF74EFE234801F0C6
:1053A80047FF03273546284605A98DF81C7009963E
:1053B800FFF713FED34605464FF000099DF81C7011
:1053C800099EB14505DB002DEDD1284613B0BDE897
:1053D800F08F5BF8044BFAF71BFF14F8043C23F03A
:1053E8008003BB4204D0FAF717FF09F10109E8E787
:1053F800FAF712FF606994F813C0A4F10C0308349B
:105408002146002209688C4209D1CDE902C208224E
:10541800CDE900801146064801F00AFFE5E70132B0
:10542800F0E700BF1495000815A1000839A100088D
:1054380058A100082DE9F04F022091B002F09CF924
:10544800082100250430304A03900DF120092F4827
:105458000691CDF8109001F0EBFEFFF7EDFD2C481A
:1054680001F0E6FE02272C46204603A98DF81470A9
:105478000795FFF7B2FDCA4604464FF000089DF8AD
:105488001470079D454505DC002CEDD1204611B070
:10549800BDE8F08F5AF804BBFAF7BAFE1BF8043CD3
:1054A80023F08003BB4204D0FAF7B6FE08F10108E6
:1054B800E8E7FAF7B1FEDBF808200BF10806964298
:1054C800BBF810004FF00002ABF10C0313D03146CB
:1054D80009688E420DD1CDE9000208220D48114617
:1054E80001F0A6FE3046FFF75BFD0B4801F0A0FE79
:1054F800DCE70132ECE7CDE9000208220748114653
:1055080001F096FED2E700BF6FA1000879A100085C
:1055180093A10008A8A1000807990008B8A10008ED
:10552800022810B52DD14C6821492046FBF7CAFE48
:1055380018B9BDE81040FFF7FFBD20461D49FBF72D
:10554800C1FE18B9BDE81040FFF780BD20461A49D2
:10555800FBF7B8FE18B9BDE81040FFF76BBF20464F
:105568001649FBF7AFFE18B9BDE81040FFF7FEBEBD
:1055780020461349FBF7A6FE18B9BDE81040FFF70F
:105588007BBE104801F054FE0F4801F051FE0F4851
:1055980001F04EFE0E4801F04BFE0E4801F048FEA9
:1055A8000D4801F045FE0D4801F042FE002010BDF7
:1055B800BD9F00085F960008C8A100081495000860
:1055C800A4A00008CCA10008E3A10008EFA10008EE
:1055D8000AA2000823A200083EA2000857A2000859
:1055E80038B50A4801F024FE094B0A4D1C682B689F
:1055F800A34204D8084801F01BFE002038BD6268A9
:10560800064854F80C1B01F013FEF0E774A20008DA
:105618008443002080430020079900088FA20008D7
:1056280008B5FFF789FD002008BD00001FB500245C
:1056380003AA02A901A8CDE90144039401F0DEFE02
:1056480001990A4801F0F4FD0299094801F0F0FDBA
:105658000399084801F0ECFDDDE901130648C91A71
:1056680001F0E6FD204604B010BD00BF9BA2000873
:10567800AAA20008B9A20008C8A200082DE9F047AC
:105688000D46814688B0002D00F0A38099F80030BF
:10569800C846202B29D0092B27D0002619F8063018
:1056A800202B28D0092B26D0B54222D14A4B1F687F
:1056B8004A4BD3F800A057451FD23C6832464946AA
:1056C800204603F076FA38BBA45D2CBBBE68A6B1B1
:1056D80020222146684601F039FB6F4669464A4652
:1056E80023462046A64614461BE009F10109013D60
:1056F800C9E70136D2E7002ED8D14A46137809F116
:10570800010913F0DF03F8D141463548137001F061
:105718008FFD4FF0FF3028E00C37CCE704F801EBA1
:10572800013394F800C02246BCF1200F02D0BCF12E
:10573800090F06D19D42F1D8082804D00028DCD0F2
:1057480011E0082814D1274801F072FD002457F809
:10575800041B2548013401F06BFD082CF7D12348C0
:1057680001F066FD20466946B04708B0BDE8F087FD
:105778009D42E3D9BCF1220F00F101001BD1621C4C
:1057880001330A601478222C0BD09D42EBD95C2C93
:1057980004D15478222C04BF013201330132013381
:1057A800F0E79D42DFD901339D4282F800E0DAD963
:1057B8000132043197E70C601478202C06D0092CAC
:1057C80004D09D42CFD001320133F5E79D42F0D895
:1057D800C9E72846C9E700BF84430020804300206A
:1057E800F9A20008D7A20008F5A200080799000846
:1057F8002DE9F8430178074621B9BDE8F843084682
:10580800FFF7EEBE00252C461E4BDFF87C90D3F840
:105818000080D9F80030434507D88DB32246294681
:105828003846BDE8F84301F01EBB3846FBF754FD87
:10583800D8F8006002463146384603F0BAF998B9FC
:1058480024B93046FBF748FD354604462B4606F199
:10585800FF3C18781A4650B9521B944231460B48FF
:10586800A8BF144601F0E4FC08F10C08D1E71CF8C5
:10587800011F0029F0D0884203F10103E9D0EBE7CA
:10588800BDE8F883844300208043002097A20008E5
:1058980008B50E4B1B6893F8213013F0020303D1AF
:1058A8000B4A13700A4808BD0A4B196849B14FF4EE
:1058B8008072074803F08FF90749054803F06AF931
:1058C800F0E70649024803F0A1F9F5E77C43002018
:1058D80074420020784300203B97000811A3000879
:1058E80070B5A54C226892F8213043F0010382F884
:1058F8002130FFF7CDFF01F09BFCFDF7EFF81B28E7
:105908000546236803D1012283F82020F5E793F8A0
:105918002020012A2AD15B2801D10222F4E70022A3
:1059280083F820200D2D52D80D2D54D801A252F8FD
:1059380025F000BF03590008DF590008DF590008A7
:10594800DF590008DF590008DF590008DF5900084F
:10595800DF590008515A00084D5A0008D15A00086A
:10596800DF590008DF590008D15A0008022AD9D1A6
:105978000022432883F8202018D007D8A0F141023C
:10598800D2B2012AB9D90D28CED924E044281ED193
:10599800B3F87630002BB0D0784801F049FC226883
:1059A800B2F87630013BA2F87630A6E7B3F8762055
:1059B800B3F874109142A0D91A4492F82210704892
:1059C80001F036FC2268B2F876300133EBE77F2D20
:1059D8003AD0FF2D91D0B3F874604F2E40F28F80EB
:1059E8000021A3F87410194481F8225093F821304B
:1059F800DB0740F1AA802946614801F019FCA4E0C0
:105A08005E4801F015FC01362568B5F87630B342DA
:105A1800F6DC5C4801F00CFC05F12200FFF7E8FE1B
:105A2800FFF736FF05F122020146574801F000FC56
:105A3800256805F12200FBF74FFCA5F87400A5F8CE
:105A480076005AE70026DFE7B3F8761000293FF41E
:105A580054AFB3F874504A1E013DADB292B29542AC
:105A6800A3F87450A3F8762023D902F1220022313A
:105A7800AA1A1944184401F0DDF9002123684348A3
:105A8800B3F874201A4482F82210B3F87610223141
:105A9800194401F0CDFB2368B3F876502368B3F8B6
:105AA8007430AB42FFF629AF344801F0C1FB013531
:105AB800F4E7374801F0BCFB2368B3F874201344BB
:105AC800002283F8222018E793F82130D90702D55D
