:020000040800F2
:10000000005000206D3C0008B33C0008D1020008FD
:10001000B53C0008B73C0008B93C000800000000EF
:10002000000000000000000000000000B13C0008DB
:10003000BB3C0008000000004F020008B13C000873
:10004000B13C0008B13C0008B13C0008B13C0008DC
:10005000B13C0008B13C0008B13C0008B13C0008CC
:10006000B13C0008B13C0008B13C0008B13C0008BC
:10007000B13C0008B13C0008B13C0008B13C0008AC
:10008000B13C0008B13C0008B13C000881360008D2
:10009000793600087D36000885360008B13C000836
:1000A000B13C0008B13C0008B13C0008B13C00087C
:1000B000B13C0008E5360008B13C0008B13C00083E
:1000C000B13C0008B13C0008B13C0008B13C00085C
:1000D000B13C00080D3C0008B13C0008B13C0008F0
:1000E000552D0008B13C0008B13C0008000000009C
:1000F0000000000000000000000000000000000000
:0C01000000000000000000005FF808F1A3
:10010C005B5500085F550008AD28000863550008D2
:08011C00355100086755000889
:10012400EDC60008D5C60008911300081AC70008D8
:1001340008C70008932700083CC700082BC700081D
:100144008D27000858C700084CC7000899270008E5
:1001540078C700086AC700088127000899C7000803
:100164008CC7000875270008B6C70008ACC700088C
:1001740069270008CFC70008C6C700085D27000824
:10018400E8C70008DEC700085127000801C80008B6
:10019400F8C700084527000831C8000824C800082B
:1001A4008D4A00084BC8000836C80008B945000845
:1001B4006EC8000856C80008E547000890C8000843
:1001C4007BC80008D9480008B4C800089BC80008C8
:1001D400A1490008C9C80008BDC80008A546000810
:1001E400F8C80008D5C800083D4500081AC9000829
:1001F40000C90008FD44000845C9000820C90008DA
:10020400994B000866C900084AC900088D4B0008CC
:0C0214007FC9000869C900084D4B0008B4
:10022000EFF3108072B6704780F310887047374A3A
:100230001368012B04D04FF001031360344A10609F
:10024000344A116034484FF0805101607047EFF339
:10025000108272B62D48016891B14FF00001016023
:100260002B48016829B1EFF3098121E9F00F0068FB
:100270000160284909680968B1E8F00F81F309882D
:1002800082F310884EF0040E70472249086020491E
:100290004FF0000008601D494FF0010008601F4842
:1002A0001F49D0F8002041EA020101601A484FF0CE
:1002B000805101601B480068006800BF80F3088817
:1002C00061B662B6BFF34F8FBFF36F8F704700BF49
:1002D000EFF308801EF0040F01D0EFF3098020E94E
:1002E000F00F40F804ED1EF0040F02D080F30988EF
:1002F00001E080F3088800B504F07EFF5DF804EBB0
:100300004EF0040E7047EFF3058070474443002021
:100310004C4300204843002004ED00E020ED00E0C5
:100320000000FFFF08ED00E081F0004102E000BFA7
:1003300083F0004330B54FEA41044FEA430594EAA5
:10034000050F08BF90EA020F1FBF54EA000C55EAE0
:10035000020C7FEA645C7FEA655C00F0E2804FEAB1
:100360005454D4EB5555B8BF6D420CDD2C4480EA93
:10037000020281EA030382EA000083EA010180EAC3
:10038000020281EA0303362D88BF30BD11F0004F11
:100390004FEA01314FF4801C4CEA113102D0404247
:1003A00061EB410113F0004F4FEA03334CEA133382
:1003B00002D0524263EB430394EA050F00F0A7809A
:1003C000A4F10104D5F1200E0DDB02FA0EFC22FA95
:1003D00005F2801841F1000103FA0EF2801843FA89
:1003E00005F359410EE0A5F120050EF1200E012A7A
:1003F00003FA0EFC28BF4CF0020C43FA05F3C018B8
:1004000051EBE37101F0004507D54FF0000EDCF130
:10041000000C7EEB00006EEB0101B1F5801F1BD3D9
:10042000B1F5001F0CD349085FEA30004FEA3C0CDD
:1004300004F101044FEA445212F5800F80F09A80D3
:10044000BCF1004F08BF5FEA500C50F1000041EBD7
:10045000045141EA050130BD5FEA4C0C404141EBDB
:100460000101013C28BFB1F5801FE9D291F0000FD6
:1004700004BF01460020B1FA81F308BF2033A3F185
:100480000B03B3F120020CDA0C3208DD02F1140C7C
:10049000C2F10C0201FA0CF021FA02F10CE002F1B7
:1004A0001402D8BFC2F1200C01FA02F120FA0CFCB0
:1004B000DCBF41EA0C019040E41AA2BF01EB0451F9
:1004C000294330BD6FEA04041F3C1CDA0C340EDCF7
:1004D00004F11404C4F1200220FA04F001FA02F33A
:1004E00040EA030021FA04F345EA030130BDC4F1F8
:1004F0000C04C4F1200220FA02F001FA04F340EAED
:100500000300294630BD21FA04F0294630BD94F09D
:10051000000F83F4801306BF81F480110134013D84
:100520004EE77FEA645C18BF7FEA655C29D094EAF5
:10053000050F08BF90EA020F05D054EA000C04BF73
:100540001946104630BD91EA030F1EBF002100205E
:1005500030BD5FEA545C05D14000494128BF41F0FD
:10056000004130BD14F580043CBF01F5801130BD61
:1005700001F0004545F0FE4141F470014FF00000EC
:1005800030BD7FEA645C1ABF194610467FEA655C9D
:100590001CBF0B46024650EA013406BF52EA03353F
:1005A00091EA030F41F4002130BD00BF90F0000F2D
:1005B00004BF0021704730B54FF4806404F1320469
:1005C0004FF000054FF0000150E700BF90F0000F22
:1005D00004BF0021704730B54FF4806404F1320449
:1005E00010F0004548BF40424FF000013EE700BF19
:1005F00042004FEAE2014FEA31014FEA02701FBFA9
:1006000012F07F4393F07F4F81F06051704732F0DA
:100610007F4208BF704793F07F4F04BF41F4002131
:10062000704730B54FF4607401F0004521F000418F
:100630001CE700BF50EA010208BF704730B54FF019
:1006400000050AE050EA010208BF704730B511F01A
:10065000004502D5404261EB41014FF4806404F152
:1006600032045FEA915C3FF4D8AE4FF003025FEAD8
:10067000DC0C18BF03325FEADC0C18BF033202EB5C
:10068000DC02C2F1200300FA03FC20FA02F001FAB6
:1006900003FE40EA0E0021FA02F11444BDE600BF59
:1006A00070B54FF0FF0C4CF4E06C1CEA11541DBF08
:1006B0001CEA135594EA0C0F95EA0C0F00F0DEF8D3
:1006C0002C4481EA030621EA4C5123EA4C5350EAB8
:1006D000013518BF52EA033541F4801143F4801309
:1006E00038D0A0FB02CE4FF00005E1FB02E506F09A
:1006F0000042E0FB03E54FF00006E1FB03569CF0EF
:10070000000F18BF4EF0010EA4F1FF04B6F5007FF4
:1007100064F5407404D25FEA4E0E6D4146EB060666
:1007200042EAC62141EA55514FEAC52040EA5E50EF
:100730004FEACE2EB4F1FD0C88BFBCF5E06F1ED899
:10074000BEF1004F08BF5FEA500E50F1000041EBD0
:10075000045170BD06F0004646EA010140EA02007D
:1007600081EA0301B4EB5C04C2BFD4EB0C0541EA9F
:10077000045170BD41F480114FF0000E013C00F3B4
:10078000AB8014F1360FDEBF002001F0004170BDD8
:10079000C4F10004203C35DA0C341BDC04F11404F1
:1007A000C4F1200500FA05F320FA04F001FA05F27D
:1007B00040EA020001F0004221F0004110EBD3704A
:1007C00021FA04F642EB06015EEA430E08BF20EA76
:1007D000D37070BDC4F10C04C4F1200500FA04F319
:1007E00020FA05F001FA04F240EA020001F00041AB
:1007F00010EBD37041F100015EEA430E08BF20EA1E
:10080000D37070BDC4F1200500FA05F24EEA020E65
:1008100020FA04F301FA05F243EA020321FA04F094
:1008200001F0004121FA04F220EA020000EBD3704B
:100830005EEA430E08BF20EAD37070BD94F0000F4B
:100840000FD101F00046400041EB010111F4801F7F
:1008500008BF013CF7D041EA060195F0000F18BF30
:10086000704703F00046520043EB030313F4801F6C
:1008700008BF013DF7D043EA0603704794EA0C0F26
:100880000CEA135518BF95EA0C0F0CD050EA41063C
:1008900018BF52EA4306D1D181EA030101F00041B9
:1008A0004FF0000070BD50EA410606BF10461946E1
:1008B00052EA430619D094EA0C0F02D150EA0136ED
:1008C00013D195EA0C0F05D152EA03361CBF10462E
:1008D00019460AD181EA030101F0004141F0FE41CD
:1008E00041F470014FF0000070BD41F0FE4141F451
:1008F000780170BD70B54FF0FF0C4CF4E06C1CEA51
:1009000011541DBF1CEA135594EA0C0F95EA0C0F05
:1009100000F0A7F8A4EB050481EA030E52EA0335C0
:100920004FEA013100F088804FEA03334FF08055E1
:1009300045EA131343EA12634FEA022245EA11150E
:1009400045EA10654FEA00260EF000419D4208BFBF
:10095000964244F1FD0404F5407402D25B084FEA6C
:100960003202B61A65EB03055B084FEA32024FF418
:1009700080104FF4002CB6EB020E75EB030E22BF75
:10098000B61A754640EA0C005B084FEA3202B6EB35
:10099000020E75EB030E22BFB61A754640EA5C00E4
:1009A0005B084FEA3202B6EB020E75EB030E22BF74
:1009B000B61A754640EA9C005B084FEA3202B6EB75
:1009C000020E75EB030E22BFB61A754640EADC0034
:1009D00055EA060E18D04FEA051545EA16754FEA96
:1009E00006164FEAC30343EA52734FEAC2025FEAB4
:1009F0001C1CC0D111F4801F0BD141EA00014FF043
:100A000000004FF0004CB6E711F4801F04BF014313
:100A10000020B4F1FD0C88BFBCF5E06F3FF6AFAE2F
:100A2000B5EB030C04BFB6EB020C5FEA500C50F1BF
:100A3000000041EB045170BD0EF0004E4EEA113142
:100A400014EB5C04C2BFD4EB0C0541EA045170BD49
:100A500041F480114FF0000E013C90E645EA060E8D
:100A60008DE60CEA135594EA0C0F08BF95EA0C0FBB
:100A70003FF43BAF94EA0C0F0AD150EA01347FF403
:100A800034AF95EA0C0F7FF425AF104619462CE7DA
:100A900095EA0C0F06D152EA03353FF4FDAE10463D
:100AA000194622E750EA410618BF52EA43067FF48E
:100AB000C5AE50EA41047FF40DAF52EA43057FF41E
:100AC000EBAE12E74FF0FF3C06E000BF4FF0010C29
:100AD00002E000BF4FF0010C4DF804CD4FEA410C8D
:100AE0007FEA6C5C4FEA430C18BF7FEA6C5C1BD05A
:100AF00001B050EA410C0CBF52EA430C91EA030FDB
:100B000002BF90EA020F0020704710F1000F91EA37
:100B1000030F58BF994208BF90422CBFD8176FEA05
:100B2000E37040F0010070474FEA410C7FEA6C5CD3
:100B300002D150EA013C07D14FEA430C7FEA6C5CDA
:100B4000D6D152EA033CD3D05DF8040B704700BF06
:100B50008446104662468C461946634600E000BF54
:100B600001B5FFF7B7FF002848BF10F1000F01BD26
:100B70004DF808EDFFF7F4FF0CBF012000205DF8F1
:100B800008FB00BF4DF808EDFFF7EAFF34BF012076
:100B900000205DF808FB00BF4DF808EDFFF7E0FF0F
:100BA00094BF012000205DF808FB00BF4DF808ED60
:100BB000FFF7CEFF94BF012000205DF808FB00BFC7
:100BC0004DF808EDFFF7C4FF34BF012000205DF8A9
:100BD00008FB00BF4FEA410C7FEA6C5C02D150EA8F
:100BE000013C0AD14FEA430C7FEA6C5C02D152EA25
:100BF000033C02D14FF0000070474FF001007047F6
:100C00004FEA4102B2F1E04324BFB3F5001CDCF12E
:100C1000FE5C0DD901F0004C4FEAC0024CEA507066
:100C2000B2F1004F40EB830008BF20F00100704795
:100C300011F0804F21D113F13872BCBF01F0004098
:100C4000704741F480114FEA5252C2F11802C2F1CA
:100C5000200C10FA0CF320FA02F018BF40F001004B
:100C60004FEAC1234FEAD32303FA0CFC40EA0C00FD
:100C700023FA02F34FEA4303CCE77FEA625307D13A
:100C800050EA01331EBF4FF0FE4040F44000704771
:100C900001F0004040F0FE4040F40000704700BF0B
:100CA00080F0004002E000BF81F0004142001FBF21
:100CB0005FEA410392EA030F7FEA226C7FEA236C2A
:100CC0006AD04FEA1262D2EB1363C1BFD21841401F
:100CD00048404140B8BF5B42192B88BF704710F0B5
:100CE000004F40F4000020F07F4018BF404211F058
:100CF000004F41F4000121F07F4118BF494292EAC0
:100D0000030F3FD0A2F1010241FA03FC10EB0C00EB
:100D1000C3F1200301FA03F100F0004302D5494278
:100D200060EB4000B0F5000F13D3B0F1807F06D325
:100D300040084FEA310102F10102FE2A51D2B1F11D
:100D4000004F40EBC25008BF20F0010040EA030012
:100D50007047490040EB0000013A28BFB0F5000F92
:100D6000EDD2B0FA80FCACF1080CB2EB0C0200FA48
:100D70000CF0AABF00EBC25052421843BCBFD04097
:100D80001843704792F0000F81F4000106BF80F411
:100D900000000132013BB5E74FEA41037FEA226CD4
:100DA00018BF7FEA236C21D092EA030F04D092F09F
:100DB000000F08BF0846704790EA010F1CBF0020D3
:100DC000704712F07F4F04D1400028BF40F0004030
:100DD000704712F100723CBF00F50000704700F050
:100DE000004343F0FE4040F4000070477FEA226277
:100DF00016BF08467FEA23630146420206BF5FEA48
:100E0000412390EA010F40F4800070474FF0000347
:100E100004E000BF10F0004348BF40425FEA000C0E
:100E200008BF704743F0964301464FF000001CE0B6
:100E300050EA010208BF70474FF000030AE000BF0C
:100E400050EA010208BF704711F0004302D540424A
:100E500061EB41015FEA010C02BF844601460020BC
:100E600043F0B64308BFA3F18053A3F50003BCFAD7
:100E70008CF2083AA3EBC25310DB01FA02FC634484
:100E800000FA02FCC2F12002BCF1004F20FA02F28B
:100E900043EB020008BF20F00100704702F120027E
:100EA00001FA02FCC2F1200250EA4C0021FA02F2DF
:100EB00043EB020008BF20EADC7070474FF0FF0CE4
:100EC0001CEAD0521EBF1CEAD15392EA0C0F93EADF
:100ED0000C0F6FD01A4480EA010C400218BF5FEA81
:100EE00041211ED04FF0006343EA501043EA5111F4
:100EF000A0FB01310CF00040B1F5000F3EBF4900EE
:100F000041EAD3715B0040EA010062F17F02FD2AF1
:100F10001DD8B3F1004F40EBC25008BF20F00100D4
:100F2000704790F0000F0CF0004C08BF49024CEAEB
:100F3000502040EA51207F3AC2BFD2F1FF0340EA7D
:100F4000C250704740F400004FF00003013A5DDCEE
:100F500012F1190FDCBF00F000407047C2F100022F
:100F6000410021FA02F1C2F1200200FA02FC5FEA1C
:100F7000310040F1000053EA4C0308BF20EADC7066
:100F8000704792F0000F00F0004C02BF400010F4D8
:100F9000000F013AF9D040EA0C0093F0000F01F085
:100FA000004C02BF490011F4000F013BF9D041EAA7
:100FB0000C018FE70CEAD15392EA0C0F18BF93EAA9
:100FC0000C0F0AD030F0004C18BF31F0004CD8D1D3
:100FD00080EA010000F00040704790F0000F17BF5A
:100FE00090F0004F084691F0000F91F0004F14D0A0
:100FF00092EA0C0F01D142020FD193EA0C0F03D1F8
:101000004B0218BF084608D180EA010000F00040FA
:1010100040F0FE4040F40000704740F0FE4040F4D5
:10102000400070474FF0FF0C1CEAD0521EBF1CEA74
:10103000D15392EA0C0F93EA0C0F69D0A2EB030292
:1010400080EA010C49024FEA402037D04FF080532C
:1010500043EA111143EA10130CF000408B4238BFF1
:101060005B0042F17D024FF4000C8B4224BF5B1AFF
:1010700040EA0C00B3EB510F24BFA3EB510340EA4D
:101080005C00B3EB910F24BFA3EB910340EA9C00FB
:10109000B3EBD10F24BFA3EBD10340EADC001B016B
:1010A00018BF5FEA1C1CE0D1FD2A3FF650AF8B420F
:1010B00040EBC25008BF20F0010070470CF0004C1C
:1010C0004CEA50207F32C2BFD2F1FF0340EAC25047
:1010D000704740F400004FF00003013A37E792F008
:1010E000000F00F0004C02BF400010F4000F013A66
:1010F000F9D040EA0C0093F0000F01F0004C02BF61
:10110000490011F4000F013BF9D041EA0C0195E7C9
:101110000CEAD15392EA0C0F08D142027FF47DAF62
:1011200093EA0C0F7FF470AF084676E793EA0C0F52
:1011300004D14B023FF44CAF08466EE730F0004C50
:1011400018BF31F0004CCAD130F000427FF45CAFE0
:1011500031F000437FF43CAF5FE700BF4FF0FF3C4E
:1011600006E000BF4FF0010C02E000BF4FF0010CA1
:101170004DF804CD4FEA40024FEA41037FEA226C6A
:1011800018BF7FEA236C11D001B052EA530C18BF8C
:1011900090EA010F58BFB2EB030088BFC81738BFF1
:1011A0006FEAE17018BF40F0010070477FEA226CDF
:1011B00002D15FEA402C05D17FEA236CE4D15FEADB
:1011C000412CE1D05DF8040B704700BF844608460F
:1011D0006146FFE70FB5FFF7C9FF002848BF10F1D0
:1011E000000F0FBD4DF808EDFFF7F4FF0CBF012015
:1011F00000205DF808FB00BF4DF808EDFFF7EAFF9F
:1012000034BF012000205DF808FB00BF4DF808ED59
:10121000FFF7E0FF94BF012000205DF808FB00BF4E
:101220004DF808EDFFF7D2FF94BF012000205DF8D4
:1012300008FB00BF4DF808EDFFF7C8FF34BF0120E1
:1012400000205DF808FB00BF4FEA4002B2F1FE4FFC
:101250000FD34FF09E03B3EB12620DD94FEA002378
:1012600043F0004310F0004F23FA02F018BF404251
:1012700070474FF00000704712F1610F01D1420238
:1012800005D110F0004008BF6FF0004070474FF0EC
:101290000000704742000ED2B2F1FE4F0BD34FF068
:1012A0009E03B3EB126209D44FEA002343F00043DC
:1012B00023FA02F070474FF00000704712F1610FFF
:1012C00001D1420202D14FF0FF3070474FF00000D1
:1012D000704700BF10F8012B11F8013B012A28BF0D
:1012E0009A42F7D0D01A7047034613F8012B002A10
:1012F000FBD1181A013870474FEA410212F500126B
:1013000015D211D56FF47873B3EB625212D94FEA4C
:10131000C12343F0004343EA505311F0004F23FA36
:1013200002F018BF404270474FF00000704750EA8B
:10133000013005D111F0004008BF6FF00040704748
:101340004FF00000704700BF0548064B1B1AD90F2D
:1013500001EBA301491002D0034B03B118477047BA
:10136000CC030020CC0300200000000008B5054B92
:101370001BB105490548AFF30080BDE80840FFF701
:10138000E3BF00BF00000000D003002078CF0008BA
:10139000012808B50ADD486806F0AAFC80B23228A8
:1013A00038BF3220024B1880002008BDC820F9E762
:1013B0000000002010B501218AB0042002F07EFF59
:1013C0000121082002F07AFF01210024084602F0E2
:1013D00075FF01211D4802F0E9FE1D4AD36823F480
:1013E000E0631B041B0C43F0BF6343F40033D36082
:1013F000184B0193184B0293184B0393184B04930B
:10140000184B0693184B0593184BCDE90743184B1F
:10141000099302F077FB2146164804F0FDFA164BBB
:10142000186020B9154804F0DDFF0AB010BD01A80E
:1014300001F01AFF00F084FE01F05EF800F072F98E
:1014400000F07EFD00F010FBEFE700BF000230006F
:1014500000ED00E09D250008E52500085525000861
:101460002D260008752600087726000801050101D1
:101470001C0C6810D0AB0008E8030020DAAB0008B1
:1014800038B5134D04462B8883421CD2B5F8C830BA
:1014900083421AD9034664220021284601F0ECF861
:1014A0000A2183B25A1E35F8122035F81330A41AD7
:1014B0004C439B1A94FBF3F4013800EB800004EBDF
:1014C000400080B238BD0020FCE74FF47A70F9E7A5
:1014D000020000208A4D2DE987488A49E868FFF715
:1014E000EDFCFFF7D7FE80B2FFF7CAFFFFF792FCD3
:1014F0008449FFF797FD844C4FF00008616AE06073
:10150000A162FFF7DBFC7F4FE062DFF80092464606
:1015100099F80420D5F80CB005EBC203D3F804A069
:101520000023C4F81CA0C4F820B0D9B28A4200F24B
:10153000A6801046FFF76EFC01463046FFF772FDAD
:10154000594620615046FFF7AFFBA96860616868A3
:10155000FFF7B4FCAB6CA061002B49D06C49286844
:10156000FFF7ACFCFFF770FE6A4A00B2B2F9003038
:101570009842CCBFC31A1B1A092B39DDF9281080F9
:1015800000F38A8083B2A3F16402952A40F2868038
:10159000632B40F2858003F1C80292B2BD2A40F26B
:1015A000818003F596739BB2632B8CBF06230523C2
:1015B000FA3858430A2390FBF3F040F2EE2300F58B
:1015C0007A7080B2984238BF184640F21A43984267
:1015D00028BF1846FFF71EFC616AFFF76FFC39460B
:1015E000FFF720FD0146A062E068FFF767FCE062BC
:1015F00099F80030042B18D141F2883005F0EEFD47
:101600003946E868FFF75AFCFFF744FE80B2FFF75F
:1016100037FFFEF7DBFF00223F4BFFF76BF9FFF7C9
:10162000EFFAA16AFFF74AFCE06299F80090A66A17
:10163000B9F1030F39D03946A868FFF73FFCFFF72F
:1016400003FEFFF7E7FB3946FFF7ECFC3349FFF7F2
:10165000E9FCFFF7F9FD0028B8BF4042FFF7DAFBCD
:10166000B9F1010F014639D1E16AFFF71FFB31469D
:101670008146FFF7CBFDB8B1C4F82C9015E001927C
:10168000274A304652F833100093FFF70FFB009BB8
:101690000646019A013348E7012389E7022387E7D9
:1016A000032385E7042383E7E6623146E06AFFF718
:1016B000B9FC4FF07E510646FFF7BCFDE8B14FF094
:1016C0007E50114BD86094F8303013B9012384F860
:1016D00030304FF47A7005F07FFD16E7B9F1020F54
:1016E000E3D1E06AFFF7E0FA41468146FFF798FD53
:1016F0000028C1D1C4F82C80D7E73046E1E700BF0D
:101700000004002000007A44CC00002021010020C9
:1017100000002041EC03002000408F4000006145A4
:101720000C04002007B5152319220E49CDE900321B
:101730000D484FF48073002205F064FC68B105F099
:101740008FFD0A4804F04EFE094804F04BFE09489C
:1017500003B05DF804EB04F045BE074804F042FE18
:101760000648F2E7D5140008F7AB000804AC0008FF
:1017700012AC0008DCAF000848AC000856AC00080A
:1017800038B5012147F6FF7001F04AF80023074AF7
:10179000074D1370074AC82093832B6003F0DAFECD
:1017A000044603F0ABFE04442C6038BDF80300206F
:1017B000F4030020000100202DE9FF48974CDFF8DA
:1017C00060826378DFF85C9288F80030A3784FF489
:1017D000FA7089F8003005F001FDDFF84CB203F033
:1017E0008DFE924B1B6898420AD99BF800303BB99A
:1017F00025788F4E05F0FD05012D3BD00023B377F2
:101800002578022D00F0B480032D00F0C280012D58
:1018100012D1874B1968874BD868FFF701FD58B183
:10182000284600F0E9FF844804F0DCFD834804F01A
:10183000D9FD834804F0D6FD607898F800308342E3
:1018400007D0012840F0DD8000F0D6FF637888F8EB
:101850000030A07899F80030834207D0012840F08A
:10186000D68000F0B5FFA37889F80030C82005F0D5
:10187000B3FCB4E7DFF8CCA1237931690AEBC303E9
:101880005868FFF7B9FC0028B8D16A4B71695869EC
:10189000FFF7B2FC0028B1D1DAF80C30B57701932C
:1018A0002279B78BAA422BD2002FA9D0002138462B
:1018B00000F0B6FF012360488BF8003004F092FD81
:1018C000614804F08FFD5E4804F08CFD4FF47A709F
:1018D000B3695E4D584303F03DFE002105AA059013
:1018E000286805F09BFE286805F0F8FD524804F0D2
:1018F00079FD574804F076FD514804F073FD7FE709
:10190000531B01330AEBC3030199586803920293F6
:10191000FFF7CAF97169FFF783FC0028C4D0029B66
:10192000039A996809B9B80708D5013A481E8A424E
:1019300047FA00F015D110F0010F0FD101238B40B1
:101940003B433D480291B38304F04CFD029941486A
:10195000013104F047FD3A4804F044FD0135EDB291
:101960009EE74B1C47FA03F3034313F0010FE4E730
:101970002F4B99682F4BD868FFF748FC00283FF49D
:101980005BAF012000F024FF2B4804F02BFD324810
:101990004DE76378CBB9314BB3F844301B0714D112
:1019A000234B9D7F8DB95968224BD868FFF724FCE3
:1019B00058B1284600F020FF1F4804F013FD2848C6
:1019C00004F010FD1E4804F00DFDA378002B7FF4F9
:1019D00033AF224BB3F8440010F4F8757FF42CAF0A
:1019E000134BD968134BD868FFF724FC00283FF449
:1019F00023AF284600F0ECFE0F4804F0F3FC194832
:101A000015E72378042B7FF421AF00201CE723780F
:101A1000042B7FF428AF002023E700BF2101002022
:101A2000EF030020EE030020F8030020F403002061
:101A300000010020CC0000207CAC0008D3AC0008E2
:101A4000DCAF00080004002099AC0008F00300207F
:101A5000B3AC000889AC0008DFAC00082C01002002
:101A6000EEAC0008FBAC000837B5162319221C4960
:101A7000CDE900321B484FF40073002205F0C2FA92
:101A800000220546C82318491848009205F0F6FCC4
:101A9000174C2060CDB1284605F0E2FB154804F054
:101AA000A1FC154804F09EFC144804F09BFC23683C
:101AB00083B1104804F096FC114804F093FC0F48E1
:101AC00003B0BDE8304004F08DBC0E4804F08AFC41
:101AD0000D48E7E70B4804F085FC0C48EDE700BF34
:101AE000B91700080BAD00088117000817AD0008F2
:101AF000F00300207CAC000825AD0008DCAF000836
:101B00008CAD00085AAD000867AD0008C0AD0008F4
:101B100000262DE9804897B0B64C3146E068FFF7C3
:101B200061FB8046002800F02A8101224021B24852
:101B300002F037FB01228021AF4802F032FB012284
:101B40004FF48071AC4802F02CFB01224FF400717D
:101B5000A94802F026FBA94B1B78002B00F00A8154
:101B6000A74804F03FFCA74804F03CFCA64804F05A
:101B700039FCDFF89882A64998F8003006A8013BA6
:101B8000DBB2032B96BFA34AA34A52F8232006F0E8
:101B900063FE9B4804F026FC06A9A04804F022FC42
:101BA000994804F01FFC9E4804F01CFCA06AFEF754
:101BB0001FFD02460B4606A89A4906F04DFE9048C6
:101BC00004F010FC06A9954804F00CFC8E4804F0C3
:101BD00009FCE06AFEF70CFD02460B4606A8924996
:101BE00006F03AFE864804F0FDFB06A98B4804F097
:101BF000F9FB854804F0F6FB894804F0F3FBE06844
:101C00008A49FFF75BF9FEF7F3FC02460B4606A88C
:101C1000874906F021FE7A4804F0E4FB06A97F48D4
:101C200004F0E0FB784804F0DDFBE069FEF7E0FC3F
:101C300002460B4606A87F4906F00EFE704804F0E7
:101C4000D1FB06A9754804F0CDFB6F4804F0CAFB30
:101C5000206AFEF7CDFC02460B4606A8764906F040
:101C6000FBFD674804F0BEFB06A96C4804F0BAFB14
:101C7000654804F0B7FB6069FEF7BAFC02460B4604
:101C800006A86E4906F0E8FD5D4804F0ABFB06A926
:101C9000624804F0A7FB5C4804F0A4FB2069FEF74F
:101CA000A7FC02460B4606A8654906F0D5FD544838
:101CB00004F098FB06A9594804F094FB524804F03C
:101CC00091FBA069FEF794FC02460B4606A85D490D
:101CD00006F0C2FD4A4804F085FB06A94F4804F00F
:101CE00081FB594C484804F07DFB4D4804F07AFBD9
:101CF0006068FEF77DFC02460B4606A8534906F0D5
:101D0000ABFD3F4804F06EFB06A9444804F06AFBB3
:101D10003D4804F067FBA068FEF76AFC02460B46EC
:101D200006A84B4906F098FD354804F05BFB06A970
:101D30003A4804F057FB344804F054FB0025A26CE9
:101D4000EBB29342C0F0B0800025DFF808A1424F0B
:101D5000DFF808B198F804205FFA85F94A4500F2E7
:101D6000BB80274804F03EFB3D4804F03BFB26487F
:101D700004F038FB40F6B83005F02EFACCE63146D8
:101D8000E068FFF757FA00283FF4E5AE4FF07A51CC
:101D9000E068FFF73BFA074688B101224021164868
:101DA00002F0FFF901228021134802F0FAF9012222
:101DB0004FF48071104802F0F4F94246C6E64FF045
:101DC0007C51E068FFF722FA804600284AD00122C1
:101DD0004021094802F0E5F901228021064802F07D
:101DE000E0F93A464FF48071034802F0DAF93A46D6
:101DF000ACE600BFCC000020000C01402001002018
:101E0000EFAD0008F9AD0008DCAF000821010020AB
:101E100039AE0008F8C60008E4AD000847AE000877
:101E2000DBAF00084AAE00086AAE00080000C842F6
:101E30008CAE0008A2AE0008BCAE0008D6AE00080A
:101E4000FBAE000819AF00080004002035AF000801
:101E50004EAF000800010020ECB90008EAAD000810
:101E60009AAF00084FF07D51E068FFF7CFF90746C1
:101E700058B1012240212C4802F093F942468021BA
:101E8000294802F08EF9424692E74FF07E51E06811
:101E9000FFF7BCF900283FF45EAE3A4640212248E5
:101EA00002F07FF93A4698E754F823005F1CFEF7EA
:101EB0009FFB3A46CDE900011C4906A806F0CCFC80
:101EC0001B4804F08FFA06A91A4804F08BFA1A4846
:101ED000013504F087FA32E704EB8901486B09F118
:101EE00001020592FEF784FB4FF0010EBAF81CC008
:101EF0000EFA09F31CEA030F0CBF3B465B46059A3A
:101F00000293CDE900010D4906A806F0A5FC08489A
:101F100004F068FA06A9074804F064FA064804F0D9
:101F200061FA013516E700BF000C014067AF0008F9
:101F3000EFAD000847AE0008DCAF00087CAF00083A
:101F40001FB5154B154803A9039302F0D1F84FF4C0
:101F50007071124802F023F9142319221049CDE9B7
:101F6000003210484FF48063002205F04BF868B14E
:101F700005F076F90C4804F035FA0C4804F032FA12
:101F80000B4805B05DF804EB04F02CBA094804F0E6
:101F900029FA0948F2E700BFC0030310000C014012
:101FA000111B0008DEAF0008E7AF0008F1AF000822
:101FB000DCAF000823B000082DB00008B0FA80F0B4
:101FC000014B4009187070472001002008B50968CE
:101FD0000068FFF72FF9003818BF012008BD000086
:101FE0002DE98848464D474B474E1A8802F1FA01C1
:101FF00019804FF605718A421AD8444A1278BAB14C
:1020000000241C8000F020FC3D4A414823468146C4
:102010001446317902F1300C5FFA83FE714546D8DF
:102020003C4B08223C4800F06AFBD9F81C30636046
:102030003A4A1388FA339BB2B3F5FA6F138013D37D
:10204000374B1B7883B1002427461480DFF8D4A0D7
:1020500000F00CFC96F805B0E2B2934531D8394651
:102060002748AF6400F01FFB2F4A1388FA339BB256
:10207000B3F57A7F138009D32C4B1B7833B100233F
:10208000138000F003FC224B9B69AB602849A868D1
:10209000FFF7D0F838B30223337095F84C3013B9FA
:1020A000012385F84C30FA2005F096F89BE750F8AC
:1020B00004EB08324CF804EF9360C2F804E00133FB
:1020C000AAE75AF8049F1B494846FFF7A9F840B110
:1020D00048461949FFF79AF818B17A1C45F8279035
:1020E000D7B20134B8E71549A868FFF785F808B1F9
:1020F0000123D1E73378042BCFD00323CCE700BFF3
:1021000000040020FE0300202101002029010020FE
:1021100060400020CD1F00080C040020FC030020BC
:102120002801002070400020FA0300202701002031
:10213000CDCC4C3E00005CC20000FA42CDCC4CBE7F
:1021400007B5132319220E49CDE900320D484FF48B
:102150000073002204F056FF68B105F081F80A48C8
:1021600004F040F9094804F03DF9094803B05DF86E
:1021700004EB04F037B9074804F034F90648F2E7F5
:10218000E11F00085DB0000869B0000876B00008E3
:10219000DCAF0008ABB00008B8B0000880B5A14EB5
:1021A000A14C96F80080B8F1010F38D0B8F1020FB9
:1021B00000F09080B4F844506DB3EB0740F1BA8062
:1021C0009A4BA168D86AFFF717F860B1984825F0D4
:1021D0000105A4F8445004F005F9964804F002F90A
:1021E000954804F0FFF8B4F84450E90640F1EC805B
:1021F0008E4B2169D868FFF71DF860B18C4825F037
:102200001005A4F8445004F0EDF88C4804F0EAF806
:10221000894804F0E7F8C82004F0E0FFC1E7834DE7
:102220006169A86801F10041FEF7E6FFF8B14FF4DB
:102230007A71834F94F822203B884A43C8339BB27B
:1022400093423B8013DB404600F0D6FAB4F84430AA
:102250007C4843F00203A4F8443000233B8004F0A0
:10226000C1F8794804F0BEF8734804F0BBF8AB6CD1
:10227000002B9FD0013B55F82350616B2846FEF799
:10228000BBFF90B1012000F0B7FAB4F844306D48BC
:1022900043F00803A4F8443004F0A4F86B4804F0B9
:1022A000A1F8654804F09EF884E72846616AFEF7C5
:1022B000C1FF00283FF47EAF012000F09DFAB4F882
:1022C0004430604843F00403A4F8443004F08AF832
:1022D0005F48E4E7554A936C002B3FF46BAF013B3A
:1022E00052F82350E16B2846FEF786FF68B10120C3
:1022F00000F06EFAB4F84430524843F48073A4F806
:10230000443004F06FF85348C9E72846E16AFEF705
:1023100091FF00283FF44EAF012000F059FAB4F8C5
:102320004430484843F08003A4F8443004F05AF89D
:102330004948B4E76F0713D53C4BA16A1868FEF70C
:102340005BFF00283FF44FAF707825F00405A4F838
:10235000445000F051FA364804F044F83F483DE755
:1023600015F0080113D0314BA16B1868FEF762FF1E
:1023700000283FF438AF707825F00805A4F84450E1
:1023800000F03AFA2A4804F02DF8354826E7A80765
:102390007FF529AF4FF47A70324A1368C83313605F
:1023A000B3FBF0F394F823008342FFF41CAF707882
:1023B00025F002051160A4F8445000F01DFA1C48F5
:1023C00004F010F8284809E72A0613D5174B216BAB
:1023D0001868FEF711FF00283FF41DAFB07825F014
:1023E0008005A4F8445000F0F3F9114803F0FAFF17
:1023F0001E480BE715F480703CD00C4B216C18681C
:10240000FEF718FF00283FF406AFB07825F480757A
:10241000A4F8445000F0DCF9054803F0E3FF144849
:10242000F4E600BF210100202C0100200004002060
:1024300072B100087FB10008DCAF0008CAB1000823
:1024400058040020DDB00008EAB0000804B100081C
:102450001EB1000838B1000855B1000891B100085C
:10246000A4B1000854040020B7B10008DFB100088F
:10247000F5B1000815F0200119D04FF47A711A4A0D
:102480001368C8331360B3FBF1F394F820108B4248
:10249000FFF4C1AE106025F02005B078A4F84450D8
:1024A00000F096F9114803F09DFF1148AEE66B0667
:1024B0007FF5B1AE4FF47A700B4A1368C8331360DE
:1024C000B3FBF0F394F821008342FFF4A4AEB0789C
:1024D00025F040051160A4F8445000F079F9034854
:1024E00003F080FF034891E65004002072B1000819
:1024F0000BB2000821B2000807B5142319220E49B7
:10250000CDE900320D484FF48073002204F07AFDCB
:1025100068B104F0A5FE0A4803F064FF094803F01F
:1025200061FF094803B05DF804EB03F05BBF0748A7
:1025300003F058FF0648F2E79D21000837B2000873
:1025400072B1000843B20008DCAF000878B200089E
:1025500085B2000810B50D4CB4F84430DB0713D435
:10256000012000F049F9B4F84430094843F0010370
:10257000A4F8443003F036FF064803F033FFBDE80B
:102580001040054803F02EBF10BD00BF2C010020F5
:10259000DDB00008AAB20008DCAF000810B50D4C91
:1025A000B4F844309B0613D4012000F011F9B4F8BC
:1025B0004430094843F02003A4F8443003F012FFEC
:1025C000064803F00FFFBDE81040054803F00ABFBE
:1025D00010BD00BF2C010020DDB00008C3B2000810
:1025E000DCAF000810B50D4CB4F844305B0613D4D2
:1025F000012000F0EDF8B4F84430094843F04003FE
:10260000A4F8443003F0EEFE064803F0EBFEBDE80C
:102610001040054803F0E6BE10BD00BF2C010020AD
:10262000DDB00008E0B20008DCAF000810B50D4CCA
:10263000B4F84430DB0613D4012000F0C9F8B4F834
:102640004430094843F01003A4F8443003F0CAFEB4
:10265000064803F0C7FEBDE81040054803F0C2BEBF
:1026600010BD00BF2C010020DDB00008FDB2000845
:10267000DCAF00087047704770B51546A94205D316
:10268000954294BF28464FF0FF3070BD4C1964103E
:1026900030F81460A4B29E4203D03EBF0134A1B210
:1026A0002C462546EAE72DE9F84F06460F46012558
:1026B00000EB810BBD4213D23446ABEB850AD4F854
:1026C000008054F8049F40464946FEF7B3FD18B118
:1026D00044F8049CC4F800805445F0D10135E9E782
:1026E000BDE8F88F10B501380A44914200D110BD01
:1026F00010F8013F0C78047001F8013BF5E72DE973
:10270000F74F82460F46904601250193BD4216D2EF
:1027100054460026A7EB0509A346444421465846E3
:10272000019B9847002806F1010604DD4246214638
:102730005846FFF7D7FF4E45EED10135E6E703B027
:10274000BDE8F08F0022014B9A70704721010020F4
:102750000122014B9A707047210100200022014B99
:102760005A707047210100200122014B5A707047B6
:10277000210100200022014BDA7070472101002066
:102780000122014BDA707047210100200020FFF781
:1027900015BC0120FFF712BC08B500F0DFFC50B1FA
:1027A000074803F01FFE074803F01CFEBDE8084081
:1027B000054803F017BE024803F014FE0348F3E790
:1027C00019B3000822B30008DCAF000830B30008DA
:1027D00038B50546074C4FF0FF31206803F04AF941
:1027E0002946022000F004FD2068BDE8384003F0CF
:1027F000F5B900BFE803002038B50546074C4FF097
:10280000FF31206803F036F92946012000F0F0FC82
:102810002068BDE8384003F0E1B900BFE8030020BC
:1028200070B505460E46074C4FF0FF31206803F0A7
:1028300021F92846314600F0E9FC2068BDE87040E7
:1028400003F0CCB9E803002010B5074C4FF0FF317E
:10285000206803F00FF900F0D1FA00F001FC2068C5
:10286000BDE8104003F0BAB9E803002010B5064CEB
:102870004FF0FF31206803F0FDF800F00DFB2068F9
:10288000BDE8104003F0AAB9E803002010B5064CDB
:102890004FF0FF31206803F0EDF800F099FB20685D
:1028A000BDE8104003F09AB9E803002008B501F034
:1028B0004BF9002008BD0000004870475A04002072
:1028C000004870475A40002008B503F01DFA02F096
:1028D0001BFEBDE8084003F025BA10B500F0D4FE99
:1028E000FFF7EAFF0446FFF7EBFF0146204603F03F
:1028F000EFFDBDE8104002F039BE000010B5441EE7
:1029000014F8013F03B910BD0A2B09D10D210A4863
:1029100001F0C6FD8021084801F0CAFD0028F9D069
:102920002178054801F0BCFD8021034801F0C0FD7D
:102930000028F9D0E4E700BF003801400E4B10B585
:10294000186818B14FF0FF3102F078FFFDF768FC0E
:102950000A4A0B491388098899420FBF4FF0FF3488
:102960000849CC5C01331CBF03F07F031380FDF7E3
:102970005BFC204610BD00BFA4410020A841002000
:10298000AA410020AC41002008B5FEF713FD4FF42A
:102990007A7004F021FCFAE7431E0020F0B508220B
:1029A0008024013913F8016FC9B247B24000C0B2A8
:1029B00080F0070530EA270028BF284680F0070589
:1029C0002642EDB218BF2846013A4FEA5404ECD132
:1029D0000029E4D1F0BD0000182270B58CB08DF84C
:1029E00007000E460DEB0200002105F09BFF0823B7
:1029F000ADF81430ADF8243003AB01240893042360
:102A00000DF10702049204A902222048ADF81640F5
:102A10008DF82A40ADF8263000F064FF0228014608
:102A20000BD01B4803F0DEFC1A4803F0DBFC1A480D
:102A300003F0D8FC00200CB070BD11239DF80C50A1
:102A400002A88DF808308DF80950FFF7A5FF9DF812
:102A50000D30834204D00E4803F0C4FC0F48E4E775
:102A600021460DF10E00FFF797FF9DF80F308342CE
:102A700004D00B4803F0B6FC0A48D9E79DF80E30A5
:102A8000204645EA03253580D5E700BF78010020C0
:102A900045B3000852B30008DCAF000873B3000868
:102AA00097B30008A7B300082DE9F04194B004AC37
:102AB00017468DF8070020220E462046002105F01B
:102AC00031FF182200210EA805F02CFF0DF107039D
:102AD00008220C930123ADF83420ADF83630ADF860
:102AE00044208DF84A300CA907FA03F30222234848
:102AF0001094ADF8463000F0F5FE022801460CD0E7
:102B00001F4803F06FFC1F4803F06CFC1E4803F0E5
:102B100069FC002014B0BDE8F08111239DF810502D
:102B200003A88DF80C308DF80D50FFF735FF9DF898
:102B30001130834204D0124803F054FC1348E3E7F9
:102B400035703546A046023401212046FFF724FFA8
:102B500098F80330834204D0094803F043FC0C4842
:102B6000D2E701352B4698F8022003F8012B9B1B76
:102B7000DBB29F42E6D80120CCE700BF78010020FD
:102B800045B30008CDB30008DCAF0008EFB3000880
:102B900014B4000870B5102406460D4686B02246CF
:102BA000002102A805F0BEFE032101A88DF8044013
:102BB0008DF805608DF80650FFF7EEFE0DF1050368
:102BC00002930B4B8DF8070001220A4802A90393D8
:102BD00000F088FE012809D0074803F003FC0748ED
:102BE00003F000FC064803F0FDFB002006B070BDBA
:102BF000080003007801002045B3000837B400083E
:102C0000DCAF0008182230B58DB08DF807000D46F6
:102C10000DEB0200002105F085FE0DF107030822EF
:102C200004930123ADF81420ADF81630ADF824203C
:102C30008DF82A300DEB0203022204A914480893F0
:102C4000ADF8262000F04EFE022801460AD01148B9
:102C500003F0C8FB104803F0C5FB104803F0C2FBAB
:102C60000DB030BD11239DF8084003A88DF80C303D
:102C70008DF80D40FFF790FE9DF80930834204D097
:102C8000044803F0AFFB0648E5E72C70E8E700BF17
:102C90007801002045B3000859B40008DCAF0008F3
:102CA0007AB400082DE9F04110240F4605468CB097
:102CB0000021164604A8202205F034FE22460021F9
:102CC000684605F02FFE3B780DEB040003218DF8DC
:102CD00010408DF811508DF81230FFF75DFEB846A8
:102CE0008DF813006C4408F101084546204615F89C
:102CF000013B012100F8043FFFF74EFEED1BEDB252
:102D0000AE42607104F10204EDD808237600ADF8FC
:102D1000043001220DF1110369460A48013600937F
:102D2000ADF8066000F0DEFD012808D0064803F08B
:102D300059FB064803F056FB054803F053FB0CB063
:102D4000BDE8F0817801002045B300089CB400087C
:102D5000DCAF000837B54FF4805001F0B3F900281C
:102D600043D000200DF107018DF80700FFF74AFF5F
:102D70009DF8075015F0010403D01F4B1B6803B1E9
:102D80009847AA0705D51C4B44F002045B6803B1C1
:102D900098476B0705D5184B44F004049B6803B1B2
:102DA0009847280705D5144B44F00804DB6803B1A5
:102DB0009847E90605D5104B44F010041B6903B190
:102DC0009847AA0605D50C4B44F020045B6903B173
:102DD00098472B0605D5084B44F080049B6903B146
:102DE000984721460020FFF7D5FE4FF4805003B0EE
:102DF000BDE8304001F076B9C44000202DE9F84F1D
:102E00000A220C201A49FFF74FFE40B9194803F077
:102E1000E9FA194803F0E6FA184803F0E3FA052442
:102E20004FF47A7A4FF00008154B164EB3F900B004
:102E3000154B164D93F90070DFF8549036F8020FD9
:102E4000013C40BA80B20BFB00F0B0FBFAF0384412
:102E5000FDF7ACFB42464B46FDF74CFDFDF7D0FEBF
:102E600014F0FF0445F8040BE8D1BDE8F88F00BF6B
:102E70009040002045B30008BFB40008DCAF000854
:102E8000BE4000208E400020BD4000206040002059
:102E900000408F400000000070B5434B1A789AB193
:102EA0000022182104201A70FFF774FE40B93F4831
:102EB00003F098FA3E4803F095FA3E4803F092FA80
:102EC0004FF4FA6004F08AF902222C203A49FFF705
:102ED000EBFD40B9354803F085FA354803F082FA36
:102EE000344803F07FFA354B988D40BA80B2FDF735
:102EF0006DFB23A3D3E90023FDF7D2FBFDF780FE92
:102F00002F490646FDF7DAFFFDF772FB044630460F
:102F10000D46FDF76DFB02460B461BA1D1E90001F2
:102F2000FDF706FA02460B4620462946FDF7E2FC6D
:102F3000FDF766FE2249FEF775F8FDF759FB04F030
:102F4000ABFC13A3D3E90023FDF7D4FC12A3D3E910
:102F50000023FDF7EFF902460B4600201949FDF763
:102F6000C9FC0FA3D3E90023FDF7E2F9164B0022B9
:102F7000FDF7E0F9FDF744FE144B586170BD00BF4A
:102F80007978CF81E508393F6666666666660A40ED
:102F90000000000000DCAE40000000E0E1796B3F83
:102FA0000000006066127140BC40002045B300087C
:102FB000D8B40008DCAF0008B040002084400020F6
:102FC00000401C460000F03F0000E03F6040002051
:102FD00008B532201C49FFF7FFFC40B91B4803F03D
:102FE00001FA1B4803F0FEF91A4803F0FBF91A4BEB
:102FF0005B8E5BBA98B2424213F4004F92B218BF94
:103000005042FDF7E3FA0AA3D3E90023FDF748FB9A
:1030100009A3D3E90023FDF76DFC09A3D3E900233D
:10302000FDF73EFBFDF7ECFD0C4B986108BD00BFC2
:10303000E17A14AE47E1204000000040E17A743F9D
:103040008DEDB5A0F7C6B03EB640002045B30008F0
:10305000F4B40008DCAF0008844000206040002089
:1030600010B52A201749FFF7B7FC40B9164803F0FE
:10307000B9F9164803F0B6F9154803F0B3F9154B42
:10308000588D40BA80B2FDF7C5FE134B04464FF091
:1030900081411868FDF712FF01462046FDF70EFF3B
:1030A0000E4B044693F9000000EB8000FDF7B2FEE2
:1030B00001462046FDF7FAFD0949FDF7B3FF094B2C
:1030C000D86110BDAE40002045B3000808B5000827
:1030D000DCAF000884400020C0400020BD4000203C
:1030E00000007A446040002070B55020154C15490E
:1030F000FFF788FD59201449FFF784FD611C51201A
:10310000FFF780FD14F834596D0094F8363005F05F
:10311000180505F26D1000EB53105E09FDF756FA25
:1031200000220A4BFDF7E6FBFDF76AFD084B06F2AD
:103130006D161860074B35441D8094F83520064BFA
:103140001A7070BDB8400020BA40002000408F4087
:10315000C0400020BE400020BD40002010B5064CFD
:1031600004202146FFF738FC208800F4C070A0F14D
:1031700080035842584110BD8840002007B5114BCC
:1031800001A91148019300F0B3FF01224FF400415F
:103190000D4801F006F84FF47A7004F01FF8002291
:1031A0004FF40041084800F0FCFF084B064801A915
:1031B000019300F09DFF4FF47A7003B05DF804EBCB
:1031C00004F00CB8008003100008014000800304E4
:1031D00008B500210420FFF7DDFC01210420FFF7E2
:1031E000D9FCBDE8084002210420FFF7D3BC000051
:1031F000054A537929B943EA000105205171FFF7C7
:10320000C9BC23EA0001F8E784400020A1B9154BAE
:1032100000F01F0219780A4359781A70C0F344125B
:103220000A435A709A78C0F384201043987003229E
:1032300001200C49FFF736BD0129F8D1094B00F0F8
:103240001F011A7822EA01021A705A78C0F3441159
:1032500022EA01025A709A78C0F3842022EA00021E
:103260009A70E4E75A4000202DE9F04F634B85B097
:10327000804669466248009300F03AFF0C21012025
:1032800000F0C6FF4FF4805302934FF40063ADF893
:103290000C300123454602A88DF80E3000F0DAFE0E
:1032A000584B01A8584C019300F08AFDFFF790FF9E
:1032B0004FF4FA7003F092FFFFF760FFFFF714FF7F
:1032C0000FCD0FC495E80700504B84E8070093F931
:1032D00000B04F4BB8F82200D3F800A0A0EB0B00D1
:1032E000FDF798FD5146FDF79DFEFDF7D3FFA0F5D4
:1032F0000050484C083800116072B8F8200098F867
:103300001C50A0EB0B00FDF785FD5146FDF78AFE32
:10331000FDF7C0FF44F21803E28898F81D90A380DF
:1033200005F00303DB0043F4817309F0070922F47D
:10333000FE4298F81F6022F01F0243EA093313434C
:1033400098F81E70E3803601237A06F0300603F009
:103350000F0346EA87161E431923C0F307100822FD
:10336000A072211D0420E3722672FFF79BFC082245
:1033700004200DEB0201FFF797FB9DF8083022793E
:1033800003F07F039A4222D19DF8092063799A4283
:103390001DD19DF80A20A3799A4218D19DF80B20DF
:1033A000E3799A4213D19DF80C20237A9A420ED1E8
:1033B0009DF80D20637A9A4209D19DF80E20A37AD8
:1033C0009A4204D19DF80F20E37A9A4209D012481C
:1033D00003F008F8114803F005F8114803F002F86B
:1033E000FEE7104802F0FEFF0F4802F0FBFF0C481A
:1033F00005B0BDE8F04F02F0F5BF00BF0010032894
:10340000000C014028030001C4400020BD40002002
:10341000C04000208440002045B3000824B50008C7
:10342000DCAF000858B5000865B500087047704764
:10343000044B9A6952075ABF9869C0F340000220B2
:10344000704700BF00640040F0B50646284D294F84
:103450008BB03146284800F050FD08B90BB0F0BDE4
:103460006A463146244800F0FDFC00239DF80A20FE
:103470000DF10A0107A8DCB2A24233D89DF808304A
:103480009DF80910042B0CBF019B009B95F800E0F0
:1034900006BF23F0604343F00043C3F30A030EF179
:1034A000010E022939780EF0070E08BF43F0804361
:1034B0008E45CED0059300238DF81830ADF81A3024
:1034C000142329780D4C8DF81C2003FB01440DEBCF
:1034D000030CBCE80F000FC4DCF8003085F800E0F6
:1034E0002360B6E711F8014F013300F8014FC2E73E
:1034F000E1400020E040002000640040E440002063
:1035000070B5134B1B78022B17D10024114D124EAE
:1035100015F8013B5BB12146104800F07BFC012807
:103520000CD10023308805F8013CFFF77FFF013400
:10353000E4B2032C06F10206EAD170BD2146074829
:1035400000F068FC0028F2D105F8010CEFE700BF9D
:103550008E4100208441002088410020006400400A
:1035600008B5FFF765FF022802D10020FFF75FFFD3
:1035700008BD0000034B1B78022B01D1FFF7F0BF01
:10358000704700BF8E41002008B5094B1B786BB116
:103590000221084800F0BCFC40B10648022100F0BE
:1035A0001BFDBDE808400020FFF74EBF08BD00BF6F
:1035B000740100200064004008B5094B1B786BB112
:1035C0001021084800F0A4FC40B10648102100F08A
:1035D00003FDBDE808400120FFF736BF08BD00BF6E
:1035E000740100200064004008B5084B1B7863B1EB
:1035F0000121074800F08CFC38B10121044800F09B
:10360000EBFCBDE80840FFF77BBF08BD740100205C
:103610000064004008B5164B1B783BB34FF4806143
:10362000144800F075FC38B112484FF4806100F086
:10363000D3FC0020FFF7FBFE4FF480310D4800F073
:1036400067FC20B14FF480310A4800F0C5FC4FF40C
:103650000041084800F05CFC40B14FF400410548CF
:1036600000F0BAFCBDE80840FFF784BF08BD00BF0A
:103670007401002000640040FFF786BFFFF79CBF85
:10368000FFF7B2BFFFF7C6BF1FB50121022000F050
:1036900021FE4723019340F2E733ADF808300023C1
:1036A00001A90E488DF80C3000F020FE01210B48D6
:1036B00000F076FE01220948114600F068FE4FF442
:1036C000407000F073FB064B6846009300F078FBF7
:1036D0000121024800F052FE05B000BD0004004088
:1036E0001D05000110B501210C4800F05CFEA0B1E1
:1036F0000B4C0121094800F062FED4E9002312F5C9
:103700007A7043F10001074BC4E900011B6803B163
:103710009847BDE81040FFF7D7B810BD000400403F
:10372000984100209041002070470023142282B06D
:10373000ADF8063008B902B070470138ADF8062080
:10374000BDF806309BB2591EADF80610002BF7D11C
:10375000F0E70000014B1868FCF766BDA0410020AF
:1037600008B5FCF75DFD014B186008BDA0410020C5
:1037700001890122006800F014BD4189012200681E
:1037800000F00FBD01890022006800F00ABD10B5ED
:103790000446FFF7F7FF2369012098472046FFF70B
:1037A000ECFF2369012098472046FFF7E1FF2369DA
:1037B0000120BDE81040184741890022006800F050
:1037C000F0BC10B50446FFF7D3FF2046FFF7D5FF46
:1037D0002369012098472046FFF7D4FF0120236981
:1037E00098472046BDE81040FFF7E6BF10B50446F5
:1037F000FFF7C8FF0120236998472046BDE8104025
:10380000FFF7DABFF7B504460F46082580262046A5
:10381000FFF7D2FF3742204640D0FFF7A9FF2369C8
:10382000012098472046FFF7A8FF01202369984709
:10383000013D4FEA5606EAD12046FFF7BDFF236956
:10384000012098472046FFF793FF236901209847FE
:103850002046FFF792FF23892068ADF8043040F23C
:10386000034301A9ADF8063000F042FC218920682D
:1038700000F08FFC23890546ADF8043041F2034384
:10388000206801A9ADF8063000F032FC2046FFF7B1
:1038900093FFB5FA85F0400903B0F0BDFFF772FF62
:1038A000BDE72DE9F8430024054689461746A046A2
:1038B00049462846FFF7A6FF012806460FD0474590
:1038C0000DD02846FFF763FF013401202B6998478C
:1038D000E4B22846FFF78AFFBC42A046E8D930464A
:1038E000BDE8F8832DE9F04F04460D46174687B032
:1038F000002800F00081002900F0FF80002A00F07D
:10390000E480836903B198470023019395F80AB0D6
:1039100002951BF0040A1FD0AE7AD5F800A016F06D
:103920000106B5F8069040F0D480B14500F0DA8089
:10393000AB7A590600F1CF8095F90A30002B80F25E
:10394000D780297B2046FFF75DFF18B9AB7A1A07AD
:1039500040F1C8800136E8E7019B2046002B3FD0AC
:10396000FFF72FFFAE7AB5F8048016F0080908BFFC
:1039700094F80CA0B2075FFA88F334D54FEAD81850
:1039800008F006085246204648F0F0010393FFF77E
:1039900088FF0128039B02D0B9F1000F1BD0194604
:1039A0002046FFF72FFF012802D0B9F1000F12D0F7
:1039B000F607B1D52046FFF704FF5246204648F0EF
:1039C000F101FFF76EFF0128A6D0B9F1000FA3D1D6
:1039D0004B4802F007FD1BF0080F9DD100276AE05D
:1039E000FFF704FFBEE706F0010141EA430152463A
:1039F0002046C9B2FFF755FF01288DD0B9F1000F5D
:103A00008AD1E8E72046FFF7B3FE012023699847F3
:103A100023892068ADF8143040F2034305A9ADF8BE
:103A200016304FF0000800F063FB4FF0800B0823C6
:103A300020460393FFF7A1FE2189206800F0A9FB2F
:103A40004BEA0802D2B2002818BF90462046FFF782
:103A5000B3FE012022699047039B4FEA5B0B013BB9
:103A6000E6D123892068ADF8143041F2034305A95B
:103A7000ADF8163000F03CFB0AF8018BAB7A013E42
:103A8000D806B6B20CD416B12046FFF77BFE012053
:103A9000236998472046FFF770FE2046FFF78CFE0B
:103AA000002EAFD1A5F80890019B103501339F423D
:103AB00001937FF42BAF029B9B7A9B0602D4204696
:103AC000FFF765FEE36903B19847384607B0BDE8E4
:103AD000F08F4E46E4E72046E97AFFF793FE002890
:103AE0007FF42AAFEB88B6B2B3422E81DCD075E703
:103AF0001AF8061026E70746E7E70F46E5E700BF96
:103B000084B5000813B50F4C01A922896389206888
:103B10001343ADF8043041F20343ADF8063000F032
:103B2000E7FA01226189206800F03BFB012221892C
:103B3000206800F036FB636903B19847002002B0AB
:103B400010BD00BF7801002010B5012186B01420FF
:103B500000F0B4FB254B4FF400512548029300F0D0
:103B60001EFB234802A900F0C3FA224B224802A9F7
:103B7000029300F0BDFA4FF48063ADF808300423DF
:103B80001D4802A98DF80B3000F0B2FA01214FF464
:103B9000804000F093FB00234FF4E132CDE9022393
:103BA0004FF4402202A915480492ADF8143000F0F9
:103BB00009FC4FF4407000F0F9F8114B01A8019393
:103BC000104C00F0FDF8012240F225510B4800F0A6
:103BD0004EFC0121094800F041FC226822B911463F
:103BE000094801F0EDFD206006B010BD002003146F
:103BF0000010014000020318000801400038014095
:103C000025050001A4410020B2B5000838B502F036
:103C10007BF840F22551104800F050FCA0B10F4D48
:103C20000F4B2C881B88013404F07F04A3420A4800
:103C30000ED000F039FC2B880A4A2C80D0540A4B55
:103C4000186808B101F08AFEBDE8384002F06AB891
:103C500000F02AFCF8E700BF00380140AA4100202C
:103C6000A8410020AC410020A4410020002103E035
:103C70000A4B5B584350043109480A4B42189A4298
:103C8000F6D3094A02E0002342F8043B074B9A426C
:103C9000F9D300F013F801F0C4FC70478CCF000892
:103CA00000000020CC030020D0030020E84A0020C0
:103CB000FEE77047FEE7FEE7FEE77047374B82B04E
:103CC0001A6842F001021A605968354A0A405A607F
:103CD0001A6822F0847222F480321A601A6822F480
:103CE00080221A605A6822F4FE025A604FF41F02C2
:103CF0009A600022009201921A6842F480321A609F
:103D00001A6802F400320192009A01320092019A7C
:103D10001AB9009AB2F5A06FF2D11A6812F4003203
:103D200018BF01220192019A012A30D11D4A11685F
:103D300041F010011160116821F007011160116854
:103D400041F0020111605A685A605A685A605A6814
:103D500042F480625A605A6822F47C125A605A68AF
:103D600042F4E8125A601A6842F080721A601A68C7
:103D70009201FCD55A6822F003025A605A6842F058
:103D800002025A605A6802F00C02082AFAD14FF077
:103D90000062054B9A6002B0704700BF00100240FD
:103DA0000000FFF80020024000ED00E0034B40F06F
:103DB000BF6040F40030D860704700BF00ED00E005
:103DC00070B50125017801F01F039D40C3784C09AF
:103DD000B3B10E4B4678DA68D243C2F30222C2F185
:103DE00004039E4083780F2020FA02F21340084A11
:103DF00033431B01114481F8003342F8245070BD55
:103E0000034B203443F82450F9E700BF00ED00E0F5
:103E100000E100E001290AD0022913D0C9B9826863
:103E20000D4B02EA0300934307D1012070478068DD
:103E30000A4B094A1840904207D8B0FA80F040096E
:103E4000400070478068064BF3E7C31A5842584158
:103E500070470220704700BF030000040003000801
:103E60000000031000EB011310B5D3F8B04104F0CB
:103E700004041472BCBBD3F8B041640D1460D3F8D1
:103E8000B04104F002045472D3F8B44104F00F04BA
:103E90009472D3F8B4311B0AD37400EB0113D3F836
:103EA000B841D472D3F8B841240A1473D3F8B84196
:103EB000240C5473D3F8B841240E9473D3F8BC4146
:103EC000D473D3F8BC41240A1474D3F8BC41240C35
:103ED0005474D3F8BC311B0E937449B9C36843F0D2
:103EE0002003C36010BDD3F8B041E4085460C6E7B6
:103EF000036943F020030361F4E719B9C06800F0D7
:103F000003007047012901D10069F8E700207047DC
:103F100002464069084015D0B1F5807F4BD012D8D9
:103F2000082908D8013907290BD8DFE801F0252E28
:103F30000A340A0A0A38202937D0402937D01029F4
:103F400031D000207047B1F5004F43D00CD8B1F507
:103F5000806F34D0B1F5006F35D0B1F5007FF0D16E
:103F60009069C0F340007047B1F5803F21D0B1F5B2
:103F7000003FE6D1506813E0906800F0013020F077
:103F80008070003818BF01207047D06810F003001F
:103F900018BF01207047D068C0F3C0007047D068D8
:103FA000C0F3001070471069F0E71069F4E710697A
:103FB000F6E75068F0E7906900F0010070479069FB
:103FC000C0F380007047936913F0700F14BF012095
:103FD000002070475068F3E7B1F5007F36D00FD866
:103FE000202927D006D804291FD0082920D001294C
:103FF00018D07047402920D0B1F5807F26D0704777
:10400000B1F5004F20D006D8B1F5806F1ED0B1F5C4
:10401000006F19D07047B1F5803F10D0B1F5003F67
:1040200010D070470A4B836070470823C360704705
:104030001023FBE70823036170471023FBE70823E5
:10404000436070471023FBE7002383610423F7E7F5
:10405000010101000279837902F1804210B5016803
:1040600002F5823233B3164B1C6824EA01041C604B
:104070005C6824EA01045C6014682143116099685B
:10408000026821EA02019960D96821EA0201D96037
:104090004179102906D1996811439960D9680A437A
:1040A000DA6010BD01F1804303F5823319680A43D9
:1040B0001A60F6E7136823EA01031360F1E700BF13
:1040C00000040140064B19685A69014214BF0123DC
:1040D0000023024203F0010008BF0020704700BF28
:1040E00000040140014B5861704700BF00040140CB
:1040F0002DE9F041CB780F88DA0648BF8A7803F0C3
:104100000F0548BF15430A78D2B100214FF0010CCA
:104110004FF00F0E02680CFA01F636EA07040BD1D5
:104120008C000EFA04F822EA080205FA04F4282B9F
:1041300042EA040225D1466101310829EBD102602F
:10414000FF2F1CD900214FF0010C4FF00F0E4268D9
:1041500001F108040CFA04F434EA07060BD18E00CE
:104160000EFA06F822EA080205FA06F6282B42EAB9
:1041700006020AD1446101310829E9D14260BDE853
:10418000F081482B08BF0661D6E7482B08BF0461C1
:10419000F1E78368194214BF0120002070470161D4
:1041A00070470AB10161704741617047002830B51E
:1041B000164C00F44015B4BFE3696368B5F5401FC1
:1041C00082B212D1656823F0706325F07065656076
:1041D000440D2401A2401A43002918BF13460B4A7C
:1041E0000028B4BFD361536030BDC4024DBF032467
:1041F000440D2401C0F303454CBFAC4002FA04F463
:1042000023EA040343F07063E2E700BF00000140CB
:1042100010B50F2401F0030301F0FC0101F180410E
:1042200001F580318A689B009C4022EA04028A6082
:104230008A6898401043886010BD00001A4A10B583
:10424000536803F00C03082B2CD153685168C3F357
:104250008343CC0303F1020302D5516889031FD5C0
:1042600012494B4303605168114CC1F30311615C67
:10427000CB4043605168C1F30221615C23FA01F134
:1042800081605168C1F3C221615CCB40C360526858
:104290000849C2F381328A5CB3FBF2F3036110BDBB
:1042A0000549DEE7044BDDE70010024000093D0050
:1042B00014C8000810C8000800127A00044B9A695C
:1042C00011B102439A61704722EA0002FAE700BF87
:1042D00000100240044BDA6911B10243DA61704701
:1042E00022EA0002FAE700BF00100240214A0388D8
:1042F000904212D002F5006290420ED0B0F1804F91
:104300000BD0A2F59832904207D002F5806290421D
:1043100003D002F58062904203D14A8823F07003F3
:104320001343154A904207D002F5806290421EBFA7
:10433000CA8823F44073134303808B8883850B88DA
:1043400003850C4B98420FD003F5006398420BD0C5
:1043500003F54063984207D003F58063984203D089
:1043600003F58063984201D10B7A0386012383828F
:10437000704700BF002C014000100040038819B1B5
:1043800043F001030380704723F00103FAE78389B8
:1043900012B119438181704723EA01038381704779
:1043A000C94301827047038A8289114214BF0120E8
:1043B0000020194200F0010008BF00207047C943E7
:1043C0000182704730B50446038ACA8823F44053FB
:1043D000134387B0038283898A8823F4B05323F080
:1043E0000C0313430A890D4613434A8913438381FF
:1043F000838A8A8923F440731343838201A8FFF7D9
:104400001DFFDDE9033214498C4208BF134619220F
:10441000A18953432A680D044CBF520092006421C5
:10442000B3FBF2F3B3FBF1F201FB1233A0890004FA
:104430004BBFDB001B01323332334BBFB3FBF1F315
:10444000B3FBF1F303F0070303F00F0343EA021297
:10445000228107B030BD00BF00380140838919B107
:1044600043F400538381704723F40053FAE7012398
:1044700010B5C1F34214012C01F01F0103FA01F33E
:1044800005D10C3042B102681343036010BD022C09
:104490000CBF10301430F5E7026822EA0303F4E79A
:1044A000C1F30801818070478088C0F3080070471D
:1044B0000388194214BF0120002070470123C1F373
:1044C000421210B5012A01F01F0403FA04F30FD1C0
:1044D000828992B2134001220088090A8A4080B280
:1044E0001040002B18BF002814BF0120002010BD71
:1044F000022A0CBF028A828AEBE7000008B5024854
:1045000001F070FF002008BDBAB5000838B50546B7
:104510000468AC4200D138BD08210648A4F1140259
:1045200001F060FF2368AB4202D0034801F05AFF5C
:104530002468EEE7C2B5000837AE000808B501F000
:104540006BFF002008BDF8B50026CB6804460D4679
:104550000E6193B10B7A83B10F6808B93C4601260E
:10456000FBF75EFE024656B914F8043C297A23F0A4
:1045700080038B4203D0FBF757FE0020F8BD0026D6
:104580006B682468A7420BD0E9680136B14243F852
:10459000044BF6D11046FBF747FE20462E61EDE7AF
:1045A0000024F7E710B50824024801F01BFF013C86
:1045B000FAD110BDC7B500082DE9F0470A2090B028
:1045C00002F0B4F90821002604302D4A03900DF1C1
:1045D00020092C480691CDF8109001F003FFFFF759
:1045E000E1FF294801F0FEFE0A273446204603A9D0
:1045F0008DF814700796FFF7A6FFCA4604464FF0E1
:1046000000089DF81470079EB0450BDB002CEDD11F
:1046100000F074FF01461D4801F0E4FE204610B092
:10462000BDE8F0875AF8045BFBF7FAFD15F8043C87
:1046300023F08003BB4204D0FBF7F6FD08F101082C
:10464000E2E7FBF7F1FD0822EB6911460193AB6944
:104650000F480093A5F10C0301F0C4FE15F8033CCC
:10466000DA074CBF0B480C4801F0BCFE15F8033CC0
:104670009B074CBF09480A4801F0B4FEDEE700BFC3
:104680001FAD0008C9B50008FAB500086CB60008EF
:1046900028B600083EB600084BB6000858B6000819
:1046A00062B600082DE9F04F0120B3B002F03EF9E8
:1046B000082100270430414A07900DF1300A404894
:1046C0000A91CDF820A001F08DFEFFF76BFF3D4869
:1046D00001F088FE4FF001083E46304607A98DF8EC
:1046E00024800B97FFF72FFFD34606464FF00009B3
:1046F0009DF824800B9FB94505DB002EEDD1304697
:1047000033B0BDE8F08F5BF8045BFBF789FD15F86B
:10471000043C044623F08003434504D0FBF784FDAA
:1047200009F10109E7E7A5F10C031946782214A85D
:10473000039301F013FC2046FBF776FD95F8292042
:10474000039B009208222048114601F04BFE95F889
:10475000283003F00703042B07D8DFE803F0290310
:10476000272D2B00194801F03DFEEC6923461A78ED
:104770001846232A03F10103F9D064232A6A296920
:104780001444611A241A5C43B4FBF2F3686ACDE95D
:1047900003326C6B059101F0A5FBDDE90332CDE935
:1047A000004005990A4801F01DFEB9E70948DAE71B
:1047B0000948D8E70948D6E70948D4E781B6000890
:1047C00088B60008CCB6000809B7000815B700087D
:1047D00042B700081EB7000827B7000830B7000826
:1047E00039B700082DE9F04F052093B002F09EF88C
:1047F000082100250430324A05900DF1280931487E
:104800000891CDF8189001F0EDFDFFF7CBFE2E4892
:1048100001F0E8FD05272C46204605A98DF81C70FF
:104820000995FFF790FECA4604464FF000089DF830
:104830001C70099D454505DC002CEDD1204613B0C8
:10484000BDE8F08F5AF804BBFBF7EAFC1BF8043C08
:1048500023F08003BB4204D0FBF7E6FC08F101081B
:10486000E8E7FBF7E1FCDBF808200BF108069642CD
:10487000BBF816004FF00002BBF814C0ABF10C03FC
:1048800014D0314609688E420ED1CDE901C208220A
:10489000009011460D4801F0A5FD3046FFF736FEA9
:1048A0000B4801F09FFDD9E70132EBE7CDE901C2EA
:1048B000082200901146074801F094FDCEE700BFA2
:1048C00068B7000870B7000891B70008ADB70008D6
:1048D000DCAF0008C3B700082DE9F04F032093B008
:1048E00002F024F84FF00808002604304146284A18
:1048F00005900DF1280A2748CDF818A0CDF82080A2
:1049000001F070FDFFF74EFE234801F06BFD032719
:104910003546284605A98DF81C700996FFF713FE49
:10492000D34605464FF000099DF81C70099EB1451D
:1049300005DB002DEDD1284613B0BDE8F08F5BF804
:10494000044BFBF76DFC14F8043C23F08003BB42DE
:1049500004D0FBF769FC09F10109E8E7FBF764FC07
:10496000606994F813C0A4F10C03083421460022B6
:1049700009688C4209D1CDE902C20822CDE9008044
:104980001146064801F02EFDE5E70132F0E700BFD1
:10499000D4AB0008D9B70008FDB700081CB8000860
:1049A0002DE9F04F022091B001F0C0FF0821002551
:1049B0000430304A03900DF120092F480691CDF8BC
:1049C000109001F00FFDFFF7EDFD2C4801F00AFDFE
:1049D00002272C46204603A98DF814700795FFF78F
:1049E000B2FDCA4604464FF000089DF81470079DBA
:1049F000454505DC002CEDD1204611B0BDE8F08F17
:104A00005AF804BBFBF70CFC1BF8043C23F08003B2
:104A1000BB4204D0FBF708FC08F10108E8E7FBF70C
:104A200003FCDBF808200BF108069642BBF81000E7
:104A30004FF00002ABF10C0313D0314609688E42EF
:104A40000DD1CDE9000208220D48114601F0CAFC43
:104A50003046FFF75BFD0B4801F0C4FCDCE7013298
:104A6000ECE7CDE9000208220748114601F0BAFC44
:104A7000D2E700BF33B800083DB8000857B80008B7
:104A80006CB80008DCAF00087CB80008022810B53C
:104A90002DD14C6821492046FCF71CFC18B9BDE813
:104AA0001040FFF7FFBD20461D49FCF713FC18B965
:104AB000BDE81040FFF780BD20461A49FCF70AFC0C
:104AC00018B9BDE81040FFF76BBF20461649FCF748
:104AD00001FC18B9BDE81040FFF7FEBE204613499F
:104AE000FCF7F8FB18B9BDE81040FFF77BBE104893
:104AF00001F078FC0F4801F075FC0F4801F072FCE2
:104B00000E4801F06FFC0E4801F06CFC0D4801F0FE
:104B100069FC0D4801F066FC002010BD81B600085C
:104B20001FAD00088CB80008D4AB000868B70008B7
:104B300090B80008A7B80008B3B80008CEB80008BD
:104B4000E7B8000802B900081BB9000838B50A48E0
:104B500001F048FC094B0A4D1C682B68A34204D89D
:104B6000084801F03FFC002038BD6268064854F850
:104B70000C1B01F037FCF0E738B900083C4300207B
:104B800038430020DCAF000853B9000808B5FFF730
:104B900089FD002008BD00001FB5002403AA02A95A
:104BA00001A8CDE90144039401F002FD01990A48EE
:104BB00001F018FC0299094801F014FC0399084817
:104BC00001F010FCDDE901130648C91A01F00AFCE6
:104BD000204604B010BD00BF5FB900086EB90008E0
:104BE0007DB900088CB900082DE9F0470D468146D3
:104BF00088B0002D00F0A38099F80030C846202B23
:104C000029D0092B27D0002619F80630202B28D0D0
:104C1000092B26D0B54222D14A4B1F684A4BD3F804
:104C200000A057451FD23C6832464946204603F053
:104C300090FE38BBA45D2CBBBE68A6B120222146E5
:104C4000684601F05DF96F4669464A4623462046AC
:104C5000A64614461BE009F10109013DC9E70136EA
:104C6000D2E7002ED8D14A46137809F1010913F092
:104C7000DF03F8D141463548137001F0B3FB4FF024
:104C8000FF3028E00C37CCE704F801EB013394F84F
:104C900000C02246BCF1200F02D0BCF1090F06D1A2
:104CA0009D42F1D8082804D00028DCD011E0082863
:104CB00014D1274801F096FB002457F8041B25481F
:104CC000013401F08FFB082CF7D1234801F08AFB57
:104CD00020466946B04708B0BDE8F0879D42E3D959
:104CE000BCF1220F00F101001BD1621C01330A60EC
:104CF0001478222C0BD09D42EBD95C2C04D1547833
:104D0000222C04BF0132013301320133F0E79D420E
:104D1000DFD901339D4282F800E0DAD90132043153
:104D200097E70C601478202C06D0092C04D09D4203
:104D3000CFD001320133F5E79D42F0D8C9E72846CC
:104D4000C9E700BF3C43002038430020BDB900083C
:104D50009BB90008B9B90008DCAF00082DE9F84399
:104D60000178074621B9BDE8F8430846FFF7EEBED3
:104D700000252C461E4BDFF87C90D3F80080D9F834
:104D80000030434507D88DB3224629463846BDE852
:104D9000F84301F042B93846FCF7A6FAD8F80060AB
:104DA00002463146384603F0D4FD98B924B930465E
:104DB000FCF79AFA354604462B4606F1FF3C187874
:104DC0001A4650B9521B944231460B48A8BF1446AC
:104DD00001F008FB08F10C08D1E71CF8011F0029BD
:104DE000F0D0884203F10103E9D0EBE7BDE8F88396
:104DF0003C430020384300205BB9000808B50E4B47
:104E00001B6893F8213013F0020303D10B4A13708F
:104E10000A4808BD0A4B196849B14FF48072074827
:104E200003F0A9FD0749054803F084FDF0E70649B2
:104E3000024803F006FEF5E7344300202C42002030
:104E400030430020EDAD0008D5B9000870B5A54C81
:104E5000226892F8213043F0010382F82130FFF7F5
:104E6000CDFF01F0BFFAFDF769FD1B280546236859
:104E700003D1012283F82020F5E793F82020012AAE
:104E80002AD15B2801D10222F4E7002283F82020F6
:104E90000D2D52D80D2D54D801A252F825F000BF87
:104EA000674E0008434F0008434F0008434F000877
:104EB000434F0008434F0008434F0008434F00088A
:104EC000B54F0008B14F000835500008434F0008A7
:104ED000434F000835500008022AD9D10022432848
:104EE00083F8202018D007D8A0F14102D2B2012ABD
:104EF000B9D90D28CED924E044281ED1B3F8763094
:104F0000002BB0D0784801F06DFA2268B2F8763004
:104F1000013BA2F87630A6E7B3F87620B3F8741018
:104F20009142A0D91A4492F82210704801F05AFA1E
:104F30002268B2F876300133EBE77F2D3AD0FF2DAF
:104F400091D0B3F874604F2E40F28F800021A3F807
:104F50007410194481F8225093F82130DB0740F196
:104F6000AA802946614801F03DFAA4E05E4801F0BC
:104F700039FA01362568B5F87630B342F6DC5C487C
:104F800001F030FA05F12200FFF7E8FEFFF736FFE7
:104F900005F122020146574801F024FA256805F17F
:104FA0002200FCF7A1F9A5F87400A5F876005AE7ED
:104FB0000026DFE7B3F8761000293FF454AFB3F8CA
:104FC00074504A1E013DADB292B29542A3F874509E
:104FD000A3F8762023D902F122002231AA1A19441B
:104FE000184401F001F8002123684348B3F8742005
:104FF0001A4482F82210B3F876102231194401F0D5
:10500000F1F92368B3F876502368B3F87430AB42F3
:10501000FFF629AF344801F0E5F90135F4E73748E8
:1050200001F0E0F92368B3F874201344002283F8F8
:10503000222018E793F82130D90702D52C4801F037
:10504000D1F92068B0F874102230FFF7CDFDFFF7DA
:10505000D5FE01F0C7F9206851220021223000F06E
:105060004FFF002223685A67FDE6B3F876203146E9
:1050700096427FF66EAF02F1220102F1230019443D
:10508000B21A184400F0B0FF2168B1F87630CA189F
:1050900082F8225091F82120D20704D522331848F3
:1050A000194401F09FF92368B3F876502368B3F8E8
:1050B0007430AB4211DC2268B2F87430B2F876106A
:1050C00001339BB201314F2BA2F87430A2F8761055
:1050D0007FF6C9AE00235367C5E6034801F082F9A5
:1050E0000135E3E734430020EBB90008DAB90008E2
:1050F000DCAF0008DDB90008E2B90008E9B9000832
:1051000047AE000838B5084C0546236823B99022FD
:105110000649074801F0C0F9236893F8212065F398
:10512000410283F8212038BD3443002084C900089F
:10513000EDB9000837B5184B184A78211A60184B9A
:10514000184A01201A6001F015FA174D286030B98D
:10515000164801F047F94FF0FF3003B030BD14237B
:105160000A221349CDE9003212484FF400630022AD
:1051700001F048FF002304461A460F49286800F052
:10518000EDFA0120FFF7BEFF0CB90020E5E720464D
:1051900002F066F8F9E700BF3C4300202401000854
:1051A000384300202002000834430020FEB90008E4
:1051B0004D4E000813BA00081ABA0008043222F053
:1051C000070270B50546A2F140000446094E44F8B6
:1051D000046BA242FBD142E9033542F8201C4FF098
:1051E0008073002142F8043C42E9071142E90511AD
:1051F00070BD00BFEFBEADDE924B10B51B6804461C
:105200001BB19847002800F01B81216C8E4801F0EB
:10521000E9F8616A8D4801F0E5F8A16A8C4801F06F
:10522000E1F8E16A8B4801F0DDF8216B8A4801F072
:10523000D9F86168894801F0D5F8A168884801F07B
:10524000D1F8E168874801F0CDF82169864801F07E
:10525000C9F86169854801F0C5F8A169844801F081
:10526000C1F8E169834801F0BDF8216A824801F084
:10527000B9F8616B814801F0B5F8A16B804801F085
:10528000B1F8E16B7F4801F0ADF823685A0740F1AF
:10529000CB8001F06FFE01467B4801F0A3F8FFF7D9
:1052A00001FA4FF0E024D4F82C3D9B0702D5774853
:1052B00001F098F8D4F82C3D5C0040F1AB80744CC0
:1052C00094F82930002B39D0724801F08BF894F80B
:1052D0002910714801F086F894F82930D80702D5D2
:1052E0006E4801F07FF86A4C94F82930990702D58E
:1052F0006B4801F077F894F829305A0702D56948CD
:1053000001F070F8624C94F829301B0702D566480A
:1053100001F068F894F82930D80602D5634801F006
:1053200061F85B4B93F82930190640F181804FF00A
:10533000E0235F48D3F8381D01F054F8544C94F83A
:10534000283083B35B4801F04DF894F828105A4890
:1053500001F048F894F82830DA0702D5574801F0F0
:1053600041F84B4C94F828309B0702D5544801F083
:1053700039F894F828301C0702D5524801F032F869
:10538000434C94F82830D80602D54F4801F02AF84B
:1053900094F8283019064FD54FF0E0234B48D3F846
:1053A000341D01F01FF83A4C638D9BB2002B31D0B5
:1053B000474801F017F8618D464889B201F012F8AC
:1053C000638DDA0702D5444801F00CF8304C638D48
:1053D0009B0702D5414801F005F8638D580702D5B7
:1053E0003F4800F0FFFF2A4C638D190702D53D4866
:1053F00000F0F8FF638DDA0502D53B4800F0F2FFBC
:10540000234B5B8D9B0502D5384800F0EBFF3848F5
:1054100000F0E8FF4FF0E023D3F82C3D002B02DA38
:10542000344800F0DFFFFEE7334800F0DBFF38E7E9
:105430002F4800F0D7FF81E72D4800F0D3FFB2E7F7
:1054400010BD00BF404300201FBA00082CBA00085E
:1054500039BA000846BA000853BA000860BA000812
:105460006DBA00087ABA000887BA000894BA000832
:10547000A1BA0008AEBA0008BBBA0008C8BA000852
:10548000D5BA0008E2BA0008EFBA000826BB000847
:1054900000ED00E03BBB000847BB00085DBB000817
:1054A00068BB000866BB0008C1BB0008CCBB000895
:1054B00073BB000883BB000896BB0008ACBB0008A8
:1054C000B6BB0008C0BB0008CBBB0008D4BB0008BB
:1054D000E4BB0008F2BB000808BC000814BC0008CC
:1054E0001EBC000825BC00082BBC000836BC000808
:1054F000DCAF000841BC00080CBB0008014B186879
:10550000704700BF5043002010B5FAF789FE104ADB
:10551000044613680133136001F02CFD036C013B5A
:10552000036483B9C36B036490F8343043F0080319
:1055300080F834302046FAF777FE01F0A9FBBDE889
:10554000104002F0B9B82046FAF76EFEF7E700BF48
:105550005043002040EAE070704700207047002070
:1055600070470020704700207047000038B5044C99
:10557000044DAC4200D338BD54F8043B9847F8E7DB
:10558000100100081801000838B5044C044DAC4265
:1055900000D338BD54F8043B9847F8E718010008D9
:1055A0002001000808B5FFF7EFFFBDE80840FDF750
:1055B000EBB900000A23142213B50B49CDE90032E0
:1055C0000A484FF48063002201F01CFD044620B914
:1055D000D5220749074800F05FFF204602B0BDE82A
:1055E000104001F03DBE00BFA55500084EBC0008AC
:1055F0009AC9000853BC000808B5FAF711FEFDF778
:105600006CF900F009FF02F01DF901F099FAFFF7BB
:10561000D1FF02F01DF900F04BF801F01BFB002058
:1056200008BDFFF7E9BF0000044B00F11402196840
:105630001A604A6041618361704700BF9801002091
:1056400038B50A4B1C689C420DD02546FAF7E8FD98
:1056500055F81429636853601A60C4E90044FAF7E6
:10566000E3FD284638BD0025FBE700BF9801002078
:1056700008B5FFF7E5FF04460028FAD0056F01F0F2
:105680003BFA0128064607D1204601F0A3F9002D78
:10569000EFD02046A84701E0002DFAD1002EE8D136
:1056A000A06A00F075FF204601F0FAF9E1E700007A
:1056B0007FB500220B4904A800F086FE1F2320229C
:1056C000CDE902324FF480730193074B074A0093F0
:1056D00004A90023064801F01BFC054801F0C0FDA9
:1056E00007B000BD62BC000854430020715600089A
:1056F00054440020143801F079BD000070B51646FE
:10570000054608460C4601F0E3FC5EB1012E06D0CA
:10571000BDE87040A4220F490F4800F0BDBE2B68C1
:105720009D4207D16A6804F114031360A2616B60A3
:1057300065610CE094F8351093F82120914207D26E
:10574000596804F114020A60A1615A60636170BD76
:105750001B68E5E7FAC900083BC10008F8B5044634
:105760000F4616461D4628B940F22D121049114821
:1057700000F092FEB6F5803F05D34FF497720C49C6
:105780000D4800F089FE012D05D940F22F1208497D
:105790000A4800F081FE20463A46022101F0D8F87E
:1057A00004F1140365720020C4E90533A683F8BD33
:1057B00026CA00086ABC000879BC00088ABC000838
:1057C000B1F5803FF8B506460D46144605D34FF4B3
:1057D000C5721549154800F05FFE012C05D940F24D
:1057E0008B121149124800F057FEFAF719FD0746CF
:1057F00000F0A6FA48B10C490E4800F0F3FD40F263
:105800008D1209490C4800F047FE3846FAF70CFDA6
:105810003146022001F0FCF828B100F11403C0E980
:10582000053385834472F8BD18CA000879BC0008A6
:105830008ABC000837BD00083BC100082DE9F341D0
:105840000446019128B94FF4F5723D493D4800F0F6
:1058500023FE204601F062F9022805D040F2EB1247
:105860003749394800F018FEFAF7DAFCA38B0746EF
:105870003BB1013BA383FAF7D7FC002002B0BDE89F
:10588000F081019B23B9FAF7CFFC6FF00100F5E737
:10589000FAF7C6FC054601F099FA48B128492B48A9
:1058A00000F0A0FD40F20B222549294800F0F4FD4C
:1058B000FAF7B6FC064601F05DFB48B920492548D9
:1058C00000F090FD40F20B221D49214800F0E4FD5C
:1058D000FAF7A6FC804600F033FA48B118491E4892
:1058E00000F080FD40F20B221549194800F0D4FD6C
:1058F0004046FAF799FC3046FAF796FC2846FAF744
:1059000093FC002601F036FB066301460546627AE9
:1059100004F11400FFF7F2FE019BB34209DD3146AA
:1059200001AA05F1440001F079FE05F1440001F0FF
:10593000D5FD3846FAF778FC01F0AAF9286B9DE707
:105940000CCA00086ABC0008C3BC00085EBD0008A1
:105950003BC1000888BD000837BD000838B50446C3
:1059600028B94FF419721949194800F095FD2046DD
:1059700001F0D4F8022805D040F2652213491548F9
:1059800000F08AFDFAF74CFC234653F8142F054625
:105990009A4209D01046FFF7ADFE01242846FAF7D7
:1059A00043FC7CB900200CE04FF6FF72A38B9342BE
:1059B00003D00133A3830024F0E7FAF735FC6FF03E
:1059C000020038BD01F064F9ECE700BFEBC9000844
:1059D0006ABC0008C3BC000838B504460D4628B9A7
:1059E00040F2EB2209490A4800F056FD20462A46BB
:1059F000032100F0ADFF002004F11403C4E90533D6
:105A0000044BC4E907300123637238BDDDC90008C7
:105A1000BFBD00080100FF0038B50446FAF700FCDE
:105A2000054600F08DF948B10E490F4800F0DAFC48
:105A300040F23D320B490D4800F02EFD2846FAF7A2
:105A4000F3FB2146032000F0E3FF48B100F114030B
:105A5000C0E905330023064AC0E907230123437246
:105A600038BD00BFCDC9000837BD00083BC10008E4
:105A70000100FF00F7B504460191FAF7D1FB054696
:105A800001F0A4F948B14E494E4800F0ABFC40F299
:105A900099324B494C4800F0FFFCFAF7C1FB06462F
:105AA00001F068FA48B94649484800F09BFC40F2CA
:105AB00099324349444800F0EFFCFAF7B1FB07463E
:105AC00000F03EF948B13E49414800F08BFC40F2FD
