:020000040800F2
:10000000005000203D44000883440008D10200084D
:100010008544000887440008894400080000000067
:100020000000000000000000000000008144000803
:100030008B440008000000004F02000881440008C3
:10004000814400088144000881440008814400087C
:10005000814400088144000881440008814400086C
:10006000814400088144000881440008814400085C
:10007000814400088144000881440008814400084C
:10008000814400088144000881440008893D00083B
:10009000813D0008853D00088D3D00088144000831
:1000A000814400088144000881440008814400081C
:1000B00081440008ED3D00088144000881440008A7
:1000C00081440008814400088144000881440008FC
:1000D0008144000815430008814400088144000859
:1000E0002D2F000881440008814400080000000012
:1000F0000000000000000000000000000000000000
:0C01000000000000000000005FF808F1A3
:10010C002F60000833600008892A00083760000857
:08011C00095C00083B600008CB
:10012400AFB0000897B00008AD140008DEB00008B6
:10013400CCB000086F29000800B10008EFB0000837
:10014400692900081CB1000810B1000875290008CD
:100154003CB100082EB100085D2900085DB100081B
:1001640050B10008512900087AB1000870B10008A4
:100174004529000893B100088AB10008392900080C
:10018400ACB10008A2B100082D290008C5B10008CF
:10019400BCB1000821290008F5B10008E8B1000845
:1001A400615500080FB20008FAB100088D5000082C
:1001B40032B200081AB20008B952000854B200085A
:1001C4003FB20008AD53000878B200085FB20008DF
:1001D400755400088DB2000881B2000879510008F6
:1001E400BCB2000899B2000811500008DEB2000841
:1001F400C4B20008D14F000809B30008E4B20008F3
:100204006D5600082AB300080EB3000861560008B2
:0C02140043B300082DB300082156000879
:10022000EFF3108072B6704780F310887047374A3A
:100230001368012B04D04FF001031360344A10609F
:10024000344A116034484FF0805101607047EFF339
:10025000108272B62D48016891B14FF00001016023
:100260002B48016829B1EFF3098121E9F00F0068FB
:100270000160284909680968B1E8F00F81F309882D
:1002800082F310884EF0040E70472249086020491E
:100290004FF0000008601D494FF0010008601F4842
:1002A0001F49D0F8002041EA020101601A484FF0CE
:1002B000805101601B480068006800BF80F3088817
:1002C00061B662B6BFF34F8FBFF36F8F704700BF49
:1002D000EFF308801EF0040F01D0EFF3098020E94E
:1002E000F00F40F804ED1EF0040F02D080F30988EF
:1002F00001E080F3088800B505F0E8FC5DF804EB48
:100300004EF0040E7047EFF30580704794430020D1
:100310009C4300209843002004ED00E020ED00E025
:100320000000FFFF08ED00E081F0004102E000BFA7
:1003300083F0004330B54FEA41044FEA430594EAA5
:10034000050F08BF90EA020F1FBF54EA000C55EAE0
:10035000020C7FEA645C7FEA655C00F0E2804FEAB1
:100360005454D4EB5555B8BF6D420CDD2C4480EA93
:10037000020281EA030382EA000083EA010180EAC3
:10038000020281EA0303362D88BF30BD11F0004F11
:100390004FEA01314FF4801C4CEA113102D0404247
:1003A00061EB410113F0004F4FEA03334CEA133382
:1003B00002D0524263EB430394EA050F00F0A7809A
:1003C000A4F10104D5F1200E0DDB02FA0EFC22FA95
:1003D00005F2801841F1000103FA0EF2801843FA89
:1003E00005F359410EE0A5F120050EF1200E012A7A
:1003F00003FA0EFC28BF4CF0020C43FA05F3C018B8
:1004000051EBE37101F0004507D54FF0000EDCF130
:10041000000C7EEB00006EEB0101B1F5801F1BD3D9
:10042000B1F5001F0CD349085FEA30004FEA3C0CDD
:1004300004F101044FEA445212F5800F80F09A80D3
:10044000BCF1004F08BF5FEA500C50F1000041EBD7
:10045000045141EA050130BD5FEA4C0C404141EBDB
:100460000101013C28BFB1F5801FE9D291F0000FD6
:1004700004BF01460020B1FA81F308BF2033A3F185
:100480000B03B3F120020CDA0C3208DD02F1140C7C
:10049000C2F10C0201FA0CF021FA02F10CE002F1B7
:1004A0001402D8BFC2F1200C01FA02F120FA0CFCB0
:1004B000DCBF41EA0C019040E41AA2BF01EB0451F9
:1004C000294330BD6FEA04041F3C1CDA0C340EDCF7
:1004D00004F11404C4F1200220FA04F001FA02F33A
:1004E00040EA030021FA04F345EA030130BDC4F1F8
:1004F0000C04C4F1200220FA02F001FA04F340EAED
:100500000300294630BD21FA04F0294630BD94F09D
:10051000000F83F4801306BF81F480110134013D84
:100520004EE77FEA645C18BF7FEA655C29D094EAF5
:10053000050F08BF90EA020F05D054EA000C04BF73
:100540001946104630BD91EA030F1EBF002100205E
:1005500030BD5FEA545C05D14000494128BF41F0FD
:10056000004130BD14F580043CBF01F5801130BD61
:1005700001F0004545F0FE4141F470014FF00000EC
:1005800030BD7FEA645C1ABF194610467FEA655C9D
:100590001CBF0B46024650EA013406BF52EA03353F
:1005A00091EA030F41F4002130BD00BF90F0000F2D
:1005B00004BF0021704730B54FF4806404F1320469
:1005C0004FF000054FF0000150E700BF90F0000F22
:1005D00004BF0021704730B54FF4806404F1320449
:1005E00010F0004548BF40424FF000013EE700BF19
:1005F00042004FEAE2014FEA31014FEA02701FBFA9
:1006000012F07F4393F07F4F81F06051704732F0DA
:100610007F4208BF704793F07F4F04BF41F4002131
:10062000704730B54FF4607401F0004521F000418F
:100630001CE700BF50EA010208BF704730B54FF019
:1006400000050AE050EA010208BF704730B511F01A
:10065000004502D5404261EB41014FF4806404F152
:1006600032045FEA915C3FF4D8AE4FF003025FEAD8
:10067000DC0C18BF03325FEADC0C18BF033202EB5C
:10068000DC02C2F1200300FA03FC20FA02F001FAB6
:1006900003FE40EA0E0021FA02F11444BDE600BF59
:1006A00070B54FF0FF0C4CF4E06C1CEA11541DBF08
:1006B0001CEA135594EA0C0F95EA0C0F00F0DEF8D3
:1006C0002C4481EA030621EA4C5123EA4C5350EAB8
:1006D000013518BF52EA033541F4801143F4801309
:1006E00038D0A0FB02CE4FF00005E1FB02E506F09A
:1006F0000042E0FB03E54FF00006E1FB03569CF0EF
:10070000000F18BF4EF0010EA4F1FF04B6F5007FF4
:1007100064F5407404D25FEA4E0E6D4146EB060666
:1007200042EAC62141EA55514FEAC52040EA5E50EF
:100730004FEACE2EB4F1FD0C88BFBCF5E06F1ED899
:10074000BEF1004F08BF5FEA500E50F1000041EBD0
:10075000045170BD06F0004646EA010140EA02007D
:1007600081EA0301B4EB5C04C2BFD4EB0C0541EA9F
:10077000045170BD41F480114FF0000E013C00F3B4
:10078000AB8014F1360FDEBF002001F0004170BDD8
:10079000C4F10004203C35DA0C341BDC04F11404F1
:1007A000C4F1200500FA05F320FA04F001FA05F27D
:1007B00040EA020001F0004221F0004110EBD3704A
:1007C00021FA04F642EB06015EEA430E08BF20EA76
:1007D000D37070BDC4F10C04C4F1200500FA04F319
:1007E00020FA05F001FA04F240EA020001F00041AB
:1007F00010EBD37041F100015EEA430E08BF20EA1E
:10080000D37070BDC4F1200500FA05F24EEA020E65
:1008100020FA04F301FA05F243EA020321FA04F094
:1008200001F0004121FA04F220EA020000EBD3704B
:100830005EEA430E08BF20EAD37070BD94F0000F4B
:100840000FD101F00046400041EB010111F4801F7F
:1008500008BF013CF7D041EA060195F0000F18BF30
:10086000704703F00046520043EB030313F4801F6C
:1008700008BF013DF7D043EA0603704794EA0C0F26
:100880000CEA135518BF95EA0C0F0CD050EA41063C
:1008900018BF52EA4306D1D181EA030101F00041B9
:1008A0004FF0000070BD50EA410606BF10461946E1
:1008B00052EA430619D094EA0C0F02D150EA0136ED
:1008C00013D195EA0C0F05D152EA03361CBF10462E
:1008D00019460AD181EA030101F0004141F0FE41CD
:1008E00041F470014FF0000070BD41F0FE4141F451
:1008F000780170BD70B54FF0FF0C4CF4E06C1CEA51
:1009000011541DBF1CEA135594EA0C0F95EA0C0F05
:1009100000F0A7F8A4EB050481EA030E52EA0335C0
:100920004FEA013100F088804FEA03334FF08055E1
:1009300045EA131343EA12634FEA022245EA11150E
:1009400045EA10654FEA00260EF000419D4208BFBF
:10095000964244F1FD0404F5407402D25B084FEA6C
:100960003202B61A65EB03055B084FEA32024FF418
:1009700080104FF4002CB6EB020E75EB030E22BF75
:10098000B61A754640EA0C005B084FEA3202B6EB35
:10099000020E75EB030E22BFB61A754640EA5C00E4
:1009A0005B084FEA3202B6EB020E75EB030E22BF74
:1009B000B61A754640EA9C005B084FEA3202B6EB75
:1009C000020E75EB030E22BFB61A754640EADC0034
:1009D00055EA060E18D04FEA051545EA16754FEA96
:1009E00006164FEAC30343EA52734FEAC2025FEAB4
:1009F0001C1CC0D111F4801F0BD141EA00014FF043
:100A000000004FF0004CB6E711F4801F04BF014313
:100A10000020B4F1FD0C88BFBCF5E06F3FF6AFAE2F
:100A2000B5EB030C04BFB6EB020C5FEA500C50F1BF
:100A3000000041EB045170BD0EF0004E4EEA113142
:100A400014EB5C04C2BFD4EB0C0541EA045170BD49
:100A500041F480114FF0000E013C90E645EA060E8D
:100A60008DE60CEA135594EA0C0F08BF95EA0C0FBB
:100A70003FF43BAF94EA0C0F0AD150EA01347FF403
:100A800034AF95EA0C0F7FF425AF104619462CE7DA
:100A900095EA0C0F06D152EA03353FF4FDAE10463D
:100AA000194622E750EA410618BF52EA43067FF48E
:100AB000C5AE50EA41047FF40DAF52EA43057FF41E
:100AC000EBAE12E74FF0FF3C06E000BF4FF0010C29
:100AD00002E000BF4FF0010C4DF804CD4FEA410C8D
:100AE0007FEA6C5C4FEA430C18BF7FEA6C5C1BD05A
:100AF00001B050EA410C0CBF52EA430C91EA030FDB
:100B000002BF90EA020F0020704710F1000F91EA37
:100B1000030F58BF994208BF90422CBFD8176FEA05
:100B2000E37040F0010070474FEA410C7FEA6C5CD3
:100B300002D150EA013C07D14FEA430C7FEA6C5CDA
:100B4000D6D152EA033CD3D05DF8040B704700BF06
:100B50008446104662468C461946634600E000BF54
:100B600001B5FFF7B7FF002848BF10F1000F01BD26
:100B70004DF808EDFFF7F4FF0CBF012000205DF8F1
:100B800008FB00BF4DF808EDFFF7EAFF34BF012076
:100B900000205DF808FB00BF4DF808EDFFF7E0FF0F
:100BA00094BF012000205DF808FB00BF4DF808ED60
:100BB000FFF7CEFF94BF012000205DF808FB00BFC7
:100BC0004DF808EDFFF7C4FF34BF012000205DF8A9
:100BD00008FB00BF4FEA410C7FEA6C5C02D150EA8F
:100BE000013C0AD14FEA430C7FEA6C5C02D152EA25
:100BF000033C02D14FF0000070474FF001007047F6
:100C00004FEA4102B2F1E04324BFB3F5001CDCF12E
:100C1000FE5C0DD901F0004C4FEAC0024CEA507066
:100C2000B2F1004F40EB830008BF20F00100704795
:100C300011F0804F21D113F13872BCBF01F0004098
:100C4000704741F480114FEA5252C2F11802C2F1CA
:100C5000200C10FA0CF320FA02F018BF40F001004B
:100C60004FEAC1234FEAD32303FA0CFC40EA0C00FD
:100C700023FA02F34FEA4303CCE77FEA625307D13A
:100C800050EA01331EBF4FF0FE4040F44000704771
:100C900001F0004040F0FE4040F40000704700BF0B
:100CA00080F0004002E000BF81F0004142001FBF21
:100CB0005FEA410392EA030F7FEA226C7FEA236C2A
:100CC0006AD04FEA1262D2EB1363C1BFD21841401F
:100CD00048404140B8BF5B42192B88BF704710F0B5
:100CE000004F40F4000020F07F4018BF404211F058
:100CF000004F41F4000121F07F4118BF494292EAC0
:100D0000030F3FD0A2F1010241FA03FC10EB0C00EB
:100D1000C3F1200301FA03F100F0004302D5494278
:100D200060EB4000B0F5000F13D3B0F1807F06D325
:100D300040084FEA310102F10102FE2A51D2B1F11D
:100D4000004F40EBC25008BF20F0010040EA030012
:100D50007047490040EB0000013A28BFB0F5000F92
:100D6000EDD2B0FA80FCACF1080CB2EB0C0200FA48
:100D70000CF0AABF00EBC25052421843BCBFD04097
:100D80001843704792F0000F81F4000106BF80F411
:100D900000000132013BB5E74FEA41037FEA226CD4
:100DA00018BF7FEA236C21D092EA030F04D092F09F
:100DB000000F08BF0846704790EA010F1CBF0020D3
:100DC000704712F07F4F04D1400028BF40F0004030
:100DD000704712F100723CBF00F50000704700F050
:100DE000004343F0FE4040F4000070477FEA226277
:100DF00016BF08467FEA23630146420206BF5FEA48
:100E0000412390EA010F40F4800070474FF0000347
:100E100004E000BF10F0004348BF40425FEA000C0E
:100E200008BF704743F0964301464FF000001CE0B6
:100E300050EA010208BF70474FF000030AE000BF0C
:100E400050EA010208BF704711F0004302D540424A
:100E500061EB41015FEA010C02BF844601460020BC
:100E600043F0B64308BFA3F18053A3F50003BCFAD7
:100E70008CF2083AA3EBC25310DB01FA02FC634484
:100E800000FA02FCC2F12002BCF1004F20FA02F28B
:100E900043EB020008BF20F00100704702F120027E
:100EA00001FA02FCC2F1200250EA4C0021FA02F2DF
:100EB00043EB020008BF20EADC7070474FF0FF0CE4
:100EC0001CEAD0521EBF1CEAD15392EA0C0F93EADF
:100ED0000C0F6FD01A4480EA010C400218BF5FEA81
:100EE00041211ED04FF0006343EA501043EA5111F4
:100EF000A0FB01310CF00040B1F5000F3EBF4900EE
:100F000041EAD3715B0040EA010062F17F02FD2AF1
:100F10001DD8B3F1004F40EBC25008BF20F00100D4
:100F2000704790F0000F0CF0004C08BF49024CEAEB
:100F3000502040EA51207F3AC2BFD2F1FF0340EA7D
:100F4000C250704740F400004FF00003013A5DDCEE
:100F500012F1190FDCBF00F000407047C2F100022F
:100F6000410021FA02F1C2F1200200FA02FC5FEA1C
:100F7000310040F1000053EA4C0308BF20EADC7066
:100F8000704792F0000F00F0004C02BF400010F4D8
:100F9000000F013AF9D040EA0C0093F0000F01F085
:100FA000004C02BF490011F4000F013BF9D041EAA7
:100FB0000C018FE70CEAD15392EA0C0F18BF93EAA9
:100FC0000C0F0AD030F0004C18BF31F0004CD8D1D3
:100FD00080EA010000F00040704790F0000F17BF5A
:100FE00090F0004F084691F0000F91F0004F14D0A0
:100FF00092EA0C0F01D142020FD193EA0C0F03D1F8
:101000004B0218BF084608D180EA010000F00040FA
:1010100040F0FE4040F40000704740F0FE4040F4D5
:10102000400070474FF0FF0C1CEAD0521EBF1CEA74
:10103000D15392EA0C0F93EA0C0F69D0A2EB030292
:1010400080EA010C49024FEA402037D04FF080532C
:1010500043EA111143EA10130CF000408B4238BFF1
:101060005B0042F17D024FF4000C8B4224BF5B1AFF
:1010700040EA0C00B3EB510F24BFA3EB510340EA4D
:101080005C00B3EB910F24BFA3EB910340EA9C00FB
:10109000B3EBD10F24BFA3EBD10340EADC001B016B
:1010A00018BF5FEA1C1CE0D1FD2A3FF650AF8B420F
:1010B00040EBC25008BF20F0010070470CF0004C1C
:1010C0004CEA50207F32C2BFD2F1FF0340EAC25047
:1010D000704740F400004FF00003013A37E792F008
:1010E000000F00F0004C02BF400010F4000F013A66
:1010F000F9D040EA0C0093F0000F01F0004C02BF61
:10110000490011F4000F013BF9D041EA0C0195E7C9
:101110000CEAD15392EA0C0F08D142027FF47DAF62
:1011200093EA0C0F7FF470AF084676E793EA0C0F52
:1011300004D14B023FF44CAF08466EE730F0004C50
:1011400018BF31F0004CCAD130F000427FF45CAFE0
:1011500031F000437FF43CAF5FE700BF4FF0FF3C4E
:1011600006E000BF4FF0010C02E000BF4FF0010CA1
:101170004DF804CD4FEA40024FEA41037FEA226C6A
:1011800018BF7FEA236C11D001B052EA530C18BF8C
:1011900090EA010F58BFB2EB030088BFC81738BFF1
:1011A0006FEAE17018BF40F0010070477FEA226CDF
:1011B00002D15FEA402C05D17FEA236CE4D15FEADB
:1011C000412CE1D05DF8040B704700BF844608460F
:1011D0006146FFE70FB5FFF7C9FF002848BF10F1D0
:1011E000000F0FBD4DF808EDFFF7F4FF0CBF012015
:1011F00000205DF808FB00BF4DF808EDFFF7EAFF9F
:1012000034BF012000205DF808FB00BF4DF808ED59
:10121000FFF7E0FF94BF012000205DF808FB00BF4E
:101220004DF808EDFFF7D2FF94BF012000205DF8D4
:1012300008FB00BF4DF808EDFFF7C8FF34BF0120E1
:1012400000205DF808FB00BF4FEA4002B2F1FE4FFC
:101250000FD34FF09E03B3EB12620DD94FEA002378
:1012600043F0004310F0004F23FA02F018BF404251
:1012700070474FF00000704712F1610F01D1420238
:1012800005D110F0004008BF6FF0004070474FF0EC
:101290000000704742000ED2B2F1FE4F0BD34FF068
:1012A0009E03B3EB126209D44FEA002343F00043DC
:1012B00023FA02F070474FF00000704712F1610FFF
:1012C00001D1420202D14FF0FF3070474FF00000D1
:1012D000704700BF10F8012B11F8013B012A28BF0D
:1012E0009A42F7D0D01A7047034613F8012B002A10
:1012F000FBD1181A013870470548064B1B1AD90F45
:1013000001EBA301491002D0034B03B1184770470A
:1013100054020020540200200000000008B5054BD4
:101320001BB105490548AFF30080BDE80840FFF751
:10133000E3BF00BF000000005802002060B80008B2
:1013400010B5044678B1084A92F84C0058B1074BE2
:1013500093F8300038B15268D86805492260FFF729
:10136000ADFD6060012010BD8C020020CC0000208B
:101370000000C8422DE9F04F87B090B340F223122D
:101380000368934234D0B3F50D7F2AD10023CDE911
:101390000033334B33491E683046FFF78FFD002181
:1013A00005463046FFF73CFF4FF07C51E0B9284638
:1013B000FFF77AFCFFF748FF01238DF801000012C8
:1013C0008DF800308DF80200032340F232408DF892
:1013D0000C30029002A9CDF810D0ADF8140003F043
:1013E0002AF807B0BDE8F08F2846FFF75FFCE1E779
:1013F0001D4B00241D796F466B1E042B88BF0525ED
:101400004FF07C58CDE90044184B164953F834A0EE
:101410005046FFF753FD002181465046FFF700FF7D
:101420004146B0B14846FFF741FCFFF70DFF00B25F
:10143000002812DBFF28A8BFFF200134E3B29D4241
:1014400007F8010BE0D840F221308DF80C500290E3
:10145000C0E74846FFF728FCE7E70020EDE700BFBC
:101460008C02002000002041210100209802002071
:1014700070B504F0ADFD04464FF47A7004F0D4FD6D
:1014800006460A2004F0D0FD054602F0C4FF04F031
:101490009FFD001BB04204D302F0CBFF04F098FD87
:1014A0000446284606F0DEFDEFE70000012808B5F7
:1014B0000ADD486807F064FB80B2322838BF32206A
:1014C000024B1880002008BDC820F9E7000000206A
:1014D00010B501218CB0042003F05AFC0121082032
:1014E00003F056FC01210024084603F051FC0121C1
:1014F000264803F0C5FB264A2146D368254823F435
:10150000E0631B041B0C43F0BF6343F40033D36060
:10151000214B0393214B0493214B0593214B0693BD
:10152000214B0893214B0793214BCDE90943214BD4
:101530000B9304F0DBFF204B186020B91F4805F027
:1015400097FE0CB010BD162314221D49CDE90032C0
:101550001C484FF40073224606F09AFC1A4B1860A0
:1015600008B106F0C3FD02F045F902F04FFE03A8F2
:1015700001F066FF00F0D2FE01F0ACF800F070F967
:1015800000F0CCFD00F00EFBDBE700BF00023000F6
:1015900000ED00E05896000879270008C1270008F0
:1015A000312700080928000851280008532800089E
:1015B000010501011C0C68107402002062960008ED
:1015C000711400087F9600087002002038B5134D92
:1015D00004462B8883421CD2B5F8C83083421AD9FE
:1015E000034664220021284601F034F90A2183B21F
:1015F0005A1E35F8122035F81330A41A4C439B1AA2
:1016000094FBF3F4013800EB800004EB400080B25F
:1016100038BD0020FCE74FF47A70F9E702000020A3
:10162000864D2DE987488649E868FFF747FCFFF7B4
:1016300031FE80B2FFF7CAFFFFF7ECFB8049FFF7EE
:10164000F1FC804C4FF00008616AE060A162FFF796
:1016500035FC7B4FE062DFF8F091464699F80420B4
:10166000D5F80CB005EBC203D3F804A00023C4F8EE
:101670001CA0C4F820B0D9B28A4200F29D80104666
:10168000FFF7C8FB01463046FFF7CCFC5946206106
:101690005046FFF709FBA96860616868FFF70EFC18
:1016A000AB6CA061002B46D068492868FFF706FCA8
:1016B000FFF7CAFD664A00B2B2F900309842CCBFCB
:1016C000C31A1B1A092B36DDF928108000F381801C
:1016D00083B2A3F16402952A7DD9632B7DD903F1EE
:1016E000C80292B2BD2A7AD903F596739BB2632BD6
:1016F0008CBF06230523FA3858430A2390FBF3F0E6
:1017000040F2EE2300F57A7080B2984238BF184656
:1017100040F21A43984228BF1846FFF77BFB616AE4
:10172000FFF7CCFB3946FFF77DFC0146A062E0687D
:10173000FFF7C4FBE06299F80030042B18D141F2A6
:10174000883006F091FC3946E868FFF7B7FBFFF7F1
:10175000A1FD80B2FFF73AFFFEF738FF00223D4BB4
:10176000FFF7C8F8FFF74CFAA16AFFF7A7FBE062A2
:1017700099F80090A66AB9F1030F33D03946A868EA
:10178000FFF79CFBFFF760FDFFF744FB3946FFF7CF
:1017900049FC3149FFF746FCB9F1010F20F0004048
:1017A00039D1E16AFFF782FA31468146FFF72EFD13
:1017B000B8B1C4F82C9015E00192284A304652F88E
:1017C00033100093FFF772FA009B0646019A01332B
:1017D00051E701238FE702238DE703238BE70423DF
:1017E00089E7E6623146E06AFFF71CFC4FF07E5164
:1017F0000646FFF71FFDF0B14FF07E50114BD86049
:1018000094F8303013B9012384F830304FF47A70F3
:1018100006F028FC1FE7B9F1020FE3D10146E06AA8
:10182000FFF742FA41468146FFF7FAFC0028C0D193
:10183000C4F82C80D6E73046E0E700BF8C020020D9
:1018400000007A44CC00002021010020000020414B
:101850007802002000408F4000006145980200207F
:1018600007B5152319220E49CDE900320D484FF472
:101870008073002206F00CFB68B106F037FC0A48C2
:1018800005F0F6FC094805F0F3FC094803B05DF8E3
:1018900004EB05F0EDBC074805F0EAFC0648F2E76A
:1018A000211600088796000894960008A296000862
:1018B000579A0008D8960008E696000838B5012126
:1018C00047F6FF7001F09AF80023074A074D13709E
:1018D000074AC82093832B6004F0A6FB044604F05B
:1018E00077FB04442C6038BD840200208002002075
:1018F000000100202DE9FF48974CDFF860826378F3
:10190000DFF85C9288F80030A3784FF4FA7089F819
:10191000003006F0A9FBDFF84CB204F059FB924B03
:101920001B6898420AD99BF800303BB925788F4E46
:1019300005F0FD05012D3BD00023B3772578022D5E
:1019400000F0B480032D00F0C280012D12D1874B2E
:101950001968874BD868FFF763FC58B1284601F037
:1019600039F8844805F084FC834805F081FC8348FD
:1019700005F07EFC607898F80030834207D001289B
:1019800040F0DD8001F026F8637888F80030A07818
:1019900099F80030834207D0012840F0D68001F04A
:1019A00005F8A37889F80030C82006F05BFBB4E79F
:1019B000DFF8CCA1237931690AEBC3035868FFF73C
:1019C0001BFC0028B8D16A4B71695869FFF714FCF9
:1019D0000028B1D1DAF80C30B57701932279B78BB2
:1019E000AA422BD2002FA9D00021384601F006F8D8
:1019F000012360488BF8003005F03AFC614805F09F
:101A000037FC5E4805F034FC4FF47A70B3695E4DE4
:101A1000584304F009FB002105AA0590286806F048
:101A200043FD286806F0A0FC524805F021FC574809
:101A300005F01EFC514805F01BFC7FE7531B0133EA
:101A40000AEBC3030199586803920293FFF72CF93C
:101A50007169FFF7E5FB0028C4D0029B039A9968DF
:101A600009B9B80708D5013A481E8A4247FA00F07A
:101A700015D110F0010F0FD101238B403B433D489E
:101A80000291B38305F0F4FB02994148013105F05E
:101A9000EFFB3A4805F0ECFB0135EDB29EE74B1C3D
:101AA00047FA03F3034313F0010FE4E72F4B996860
:101AB0002F4BD868FFF7AAFB00283FF45BAF01204B
:101AC00000F074FF2B4805F0D3FB32484DE76378F4
:101AD000CBB9314BB3F844301B0714D1234B9D7F56
:101AE0008DB95968224BD868FFF786FB58B1284654
:101AF00000F070FF1F4805F0BBFB284805F0B8FB5D
:101B00001E4805F0B5FBA378002B7FF433AF224BC2
:101B1000B3F8440010F4F8757FF42CAF134BD96878
:101B2000134BD868FFF786FB00283FF423AF284605
:101B300000F03CFF0F4805F09BFB194815E72378A0
:101B4000042B7FF421AF00201CE72378042B7FF4C3
:101B500028AF002023E700BF210100207B020020E6
:101B60007A02002084020020800200200001002070
:101B7000CC0000200C97000863970008579A0008D3
:101B80008C020020299700087C020020439700085F
:101B9000199700086F9700082C0100207E97000815
:101BA0008B97000837B5162319221C49CDE900325E
:101BB0001B484FF40073002206F06AF90022054624
:101BC000C82318491848009206F09EFB174C206065
:101BD000CDB1284606F08AFA154805F049FB1548AC
:101BE00005F046FB144805F043FB236883B1104819
:101BF00005F03EFB114805F03BFB0F4803B0BDE884
:101C0000304005F035BB0E4805F032FB0D48E7E7E4
:101C10000B4805F02DFB0C48EDE700BFF518000858
:101C20009B970008BD180008A79700087C020020B9
:101C30000C970008B5970008579A00081C980008F0
:101C4000EA970008F79700085098000870B50C460E
:101C5000054611492046FFF731F900210646204686
:101C6000FFF7DEFAA0B14FF07C513046FFF71EF8C7
:101C7000FFF7EAFA0A2390FBF3F203FB1203002BAF
:101C80002846BDE870400549B8BF5B4207F000B880
:101C90004FF03F41E9E700BF000020417498000881
:101CA00070B50C46054611492046FFF707F900219B
:101CB00006462046FFF7B4FAA8B14FF07C513046F3
:101CC000FEF7F4FFFFF7C0FA4FF47A7390FBF3F2DC
:101CD00003FB1203002B2846BDE870400449B8BF3F
:101CE0005B4206F0D5BF4FF03F41E8E700007A4481
:101CF0007A98000800262DE9804897B0AA4C314612
:101D0000E068FFF76FFA8046002800F02B8101227F
:101D10004021A64802F0AFFF01228021A34802F033
:101D2000AAFF01224FF48071A04802F0A4FF012213
:101D30004FF400719D4802F09EFF9D4B1B78002BD5
:101D400000F00B819B4805F093FA9B4805F090FA50
:101D50009A4805F08DFADFF868829A4998F80030C1
:101D600006A8013BDBB2032B96BF974A974A52F86D
:101D7000232006F08DFF8F4805F07AFA06A99448D3
:101D800005F076FA8D4805F073FA924805F070FA7E
:101D9000A16A02A8FFF784FF02AA8F4906A806F0ED
:101DA00077FF844805F064FA06A9894805F060FACF
:101DB000824805F05DFAE16A02A8FFF771FF02AA06
:101DC000864906A806F064FF7A4805F051FA06A98C
:101DD0007F4805F04DFA794805F04AFA7D4805F04C
:101DE00047FAE0687E49FFF769F8014602A8FFF765
:101DF0002DFF02AA7B4906A806F04AFF6D4805F0B0
:101E000037FA06A9724805F033FA6C4805F030FA43
:101E1000E16902A8FFF744FF02AA734906A806F089
:101E200037FF644805F024FA06A9694805F020FA4E
:101E3000624805F01DFA216A02A8FFF731FF02AAE5
:101E40006A4906A806F024FF5A4805F011FA06A9C7
:101E50005F4805F00DFA594805F00AFA616902A8D1
:101E6000FFF71EFF02AA624906A806F011FF5148BB
:101E700005F0FEF906A9564805F0FAF94F4805F0B5
:101E8000F7F9216902A8FFF70BFF02AA594906A832
:101E900006F0FEFE474805F0EBF906A94C4805F0B0
:101EA000E7F9464805F0E4F9A16902A8FFF7F8FE52
:101EB00002AA514906A806F0EBFE3E4805F0D8F903
:101EC00006A9434805F0D4F94C4C3C4805F0D0F93C
:101ED000404805F0CDF9616802A8FFF7E1FE02AACB
:101EE000474906A806F0D4FE324805F0C1F906A914
:101EF000374805F0BDF9314805F0BAF9A16802A8E4
:101F0000FFF7CEFE02AA3F4906A806F0C1FE294807
:101F100005F0AEF906A92E4805F0AAF9274805F004
:101F2000A7F90027A36CFDB29D42C0F0B080002548
:101F3000DFF8D4A0354FDFF8D8B098F804305FFA56
:101F400085F94B4500F2BA801A4805F091F93148FD
:101F500005F08EF9194805F08BF940F6B83006F017
:101F600081F8CBE63146E068FFF764F900283FF4DA
:101F7000E4AE4FF07A51E068FFF748F907460028D1
:101F80004AD001224021094802F075FE0122802139
:101F9000064802F070FE01224FF48071034802F0FF
:101FA0006AFE4246C4E600BFCC000020000C01409F
:101FB000200100208D98000897980008579A000883
:101FC00021010020D7980008BCB0000882980008C2
:101FD000F6990008569A0008E89800080599000844
:101FE0000000C84224990008379900084E9900085B
:101FF0006599000887990008A29900088C020020C2
:10200000BB990008D19900080001002070A40008C5
:1020100088980008159A00084FF07C51E068FFF797
:10202000F5F8804688B101224021364802F023FEAF
:1020300001228021334802F01EFE3A464FF480719F
:10204000304802F018FE3A4672E64FF07D51E068E3
:10205000FFF7DCF8074658B101224021294802F079
:102060000AFE42468021274802F005FE424693E7D9
:102070004FF07E51E068FFF7C9F800283FF45DAEED
:102080003A4640211F4802F0F6FD3A46D1E754F89F
:10209000251002A8FFF7DAFD02AB6A1C1A4906A850
:1020A00006F0F6FD194805F0E3F806A9184805F012
:1020B000DFF81848013705F0DBF833E704EB890354
:1020C000596B02A8FFF7ECFD0123BAF81C1003FAC4
:1020D00009F319420CBF3B465B4609F101020E4968
:1020E000009306A802AB06F0D3FD084805F0C0F83F
:1020F00006A9074805F0BCF8064805F0B9F801350F
:102100001BE700BF000C0140E79900088D9800080C
:10211000F6990008579A0008F99900081FB5154B61
:10212000154803A9039302F04BFD4FF47071124858
:1021300002F09DFD142319221049CDE90032104808
:102140004FF48063002205F0A3FE68B105F0CEFFD6
:102150000C4805F08DF80C4805F08AF80B4805B0DE
:102160005DF804EB05F084B8094805F081F80948EA
:10217000F2E700BFC0030310000C0140F51C00088B
:10218000599A0008629A00086C9A0008579A000849
:102190009E9A0008A89A0008B0FA80F0014B400906
:1021A000187070472001002008B509680068FFF723
:1021B00041F8003818BF012008BD00002DE988480B
:1021C000464D474B474E1A8802F1FA0119804FF6E7
:1021D00005718A421AD8444A1278BAB100241C8088
:1021E00000F020FC3D4A414823468146144631799F
:1021F00002F1300C5FFA83FE714546D83C4B082251
:102200003C4800F06AFBD9F81C3063603A4A1388F6
:10221000FA339BB2B3F5FA6F138013D3374B1B78A5
:1022200083B1002427461480DFF8D4A000F00CFC12
:1022300096F805B0E2B2934531D839462748AF64E5
:1022400000F01FFB2F4A1388FA339BB2B3F57A7F55
:10225000138009D32C4B1B7833B10023138000F07B
:1022600003FC224B9B69AB602849A868FEF7E2FF9C
:1022700038B30223337095F84C3013B9012385F835
:102280004C30FA2005F0EEFE9BE750F804EB0832E4
:102290004CF804EF9360C2F804E00133AAE75AF85F
:1022A000049F1B494846FEF7BBFF40B14846194909
:1022B000FEF7ACFF18B17A1C45F82790D7B201346D
:1022C000B8E71549A868FEF797FF08B10123D1E7E1
:1022D0003378042BCFD00323CCE700BF8C0200203F
:1022E0008A0200202101002029010020EC3E00206C
:1022F000A92100089802002088020020280100205F
:10230000FC3E00208602002027010020CDCC4C3E60
:1023100000005CC20000FA42CDCC4CBE07B51323CE
:1023200019220E49CDE900320D484FF40073002206
:1023300005F0AEFD68B105F0D9FE0A4804F098FF3B
:10234000094804F095FF094803B05DF804EB04F078
:102350008FBF074804F08CFF0648F2E7BD21000854
:10236000D89A0008E49A0008F19A0008579A0008E1
:10237000269B0008339B000880B5A14EA14C96F81F
:102380000080B8F1010F38D0B8F1020F00F0908052
:10239000B4F844506DB3EB0740F1BA809A4BA16892
:1023A000D86AFEF729FF60B1984825F00105A4F826
:1023B000445004F05DFF964804F05AFF954804F03D
:1023C00057FFB4F84450E90640F1EC808E4B216988
:1023D000D868FEF72FFF60B18C4825F01005A4F8EF
:1023E000445004F045FF8C4804F042FF894804F053
:1023F0003FFFC82005F038FEC1E7834D6169A8683A
:1024000001F10041FEF7F8FEF8B14FF47A71834F05
:1024100094F822203B884A43C8339BB293423B80C6
:1024200013DB404600F0D6FAB4F844307C4843F061
:102430000203A4F8443000233B8004F019FF7948DC
:1024400004F016FF734804F013FFAB6C002B9FD011
:10245000013B55F82350616B2846FEF7CDFE90B145
:10246000012000F0B7FAB4F844306D4843F0080397
:10247000A4F8443004F0FCFE6B4804F0F9FE654813
:1024800004F0F6FE84E72846616AFEF7D3FE0028D2
:102490003FF47EAF012000F09DFAB4F8443060486C
:1024A00043F00403A4F8443004F0E2FE5F48E4E79C
:1024B000554A936C002B3FF46BAF013B52F823500D
:1024C000E16B2846FEF798FE68B1012000F06EFA35
:1024D000B4F84430524843F48073A4F8443004F014
:1024E000C7FE5348C9E72846E16AFEF7A3FE002865
:1024F0003FF44EAF012000F059FAB4F84430484898
:1025000043F08003A4F8443004F0B2FE4948B4E735
:102510006F0713D53C4BA16A1868FEF76DFE0028C3
:102520003FF44FAF707825F00405A4F8445000F054
:1025300051FA364804F09CFE3F483DE715F008018B
:1025400013D0314BA16B1868FEF774FE00283FF4DE
:1025500038AF707825F00805A4F8445000F03AFA36
:102560002A4804F085FE354826E7A8077FF529AFFD
:102570004FF47A70324A1368C8331360B3FBF0F338
:1025800094F823008342FFF41CAF707825F0020515
:102590001160A4F8445000F01DFA1C4804F068FED5
:1025A000284809E72A0613D5174B216B1868FEF750
:1025B00023FE00283FF41DAFB07825F08005A4F875
:1025C000445000F0F3F9114804F052FE1E480BE7A6
:1025D00015F480703CD00C4B216C1868FEF72AFE75
:1025E00000283FF406AFB07825F48075A4F8445075
:1025F00000F0DCF9054804F03BFE1448F4E600BFA7
:10260000210100202C0100208C020020ED9B0008FD
:10261000FA9B0008579A0008459C0008E402002035
:10262000589B0008659B00087F9B0008999B000849
:10263000B39B0008D09B00080C9C00081F9C00085E
:10264000E0020020329C00085A9C0008709C0008A0
:1026500015F0200119D04FF47A711A4A1368C83363
:102660001360B3FBF1F394F820108B42FFF4C1AE7A
:10267000106025F02005B078A4F8445000F096F9D9
:10268000114804F0F5FD1148AEE66B067FF5B1AEDA
:102690004FF47A700B4A1368C8331360B3FBF0F33E
:1026A00094F821008342FFF4A4AEB07825F04005F1
:1026B0001160A4F8445000F079F9034804F0D8FD03
:1026C000034891E6DC020020ED9B0008869C000890
:1026D0009C9C000807B5142319220E49CDE900324D
:1026E0000D484FF48073002205F0D2FB68B105F06D
:1026F000FDFC0A4804F0BCFD094804F0B9FD094896
:1027000003B05DF804EB04F0B3BD074804F0B0FD7E
:102710000648F2E779230008B29C0008ED9B000808
:10272000BE9C0008579A0008F39C0008009D000812
:1027300010B50D4CB4F84430DB0713D4012000F081
:1027400049F9B4F84430094843F00103A4F844308F
:1027500004F08EFD064804F08BFDBDE810400548EE
:1027600004F086BD10BD00BF2C010020589B00085E
:10277000259D0008579A000810B50D4CB4F8443058
:102780009B0613D4012000F011F9B4F84430094835
:1027900043F02003A4F8443004F06AFD064804F036
:1027A00067FDBDE81040054804F062BD10BD00BFE4
:1027B0002C010020589B00083E9D0008579A0008F5
:1027C00010B50D4CB4F844305B0613D4012000F072
:1027D000EDF8B4F84430094843F04003A4F844301D
:1027E00004F046FD064804F043FDBDE810400548EE
:1027F00004F03EBD10BD00BF2C010020589B000816
:102800005B9D0008579A000810B50D4CB4F8443091
:10281000DB0613D4012000F0C9F8B4F844300948AD
:1028200043F01003A4F8443004F022FD064804F0FD
:102830001FFDBDE81040054804F01ABD10BD00BFE3
:102840002C010020589B0008789D0008579A00082A
:102850007047704770B51546A94205D3954294BF9D
:1028600028464FF0FF3070BD4C19641030F81460EA
:10287000A4B29E4203D03EBF0134A1B22C462546ED
:10288000EAE72DE9F84F06460F46012500EB810BDC
:10289000BD4213D23446ABEB850AD4F8008054F81D
:1028A000049F40464946FEF7C5FC18B144F8049C15
:1028B000C4F800805445F0D10135E9E7BDE8F88F50
:1028C00010B501380A44914200D110BD10F8013F03
:1028D0000C78047001F8013BF5E72DE9F74F8246CB
:1028E0000F46904601250193BD4216D2544600265C
:1028F000A7EB0509A346444421465846019B984747
:10290000002806F1010604DD424621465846FFF73D
:10291000D7FF4E45EED10135E6E703B0BDE8F08FB5
:102920000022014B9A707047210100200122014BC7
:102930009A707047210100200022014B5A707047A5
:10294000210100200122014B5A7070472101002013
:102950000022014BDA707047210100200122014B57
:10296000DA707047210100200020FFF715BC01201C
:10297000FFF712BC08B500F0DDFC50B1074804F0C9
:1029800077FC074804F074FCBDE80840054804F0F3
:102990006FBC024804F06CFC0348F3E7949D000808
:1029A0009D9D0008579A0008AB9D000838B5054664
:1029B000074C4FF0FF31206803F0C6FD2946022086
:1029C00000F002FD2068BDE8384003F071BE00BF92
:1029D0007402002038B50546074C4FF0FF312068DF
:1029E00003F0B2FD2946012000F0EEFC2068BDE8AE
:1029F000384003F05DBE00BF7402002070B505468C
:102A00000E46074C4FF0FF31206803F09DFD28462D
:102A1000314600F0E7FC2068BDE8704003F048BE96
:102A20007402002010B5074C4FF0FF31206803F00E
:102A30008BFD00F0CFFA00F0FFFB2068BDE81040EE
:102A400003F036BE7402002010B5064C4FF0FF3183
:102A5000206803F079FD00F00BFB2068BDE8104012
:102A600003F026BE7402002010B5064C4FF0FF3173
:102A7000206803F069FD00F097FB2068BDE8104076
:102A800003F016BE7402002008B501F0E1FB00203F
:102A900008BD000000487047E6020020004870476B
:102AA000E63E002008B504F075F803F097FABDE89B
:102AB000084004F07DB810B501F06AF9FFF7EAFFAD
:102AC0000446FFF7EBFF0146204604F047FCBDE853
:102AD000104003F0B5BA000010B5441E14F8013FD1
:102AE00003B910BD0A2B09D10D210A4802F042FAA0
:102AF0008021084802F046FA0028F9D021780548DC
:102B000002F038FA8021034802F03CFA0028F9D09C
:102B1000E4E700BF003801400E4B10B5186818B14B
:102B20004FF0FF3103F0F4FBFDF77AFB0A4A0B4943
:102B30001388098899420FBF4FF0FF340849CC5CD5
:102B400001331CBF03F07F031380FDF76DFB2046AC
:102B500010BD00BFF4410020F8410020FA410020E0
:102B6000FC41002008B5FEF7B3FCC82005F07AFA56
:102B7000FBE7431E0020F0B508228024013913F83A
:102B8000016FC9B247B24000C0B280F0070530EA19
:102B9000270028BF284680F007052642EDB218BF5F
:102BA0002846013A4FEA5404ECD10029E4D1F0BDA3
:102BB000182270B58CB08DF807000E460DEB0200A0
:102BC000002106F087F80823ADF81430ADF8243062
:102BD00003AB0124089304230DF10702049204A916
:102BE00002222048ADF816408DF82A40ADF8263074
:102BF00001F0FCF9022801460BD01B4804F038FB19
:102C00001A4804F035FB1A4804F032FB00200CB0DF
:102C100070BD11239DF80C5002A88DF808308DF876
:102C20000950FFF7A6FF9DF80D30834204D00E48EF
:102C300004F01EFB0F48E4E721460DF10E00FFF7FC
:102C400098FF9DF80F30834204D00B4804F010FB2E
:102C50000A48D9E79DF80E30204645EA032535801D
:102C6000D5E700BF78010020C09D0008CD9D000879
:102C7000579A0008EE9D0008129E0008229E000848
:102C80002DE9F04194B004AC17468DF807002022DE
:102C90000E462046002106F01DF8182200210EA83D
:102CA00006F018F80DF1070308220C930123ADF884
:102CB0003420ADF83630ADF844208DF84A300CA9F8
:102CC00007FA03F3022223481094ADF8463001F0CE
:102CD0008DF9022801460CD01F4804F0C9FA1F489C
:102CE00004F0C6FA1E4804F0C3FA002014B0BDE890
:102CF000F08111239DF8105003A88DF80C308DF849
:102D00000D50FFF736FF9DF81130834204D0124872
:102D100004F0AEFA1348E3E735703546A0460234B6
:102D200001212046FFF725FF98F80330834204D0A5
:102D3000094804F09DFA0C48D2E701352B4698F873
:102D4000022003F8012B9B1BDBB29F42E6D8012037
:102D5000CCE700BF78010020C09D0008489E000815
:102D6000579A00086A9E00088F9E000870B51024CC
:102D700006460D4686B02246002102A805F0AAFFAD
:102D8000032101A88DF804408DF805608DF80650E8
:102D9000FFF7EFFE0DF1050302930B4B8DF80700D3
:102DA00001220A4802A9039301F020F9012809D061
:102DB000074804F05DFA074804F05AFA064804F0A0
:102DC00057FA002006B070BD08000300780100200B
:102DD000C09D0008B29E0008579A0008182230B51E
:102DE0008DB08DF807000D460DEB0200002105F0B7
:102DF00071FF0DF10703082204930123ADF814209D
:102E0000ADF81630ADF824208DF82A300DEB020312
:102E1000022204A914480893ADF8262001F0E6F830
:102E2000022801460AD0114804F022FA104804F0A2
:102E30001FFA104804F01CFA0DB030BD11239DF8A4
:102E4000084003A88DF80C308DF80D40FFF791FE77
:102E50009DF80930834204D0044804F009FA06487A
:102E6000E5E72C70E8E700BF78010020C09D00086E
:102E7000D49E0008579A0008F59E00082DE9F041FD
:102E800010240F4605468CB00021164604A82022C7
:102E900005F020FF22460021684605F01BFF3B7825
:102EA0000DEB040003218DF810408DF811508DF8C2
:102EB0001230FFF75EFEB8468DF813006C4408F13F
:102EC00001084546204615F8013B012100F8043F62
:102ED000FFF74FFEED1BEDB2AE42607104F102044C
:102EE000EDD808237600ADF8043001220DF111036E
:102EF00069460A4801360093ADF8066001F076F89D
:102F0000012808D0064804F0B3F9064804F0B0F9E7
:102F1000054804F0ADF90CB0BDE8F081780100205F
:102F2000C09D0008179F0008579A000837B54FF456
:102F3000805001F02FFE002843D000200DF1070142
:102F40008DF80700FFF74AFF9DF8075015F00104C0
:102F500003D01F4B1B6803B19847AA0705D51C4B2C
:102F600044F002045B6803B198476B0705D5184B22
:102F700044F004049B6803B19847280705D5144B17
:102F800044F00804DB6803B19847E90605D5104B07
:102F900044F010041B6903B19847AA0605D50C4BF1
:102FA00044F020045B6903B198472B0605D5084B14
:102FB00044F080049B6903B1984721460020FFF745
:102FC000D5FE4FF4805003B0BDE8304001F0F2BDB3
:102FD000503F00202DE9F84F0A220C201A49FFF734
:102FE0004FFE40B9194804F043F9194804F040F97C
:102FF000184804F03DF905244FF47A7A4FF00008A0
:10300000154B164EB3F900B0154B164D93F90070E1
:10301000DFF8549036F8020F013C40BA80B20BFB47
:1030200000F0B0FBFAF03844FDF7C0FA42464B46D8
:10303000FDF760FCFDF7E4FD14F0FF0445F8040B18
:10304000E8D1BDE8F88F00BF1C3F0020C09D0008FC
:103050003A9F0008579A00084A3F00201A3F002074
:10306000493F0020EC3E002000408F40000000005F
:1030700070B5434B1A789AB10022182104201A70B7
:10308000FFF774FE40B93F4804F0F2F83E4804F000
:10309000EFF83E4804F0ECF84FF4FA6004F0E4FF77
:1030A00002222C203A49FFF7EBFD40B9354804F0E5
:1030B000DFF8354804F0DCF8344804F0D9F8354B33
:1030C000988D40BA80B2FDF781FA23A3D3E900239B
:1030D000FDF7E6FAFDF794FD2F490646FDF7EEFEF3
:1030E000FDF786FA044630460D46FDF781FA0246A2
:1030F0000B461BA1D1E90001FDF71AF902460B4668
:1031000020462946FDF7F6FBFDF77AFD2249FDF73B
:1031100089FFFDF76DFA05F005FB13A3D3E9002342
:10312000FDF7E8FB12A3D3E90023FDF703F90246FC
:103130000B4600201949FDF7DDFB0FA3D3E900235F
:10314000FDF7F6F8164B0022FDF7F4F8FDF758FDF1
:10315000144B586170BD00BF7978CF81E508393FC5
:103160006666666666660A400000000000DCAE40E7
:10317000000000E0E1796B3F0000006066127140E2
:10318000483F0020C09D0008539F0008579A000840
:103190003C3F0020103F002000401C460000F03F54
:1031A0000000E03FEC3E002008B532201C49FFF74C
:1031B000FFFC40B91B4804F05BF81B4804F058F8CA
:1031C0001A4804F055F81A4B5B8E5BBA98B242422B
:1031D00013F4004F92B218BF5042FDF7F7F90AA35B
:1031E000D3E90023FDF75CFA09A3D3E90023FDF737
:1031F00081FB09A3D3E90023FDF752FAFDF700FD97
:103200000C4B986108BD00BFE17A14AE47E1204045
:1032100000000040E17A743F8DEDB5A0F7C6B03EE6
:10322000423F0020C09D00086F9F0008579A000889
:10323000103F0020EC3E002010B52A201749FFF770
:10324000B7FC40B9164804F013F8164804F010F81B
:10325000154804F00DF8154B588D40BA80B2FDF7B3
:10326000D9FD134B04464FF081411868FDF726FE47
:1032700001462046FDF722FE0E4B044693F900005E
:1032800000EB8000FDF7C6FD01462046FDF70EFD70
:103290000949FDF7C7FE094BD86110BD3A3F002030
:1032A000C09D0008839F0008579A0008103F002027
:1032B0004C3F0020493F002000007A44EC3E0020B3
:1032C00070B55020154C1549FFF788FD5920144959
:1032D000FFF784FD611C5120FFF780FD14F834597D
:1032E0006D0094F8363005F0180505F26D1000EB0E
:1032F00053105E09FDF76AF900220A4BFDF7FAFA4E
:10330000FDF77EFC084B06F26D161860074B35443E
:103310001D8094F83520064B1A7070BD443F002084
:10332000463F002000408F404C3F00204A3F002095
:10333000493F002010B5064C04202146FFF738FC19
:10334000208800F4C070A0F180035842584110BD9D
:10335000143F002007B5114B01A91148019301F05A
:103360002FFC01224FF400410D4801F084FC4FF482
:103370007A7004F079FE00224FF40041084801F011
:103380007AFC084B064801A9019301F019FC4FF49F
:103390007A7003B05DF804EB04F066BE00800310A1
:1033A000000801400080030408B500210420FFF755
:1033B000DDFC01210420FFF7D9FCBDE80840022113
:1033C0000420FFF7D3BC0000054A537929B943EA2A
:1033D000000105205171FFF7C9BC23EA0001F8E79D
:1033E000103F0020A1B9154B00F01F0219780A43C5
:1033F00059781A70C0F344120A435A709A78C0F38D
:10340000842010439870032201200C49FFF736BD39
:103410000129F8D1094B00F01F011A7822EA0102B4
:103420001A705A78C0F3441122EA01025A709A784D
:10343000C0F3842022EA00029A70E4E7E63E00200E
:103440002DE9F04F634B85B0804669466248009392
:1034500001F0B6FB0C21012001F044FC4FF4805335
:1034600002934FF40063ADF80C300123454602A8E7
:103470008DF80E3001F056FB584B01A8584C0193C3
:1034800001F086F8FFF790FF4FF4FA7004F0ECFDBE
:10349000FFF760FFFFF714FF0FCD0FC495E807009B
:1034A000504B84E8070093F900B04F4BB8F8220066
:1034B000D3F800A0A0EB0B00FDF7ACFC5146FDF7E4
:1034C000B1FDFDF7E7FEA0F50050484C08380011AB
:1034D0006072B8F8200098F81C50A0EB0B00FDF7C4
:1034E00099FC5146FDF79EFDFDF7D4FE44F218030A
:1034F000E28898F81D90A38005F00303DB0043F4F5
:10350000817309F0070922F4FE4298F81F6022F047
:103510001F0243EA0933134398F81E70E380360113
:10352000237A06F0300603F00F0346EA87161E439F
:103530001923C0F307100822A072211D0420E37292
:103540002672FFF79BFC082204200DEB0201FFF717
:1035500097FB9DF80830227903F07F039A4222D12D
:103560009DF8092063799A421DD19DF80A20A3791C
:103570009A4218D19DF80B20E3799A4213D19DF815
:103580000C20237A9A420ED19DF80D20637A9A423C
:1035900009D19DF80E20A37A9A4204D19DF80F20FC
:1035A000E37A9A4209D0124803F062FE114803F010
:1035B0005FFE114803F05CFEFEE7104803F058FE82
:1035C0000F4803F055FE0C4805B0BDE8F04F03F07E
:1035D0004FBE00BF00100328000C0140280300016B
:1035E000503F0020493F00204C3F0020103F00206A
:1035F000C09D00089F9F0008579A0008D39F0008AD
:10360000E09F000838B5044604F0FAFA0C48017847
:103610000F2911D80B4B0C4AE31A9B105343DBB212
:103620000F2B09D8094C0A4D22780131AB540132D5
:1036300002F00F0222700170BDE8384004F0EEBACB
:103640006D3F0020803F0020CDCCCCCC6F3F0020D0
:10365000703F002013B50D4C2378ABB910210C4AF4
:1036600013700C4A13700C4A11700C4A02F8013B9B
:103670000133102BFAD100220949009209480A4A65
:1036800003F0ACF80123237002B010BD6C3F0020A2
:103690006F3F00206E3F00206D3F0020703F0020F4
:1036A000FF9F000800410020C04000201FB50446D5
:1036B00051B10FC98DE80F0069460020ADF80C40EC
:1036C00000F0EAF904B010BD0120FBE700F066BA93
:1036D0000023F7B504460D46019320B94FF0FF369D
:1036E000304603B0F0BD0C4B1B780BB9FFF7B2FFAF
:1036F0002A460A4801A903F079F906460028EFD1C5
:10370000019F002FEAD03D460FCD0FC42B683846ED
:103710002360FFF777FFE3E76C3F002000410020C4
:103720002DE9F04180460E46002841D000293FD0C7
:103730004B68002B3CD01F4B1B780BB9FFF78AFF5F
:1037400004F05EFA1C490A781AB9BDE8F04104F0A9
:1037500065BA1A481A4C0378013AE75C013303F062
:103760000F03037014230A705F4304F057FA98E8BC
:10377000030033780022082B28BF0823114C3D1981
:1037800085E8030008342B723C44D1B28B4209D83F
:1037900029460D4803F026F950B12846BDE8F0410E
:1037A000FFF730BF7168895C013204F8011FECE754
:1037B000BDE8F0816C3F00206D3F00206E3F00208F
:1037C000703F0020803F002000410020704770477C
:1037D0007047000010B5064C207838B900F090F81A
:1037E000FFF738FF00F014FE0123237010BD00BF67
:1037F0003041002008B5064B1B780BB9FFF7EAFFF4
:103800000021084600F09CF9BDE8084000F002BE27
:103810003041002000230449044A0B7013804B7090
:1038200053808B7093807047D4410020D841002092
:10383000044B9A6952075ABF9869C0F340000220AE
:10384000704700BF00640040F0B50646284D294F80
:103850008BB03146284801F06CF808B90BB0F0BDC8
:103860006A463146244801F019F800239DF80A20E1
:103870000DF10A0107A8DCB2A24233D89DF8083046
:103880009DF80910042B0CBF019B009B95F800E0EC
:1038900006BF23F0604343F00043C3F30A030EF175
:1038A000010E022939780EF0070E08BF43F080435D
:1038B0008E45CED0059300238DF81830ADF81A3020
:1038C000142329780D4C8DF81C2003FB01440DEBCB
:1038D000030CBCE80F000FC4DCF8003085F800E0F2
:1038E0002360B6E711F8014F013300F8014FC2E73A
:1038F000324100203141002000640040344100206A
:1039000070B55A4B88B004A904465948049301F095
:1039100057F94FF48061564801F0ABF901A800F067
:103920003BFF544B544804A9049301F049F9534B0D
:10393000514804A9049301F043F901214FF00070AC
:1039400001F032FA40F207230622CDE901234FF4B9
:1039500080730393FCB12368EBB11A88002A08BF77
:103960000622ADF804209A788DF80720DA78002A2C
:1039700008BF07228DF808201A79002A08BF022202
:103980008DF809205A798DF80B209A798DF80C2042
:10399000DB798DF80D303A4801A900F023FE0128AB
:1039A00000D0FEE724B1636813B1237A002B5AD10B
:1039B0000023CDE90433069340F2011304A8ADF8C7
:1039C0001C3000F079FE2F4B04A8049300F0E0FDBA
:1039D000152304A88DF8103000F0DAFD132304A895
:1039E0008DF8103000F0D4FD162304A88DF81030A7
:1039F00000F0CEFD01222449214800F0E9FFFFF745
:103A000009FF0023214A1370214A13700122214B20
:103A10001A7008B070BD06FB03F2616804A88B1829
:103A20008A5C01358DF81A20DA7A8DF81B201A7B12
:103A30008DF81C205A88ADF810209A88ADF8122015
:103A4000DA88ADF814201A89ADF816209A7AADF804
:103A500018205B7B8DF81D3000F02EFE227AEBB231
:103A60009A42D8D8AFE700250E26F7E700040314E2
:103A7000000C014000080348000801400010031832
:103A8000006400401404000113840100324100204E
:103A900031410020DE41002070B50D4686B000297E
:103AA00043D08A68002A40D0097908293DD8204BA4
:103AB0001B78022BDCB238D12B68002B20DA0420D3
:103AC0008DF80C0023F06040029000200190C3F3B9
:103AD00080735B008DF80D3013468DF80E100DF1DC
:103AE0000E0219448B4213D1124801A900F05FFE67
:103AF000042802D0022810D90024204606B070BD48
:103B00000020C3F30A06CDE901608DF80C00DEE762
:103B100013F8010B02F8010FE4E7AA89064B23F81A
:103B200010200122054B1A54E6E70124E5E700BF07
:103B3000DE41002000640040D8410020D441002034
:103B400010B5044610B10124204610BD0329FAD84F
:103B5000DFE801F017020F1700210E4800F0F4FE15
:103B600001280146EFD10C4B00201970FFF730FE01
:103B7000EAE70221074800F0E7FE0128E3D103212C
:103B8000F1E70121034800F0DFFE0128DBD102212B
:103B9000E9E700BF00640040DE4100202DE9F0416C
:103BA000154B88B01B78022B22D1DFF85080144EC1
:103BB000144F98F8002033789A4219D0142334789F
:103BC00003AD03FB04740FCC0FC5236801A92B6060
:103BD000337803A8013303F0070333709DF81430E2
:103BE000ADF804300DF115030293FFF799FDE0E7FE
:103BF00008B0BDE8F08100BFDE4100203241002066
:103C0000314100203441002070B5134B1B78022B4A
:103C100017D10024114D124E15F8013B5BB121461E
:103C2000104800F013FE01280CD10023308805F85D
:103C3000013CFFF7CBFD0134E4B2032C06F1020690
:103C4000EAD170BD2146074800F000FE0028F2D1FD
:103C500005F8010CEFE700BFDE410020D441002051
:103C6000D84100200064004008B5FFF7E1FD0228BC
:103C700002D10020FFF7ABFD08BD0000034B1B780D
:103C8000022B01D1FFF7F0BF704700BFDE410020DB
:103C900008B5094B1B786BB10221084800F0A0FE63
:103CA00040B10648022100F0FFFEBDE808400020B8
:103CB000FFF7CABD08BD00BF7401002000640040CA
:103CC00008B5094B1B786BB11021084800F088FE3D
:103CD00040B10648102100F0E7FEBDE80840012091
:103CE000FFF7B2BD08BD00BF7401002000640040B2
:103CF00008B5084B1B7863B10121074800F070FE3E
:103D000038B10121044800F0CFFEBDE80840FFF7BC
:103D10007BBF08BD740100200064004008B5164B4D
:103D20001B783BB34FF48061144800F059FE38B162
:103D300012484FF4806100F0B7FE0020FFF747FD06
:103D40004FF480310D4800F04BFE20B14FF480312C
:103D50000A4800F0A9FE4FF40041084800F040FE78
:103D600040B14FF40041054800F09EFEBDE8084018
:103D7000FFF784BF08BD00BF74010020006400404D
:103D8000FFF786BFFFF79CBFFFF7B2BFFFF7C6BFC5
:103D90001FB50121022001F007F84723019340F2EB
:103DA000E733ADF80830002301A90E488DF80C3038
:103DB00001F006F801210B4801F05CF801220948E6
:103DC000114601F04EF84FF4407000F0D7FB064B5F
:103DD0006846009300F0DCFB0121024801F038F84E
:103DE00005B000BD000400401D05000110B5012113
:103DF0000C4801F042F8A0B10B4C0121094801F038
:103E000048F8D4E9002312F57A7043F10001074B1A
:103E1000C4E900011B6803B19847BDE81040FEF7F4
:103E200041BE10BD00040040E8410020E0410020F8
:103E300070470023142282B0ADF8063008B902B0F2
:103E400070470138ADF80620BDF806309BB2591E08
:103E5000ADF80610002BF7D1F0E70000014B186811
:103E6000FCF7E2B9F041002008B5FCF7D9F9014BA5
:103E7000186008BDF041002001890122006800F0AF
:103E8000FABE41890122006800F0F5BE01890022D6
:103E9000006800F0F0BE10B50446FFF7F7FF236995
:103EA000012098472046FFF7ECFF2369012098473F
:103EB0002046FFF7E1FF23690120BDE810401847C5
:103EC00041890022006800F0D6BE10B50446FFF715
:103ED000D3FF2046FFF7D5FF2369012098472046EE
:103EE000FFF7D4FF0120236998472046BDE8104022
:103EF000FFF7E6BF10B50446FFF7C8FF01202369AE
:103F000098472046BDE81040FFF7DABFF7B50446F2
:103F10000F46082580262046FFF7D2FF374220466D
:103F200040D0FFF7A9FF2369012098472046FFF7FB
:103F3000A8FF012023699847013D4FEA5606EAD1C0
:103F40002046FFF7BDFF2369012098472046FFF771
:103F500093FF2369012098472046FFF792FF2389AA
:103F60002068ADF8043040F2034301A9ADF80630F3
:103F700000F026FE2189206800F073FE23890546A3
:103F8000ADF8043041F20343206801A9ADF80630D2
:103F900000F016FE2046FFF793FFB5FA85F04009C2
:103FA00003B0F0BDFFF772FFBDE72DE9F843002431
:103FB000054689461746A04649462846FFF7A6FF0C
:103FC000012806460FD047450DD02846FFF763FF6E
:103FD000013401202B699847E4B22846FFF78AFF95
:103FE000BC42A046E8D93046BDE8F8832DE9F04F41
:103FF00004460D46174687B0002800F000810029CE
:1040000000F0FF80002A00F0E480836903B1984744
:104010000023019395F80AB002951BF0040A1FD003
:10402000AE7AD5F800A016F00106B5F8069040F07B
:10403000D480B14500F0DA80AB7A590600F1CF8028
:1040400095F90A30002B80F2D780297B2046FFF7B4
:104050005DFF18B9AB7A1A0740F1C8800136E8E76E
:10406000019B2046002B3FD0FFF72FFFAE7AB5F81B
:10407000048016F0080908BF94F80CA0B2075FFA94
:1040800088F334D54FEAD81808F00608524620467F
:1040900048F0F0010393FFF788FF0128039B02D04B
:1040A000B9F1000F1BD019462046FFF72FFF01285A
:1040B00002D0B9F1000F12D0F607B1D52046FFF7B4
:1040C00004FF5246204648F0F101FFF76EFF012839
:1040D000A6D0B9F1000FA3D14B4803F0C9F81BF0EB
:1040E000080F9DD100276AE0FFF704FFBEE706F046
:1040F000010141EA430152462046C9B2FFF755FF8C
:1041000001288DD0B9F1000F8AD1E8E72046FFF7EA
:10411000B3FE01202369984723892068ADF8143045
:1041200040F2034305A9ADF816304FF0000800F047
:1041300047FD4FF0800B082320460393FFF7A1FEB5
:104140002189206800F08DFD4BEA0802D2B20028D8
:1041500018BF90462046FFF7B3FE01202269904722
:10416000039B4FEA5B0B013BE6D123892068ADF846
:10417000143041F2034305A9ADF8163000F020FDDC
:104180000AF8018BAB7A013ED806B6B20CD416B150
:104190002046FFF77BFE0120236998472046FFF762
:1041A00070FE2046FFF78CFE002EAFD1A5F80890D8
:1041B000019B103501339F4201937FF42BAF029B8B
:1041C0009B7A9B0602D42046FFF765FEE36903B1A4
:1041D0009847384607B0BDE8F08F4E46E4E72046E2
:1041E000E97AFFF793FE00287FF42AAFEB88B6B296
:1041F000B3422E81DCD075E71AF8061026E7074691
:10420000E7E70F46E5E700BF08A0000813B50F4C2D
:1042100001A92289638920681343ADF8043041F273
:104220000343ADF8063000F0CBFC01226189206821
:1042300000F021FD01222189206800F01CFD636946
:1042400003B19847002002B010BD00BF78010020E4
:1042500010B5012186B0142000F09AFD254B4FF4D3
:1042600000512548029300F002FD234802A900F006
:10427000A7FC224B224802A9029300F0A1FC4FF4B4
:104280008063ADF8083004231D4802A98DF80B3077
:1042900000F096FC01214FF4804000F079FD0023EE
:1042A0004FF4E132CDE902234FF4402202A9154830
:1042B0000492ADF8143000F0EFFD4FF4407000F0C0
:1042C0005DF9114B01A80193104C00F061F9012236
:1042D00040F225510B4800F034FE0121094800F05E
:1042E00027FE226822B91146094801F0D3FF206059
:1042F00006B010BD00200314001001400002031896
:10430000000801400038014025050001F44100206B
:1043100036A0000838B502F03DFC40F225511048A7
:1043200000F036FEA0B10F4D0F4B2C881B880134D6
:1043300004F07F04A3420A480ED000F01FFE2B8831
:104340000A4A2C80D0540A4B186808B102F070F861
:10435000BDE8384002F02CBC00F010FEF8E700BFCA
:1043600000380140FA410020F8410020FC410020C3
:10437000F4410020704700000023F0B587B002A888
:10438000CDE90033FCF7DCFF10B9012007B0F0BD28
:10439000029C00212046FCF72FFF002600B1344686
:1043A000039F00213846FCF727FF08B1039606E07B
:1043B000134E38463146FCF73DFF0028F6D111492F
:1043C0000398FCF72FFEFCF765FF0E4906462046D2
:1043D000FCF728FEFCF75EFF40F2F133ADF8000079
:1043E00002930020042302A9ADF802608DF80C307E
:1043F000CDF810D0ADF81400FFF758F9C6E700BFAC
:104400000000C842CDCCCC3D08B1FCF7B3BF70472B
:10441000FFF7B0BF70477FB5FFF758F9002101A83B
:10442000FFF756F908B107B000BD01A8FFF7ECFF90
:10443000F4E7FFF7A1BFFFF739B90000002103E05F
:104440000A4B5B584350043109480A4B42189A42C0
:10445000F6D3094A02E0002342F8043B074B9A4294
:10446000F9D300F013F801F046FE704774B8000865
:10447000000000205402002058020020344B00208D
:10448000FEE77047FEE7FEE7FEE77047374B82B076
:104490001A6842F001021A605968354A0A405A60A7
:1044A0001A6822F0847222F480321A601A6822F4A8
:1044B00080221A605A6822F4FE025A604FF41F02EA
:1044C0009A600022009201921A6842F480321A60C7
:1044D0001A6802F400320192009A01320092019AA5
:1044E0001AB9009AB2F5A06FF2D11A6812F400322C
:1044F00018BF01220192019A012A30D11D4A116888
:1045000041F010011160116821F00701116011687C
:1045100041F0020111605A685A605A685A605A683C
:1045200042F480625A605A6822F47C125A605A68D7
:1045300042F4E8125A601A6842F080721A601A68EF
:104540009201FCD55A6822F003025A605A6842F080
:1045500002025A605A6802F00C02082AFAD14FF09F
:104560000062054B9A6002B0704700BF0010024025
:104570000000FFF80020024000ED00E0034B40F097
:10458000BF6040F40030D860704700BF00ED00E02D
:1045900070B50125017801F01F039D40C3784C09D7
:1045A000B3B10E4B4678DA68D243C2F30222C2F1AD
:1045B00004039E4083780F2020FA02F21340084A39
:1045C00033431B01114481F8003342F8245070BD7D
:1045D000034B203443F82450F9E700BF00ED00E01E
:1045E00000E100E00268034622F002020260026875
:1045F00042F0010202604FF480325868C00701D4D3
:10460000013AFAD1586810F0010053D08A79012A92
:104610001A680CBF42F0800222F080021A60CA7948
:10462000012A1A680CBF42F0400222F040021A60D0
:104630000A7A012A1A680CBF42F0200222F02002F6
:104640001A604A7A012A1A680CBF42F0100222F05E
:1046500010021A608A7A012A1A680CBF42F0080216
:1046600022F008021A60CA7A012A1A680CBF42F0C6
:10467000040222F004021A60CA788878120642EA1C
:104680008072087942EA00424879098842EA005279
:1046900001390A43DA611A6822F001021A604FF404
:1046A00080325968C90701D5013AFAD15868C04328
:1046B00000F00100704700000121364A10B5D2F821
:1046C0000042837A44F00104C2F80042D2F81C424E
:1046D000994024EA0104C2F81C42047B002C37D123
:1046E000D2F80C42DB0024EA0104C2F80C42C48870
:1046F000428803F1804342EA044203F5C843C3F809
:1047000040228488028842EA0442C3F84422C37AE1
:10471000204A93BBD2F8043223EA01030489C2F889
:1047200004321C4B6CBBD2F8144224EA0104C2F8D8
:104730001442427B012A02BFD3F81C220A43C3F869
:104740001C22D3F8002222F00102C3F8002210BD7F
:10475000012CDCD1D2F80C42DB000C43C2F80C4235
:104760000488428803F1804342EA044203F5C843C7
:10477000C3F840228488C288C5E7D2F804320B43CC
:10478000CCE7012C02BFD3F814220A43C3F8142249
:10479000CFE700BF00640040012340F20322038002
:1047A000002382804380C3800381438170478368F4
:1047B000F0B50446580139D4A3681A0138D4A36867
:1047C000DB0040D5022004EB0013D3F88021050163
:1047D00002F00102C3F880210E7A4A7A56BB0F68B4
:1047E000D3F8806142EA47523243C3F880218A7A83
:1047F0002C4402F00F028A72D3F8846126F00F066F
:10480000C3F88461D3F884613243C3F88421D1F8BA
:104810000B20C4F88821D1F80F20C4F88C21D3F8DC
:10482000802142F00102C3F88021F0BD0020CAE7D8
:104830000120C8E7D1F804C0D3F8807142EACC0265
:1048400032433A43D1E70420EFE7000001290AD0C0
:10485000022913D0C9B982680D4B02EA03009343C1
:1048600007D10120704780680A4B094A18409042DE
:1048700007D8B0FA80F04009400070478068064BC6
:10488000F3E7C31A5842584170470220704700BFEF
:1048900003000004000300080000031000EB0113F4
:1048A00010B5D3F8B04104F004041472BCBBD3F8C3
:1048B000B041640D1460D3F8B04104F002045472A6
:1048C000D3F8B44104F00F049472D3F8B4311B0A46
:1048D000D37400EB0113D3F8B841D472D3F8B841C4
:1048E000240A1473D3F8B841240C5473D3F8B84194
:1048F000240E9473D3F8BC41D473D3F8BC41240A7A
:104900001474D3F8BC41240C5474D3F8BC311B0E7E
:10491000937449B9C36843F02003C36010BDD3F852
:10492000B041E4085460C6E7036943F02003036123
:10493000F4E719B9C06800F003007047012901D1FC
:104940000069F8E700207047B1B9036823F003035A
:1049500043F0010303604FF48033426802F0030226
:10496000012A01D0013BF8D1406800F00300012882
:1049700014BF002001207047012911D1036823F0E2
:10498000030303604FF480334268920701D0013B78
:10499000FAD1436813F0030F0CBF012000207047C9
:1049A000022913D1036823F0030343F002030360D9
:1049B0004FF48033426802F00302022A01D0013B27
:1049C000F8D1406800F003000228D1E700207047CA
:1049D000436912B10B434361704723EA0103FAE7CD
:1049E00002464069084015D0B1F5807F4BD012D8FF
:1049F000082908D8013907290BD8DFE801F0252E4E
:104A00000A340A0A0A38202937D0402937D0102919
:104A100031D000207047B1F5004F43D00CD8B1F52C
:104A2000806F34D0B1F5006F35D0B1F5007FF0D193
:104A30009069C0F340007047B1F5803F21D0B1F5D7
:104A4000003FE6D1506813E0906800F0013020F09C
:104A50008070003818BF01207047D06810F0030044
:104A600018BF01207047D068C0F3C0007047D068FD
:104A7000C0F3001070471069F0E71069F4E710699F
:104A8000F6E75068F0E7906900F001007047906920
:104A9000C0F380007047936913F0700F14BF0120BA
:104AA000002070475068F3E7B1F5007F36D00FD88B
:104AB000202927D006D804291FD0082920D0012971
:104AC00018D07047402920D0B1F5807F26D070479C
:104AD000B1F5004F20D006D8B1F5806F1ED0B1F5EA
:104AE000006F19D07047B1F5803F10D0B1F5003F8D
:104AF00010D070470A4B836070470823C36070472B
:104B00001023FBE70823036170471023FBE708230A
:104B1000436070471023FBE7002383610423F7E71A
:104B2000010101000279837902F1804210B5016828
:104B300002F5823233B3164B1C6824EA01041C6070
:104B40005C6824EA01045C60146821431160996880
:104B5000026821EA02019960D96821EA0201D9605C
:104B60004179102906D1996811439960D9680A439F
:104B7000DA6010BD01F1804303F5823319680A43FE
:104B80001A60F6E7136823EA01031360F1E700BF38
:104B900000040140064B19685A69014214BF012301
:104BA0000023024203F0010008BF0020704700BF4D
:104BB00000040140014B5861704700BF00040140F0
:104BC0002DE9F041CB780F88DA0648BF8A7803F0E8
:104BD0000F0548BF15430A78D2B100214FF0010CF0
:104BE0004FF00F0E02680CFA01F636EA07040BD1FB
:104BF0008C000EFA04F822EA080205FA04F4282BC5
:104C000042EA040225D1466101310829EBD1026054
:104C1000FF2F1CD900214FF0010C4FF00F0E4268FE
:104C200001F108040CFA04F434EA07060BD18E00F3
:104C30000EFA06F822EA080205FA06F6282B42EADE
:104C400006020AD1446101310829E9D14260BDE878
:104C5000F081482B08BF0661D6E7482B08BF0461E6
:104C6000F1E78368194214BF0120002070470161F9
:104C70007047416170470AB10161704741617047F7
:104C8000002830B5164C00F44015B4BFE3696368E2
:104C9000B5F5401F82B212D1656823F0706325F02C
:104CA00070656560440D2401A2401A43002918BFB5
:104CB00013460B4A0028B4BFD361536030BDC40211
:104CC0004DBF0324440D2401C0F303454CBFAC4049
:104CD00002FA04F423EA040343F07063E2E700BF3E
:104CE0000000014010B50F2401F0030301F0FC01A6
:104CF00001F1804101F580318A689B009C4022EAE5
:104D000004028A608A6898401043886010BD0000E1
:104D10001A4A10B5536803F00C03082B2CD15368C2
:104D20005168C3F38343CC0303F1020302D55168F6
:104D300089031FD512494B4303605168114CC1F3DD
:104D40000311615CCB4043605168C1F30221615C97
:104D500023FA01F181605168C1F3C221615CCB404B
:104D6000C36052680849C2F381328A5CB3FBF2F334
:104D7000036110BD0549DEE7044BDDE7001002408A
:104D800000093D00D8B10008D4B1000800127A0033
:104D9000044B9A6911B102439A61704722EA0002FA
:104DA000FAE700BF00100240044BDA6911B1024378
:104DB000DA61704722EA0002FAE700BF0010024001
:104DC000214A0388904212D002F5006290420ED030
:104DD000B0F1804F0BD0A2F59832904207D002F587
:104DE0008062904203D002F58062904203D14A88EB
:104DF00023F070031343154A904207D002F58062F6
:104E000090421EBFCA8823F44073134303808B88EB
:104E100083850B8803850C4B98420FD003F5006304
:104E200098420BD003F54063984207D003F58063A6
:104E3000984203D003F58063984201D10B7A038630
:104E400001238382704700BF002C01400010004006
:104E5000038819B143F001030380704723F0010375
:104E6000FAE7838912B119438181704723EA01036C
:104E700083817047C94301827047038A8289114246
:104E800014BF01200020194200F0010008BF0020DB
:104E90007047C9430182704730B50446038ACA8807
:104EA00023F44053134387B0038283898A8823F411
:104EB000B05323F00C0313430A890D4613434A8968
:104EC00013438381838A8A8923F440731343838243
:104ED00001A8FFF71DFFDDE9033214498C4208BF2A
:104EE00013461922A18953432A680D044CBF52006E
:104EF00092006421B3FBF2F3B3FBF1F201FB123336
:104F0000A08900044BBFDB001B01323332334BBF9F
:104F1000B3FBF1F3B3FBF1F303F0070303F00F036B
:104F200043EA0212228107B030BD00BF00380140C1
:104F3000838919B143F400538381704723F40053EC
:104F4000FAE7012310B5C1F34214012C01F01F014F
:104F500003FA01F305D10C3042B102681343036038
:104F600010BD022C0CBF10301430F5E7026822EAA5
:104F70000303F4E7C1F30801818070478088C0F320
:104F8000080070470388194214BF012000207047B1
:104F90000123C1F3421210B5012A01F01F0403FAE4
:104FA00004F30FD1828992B2134001220088090ACA
:104FB0008A4080B21040002B18BF002814BF012087
:104FC000002010BD022A0CBF028A828AEBE7000093
:104FD00008B5024802F04CF9002008BD3EA00008C8
:104FE00038B505460468AC4200D138BD08210648F2
:104FF000A4F1140202F03CF92368AB4202D003484A
:1050000002F036F92468EEE746A00008D5980008BB
:1050100008B502F047F9002008BDF8B50026CB68B6
:1050200004460D460E6193B10B7A83B10F6808B93F
:105030003C460126FBF7F4F8024656B914F8043C46
:10504000297A23F080038B4203D0FBF7EDF8002090
:10505000F8BD00266B682468A7420BD0E9680136CA
:10506000B14243F8044BF6D11046FBF7DDF8204679
:105070002E61EDE70024F7E710B50824024802F09E
:10508000F7F8013CFAD110BD4BA000082DE9F0471C
:105090000A2090B002F090FB0821002604302D4A2F
:1050A00003900DF120092C480691CDF8109002F0E4
:1050B000DFF8FFF7E1FF294802F0DAF80A27344663
:1050C000204603A98DF814700796FFF7A6FFCA467D
:1050D00004464FF000089DF81470079EB0450BDBA6
:1050E000002CEDD100F074FF01461D4802F0C0F81D
:1050F000204610B0BDE8F0875AF8045BFBF790F843
:1051000015F8043C23F08003BB4204D0FBF78CF875
:1051100008F10108E2E7FBF787F80822EB6911467E
:105120000193AB690F480093A5F10C0302F0A0F8BE
:1051300015F8033CDA074CBF0B480C4802F098F80E
:1051400015F8033C9B074CBF09480A4802F090F849
:10515000DEE700BFAF9700084DA000087EA0000862
:10516000F0A00008ACA00008C2A00008CFA0000872
:10517000DCA00008E6A000082DE9F04F0120B3B044
:1051800002F01AFB082100270430414A07900DF174
:10519000300A40480A91CDF820A002F069F8FFF7E4
:1051A0006BFF3D4802F064F84FF001083E46304680
:1051B00007A98DF824800B97FFF72FFFD3460646EB
:1051C0004FF000099DF824800B9FB94505DB002EA8
:1051D000EDD1304633B0BDE8F08F5BF8045BFBF7F0
:1051E0001FF815F8043C044623F08003434504D01F
:1051F000FBF71AF809F10109E7E7A5F10C031946D5
:10520000782214A8039301F0EFFD2046FBF70CF879
:1052100095F82920039B009208222048114602F0AD
:1052200027F895F8283003F00703042B07D8DFE8A8
:1052300003F02903272D2B00194802F019F8EC6917
:1052400023461A781846232A03F10103F9D0642370
:105250002A6A29691444611A241A5C43B4FBF2F3E4
:10526000686ACDE903326C6B059101F081FDDDE9DF
:105270000332CDE9004005990A4801F0F9FFB9E78A
:105280000948DAE70948D8E70948D6E70948D4E7E2
:1052900005A100080CA1000850A100088DA100087C
:1052A00099A10008C6A10008A2A10008ABA10008AE
:1052B000B4A10008BDA100082DE9F04F052093B06E
:1052C00002F07AFA082100250430324A05900DF1E7
:1052D000280931480891CDF8189001F0C9FFFFF76F
:1052E000CBFE2E4801F0C4FF05272C46204605A919
:1052F0008DF81C700995FFF790FECA4604464FF0E2
:1053000000089DF81C70099D454505DC002CEDD179
:10531000204613B0BDE8F08F5AF804BBFAF780FFBF
:105320001BF8043C23F08003BB4204D0FAF77CFF57
:1053300008F10108E8E7FAF777FFDBF808200BF13E
:1053400008069642BBF816004FF00002BBF814C0E6
:10535000ABF10C0314D0314609688E420ED1CDE971
:1053600001C20822009011460D4801F081FF30462D
:10537000FFF736FE0B4801F07BFFD9E70132EBE780
:10538000CDE901C2082200901146074801F070FFE4
:10539000CEE700BFECA10008F4A1000815A20008A8
:1053A00031A20008579A000847A200082DE9F04FE3
:1053B000032093B002F000FA4FF0080800260430F2
:1053C0004146284A05900DF1280A2748CDF818A033
:1053D000CDF8208001F04CFFFFF74EFE234801F08E
:1053E00047FF03273546284605A98DF81C70099606
:1053F000FFF713FED34605464FF000099DF81C70D9
:10540000099EB14505DB002DEDD1284613B0BDE85E
:10541000F08F5BF8044BFAF703FF14F8043C23F019
:105420008003BB4204D0FAF7FFFE09F10109E8E767
:10543000FAF7FAFE606994F813C0A4F10C0308347B
:105440002146002209688C4209D1CDE902C2082216
:10545000CDE900801146064801F00AFFE5E7013278
:10546000F0E700BF5C9600085DA2000881A200087A
:10547000A0A200082DE9F04F022091B002F09CF9A3
:10548000082100250430304A03900DF120092F48EF
:105490000691CDF8109001F0EBFEFFF7EDFD2C48E2
:1054A00001F0E6FE02272C46204603A98DF8147071
:1054B0000795FFF7B2FDCA4604464FF000089DF875
:1054C0001470079D454505DC002CEDD1204611B038
:1054D000BDE8F08F5AF804BBFAF7A2FE1BF8043CB3
:1054E00023F08003BB4204D0FAF79EFE08F10108C6
:1054F000E8E7FAF799FEDBF808200BF10806964278
:10550000BBF810004FF00002ABF10C0313D0314692
:1055100009688E420DD1CDE9000208220D481146DE
:1055200001F0A6FE3046FFF75BFD0B4801F0A0FE40
:10553000DCE70132ECE7CDE900020822074811461A
:1055400001F096FED2E700BFB7A20008C1A2000892
:10555000DBA20008F0A20008579A000800A3000888
:10556000022810B52DD14C6821492046FBF7B2FE28
:1055700018B9BDE81040FFF7FFBD20461D49FBF7F5
:10558000A9FE18B9BDE81040FFF780BD20461A49B2
:10559000FBF7A0FE18B9BDE81040FFF76BBF20462F
:1055A0001649FBF797FE18B9BDE81040FFF7FEBE9D
:1055B00020461349FBF78EFE18B9BDE81040FFF7EF
:1055C0007BBE104801F054FE0F4801F051FE0F4819
:1055D00001F04EFE0E4801F04BFE0E4801F048FE71
:1055E0000D4801F045FE0D4801F042FE002010BDBF
:1055F00005A10008AF97000810A300085C960008FA
:10560000ECA1000814A300082BA3000837A300088E
:1056100052A300086BA3000886A300089FA30008FC
:1056200038B50A4801F024FE094B0A4D1C682B6866
:10563000A34204D8084801F01BFE002038BD626870
:10564000064854F80C1B01F013FEF0E7BCA3000859
:105650008C43002088430020579A0008D7A30008F5
:1056600008B5FFF789FD002008BD00001FB5002424
:1056700003AA02A901A8CDE90144039401F0DEFECA
:1056800001990A4801F0F4FD0299094801F0F0FD82
:105690000399084801F0ECFDDDE901130648C91A39
:1056A00001F0E6FD204604B010BD00BFE3A30008F2
:1056B000F2A3000801A4000810A400082DE9F04797
:1056C0000D46814688B0002D00F0A38099F8003087
:1056D000C846202B29D0092B27D0002619F80630E0
:1056E000202B28D0092B26D0B54222D14A4B1F6847
:1056F0004A4BD3F800A057451FD23C683246494672
:10570000204603F0FEFA38BBA45D2CBBBE68A6B1F0
:1057100020222146684601F039FB6F4669464A4619
:1057200023462046A64614461BE009F10109013D27
:10573000C9E70136D2E7002ED8D14A46137809F1DD
:10574000010913F0DF03F8D141463548137001F029
:105750008FFD4FF0FF3028E00C37CCE704F801EB69
:10576000013394F800C02246BCF1200F02D0BCF1F6
:10577000090F06D19D42F1D8082804D00028DCD0BA
:1057800011E0082814D1274801F072FD002457F8D1
:10579000041B2548013401F06BFD082CF7D1234888
:1057A00001F066FD20466946B04708B0BDE8F087C5
:1057B0009D42E3D9BCF1220F00F101001BD1621C14
:1057C00001330A601478222C0BD09D42EBD95C2C5B
:1057D00004D15478222C04BF013201330132013349
:1057E000F0E79D42DFD901339D4282F800E0DAD92B
:1057F0000132043197E70C601478202C06D0092C74
:1058000004D09D42CFD001320133F5E79D42F0D85C
:10581000C9E72846C9E700BF8C4300208843002021
:1058200041A400081FA400083DA40008579A0008DE
:105830002DE9F8430178074621B9BDE8F843084649
:10584000FFF7EEBE00252C461E4BDFF87C90D3F808
:105850000080D9F80030434507D88DB32246294649
:105860003846BDE8F84301F01EBB3846FBF73CFD67
:10587000D8F8006002463146384603F042FA98B93B
:1058800024B93046FBF730FD354604462B4606F179
:10589000FF3C18781A4650B9521B944231460B48C7
:1058A000A8BF144601F0E4FC08F10C08D1E71CF88D
:1058B000011F0029F0D0884203F10103E9D0EBE792
:1058C000BDE8F8838C43002088430020DFA3000854
:1058D00008B50E4B1B6893F8213013F0020303D177
:1058E0000B4A13700A4808BD0A4B196849B14FF4B6
:1058F0008072074803F017FA0749054803F0F2F9E8
:10590000F0E70649024803F029FAF5E7844300204E
:105910007C420020804300208B98000859A4000896
:1059200070B5A54C226892F8213043F0010382F84B
:105930002130FFF7CDFF01F09BFCFDF7EDF81B28B0
:105940000546236803D1012283F82020F5E793F868
:105950002020012A2AD15B2801D10222F4E700226B
:1059600083F820200D2D52D80D2D54D801A252F8C5
:1059700025F000BF3B590008175A0008175A0008C5
:10598000175A0008175A0008175A0008175A000833
:10599000175A0008895A0008855A0008095B000850
:1059A000175A0008175A0008095B0008022AD9D1C3
:1059B0000022432883F8202018D007D8A0F1410204
:1059C000D2B2012AB9D90D28CED924E044281ED15B
:1059D000B3F87630002BB0D0784801F049FC22684B
:1059E000B2F87630013BA2F87630A6E7B3F876201D
:1059F000B3F874109142A0D91A4492F8221070485A
:105A000001F036FC2268B2F876300133EBE77F2DE7
:105A10003AD0FF2D91D0B3F874604F2E40F28F80B2
:105A20000021A3F87410194481F8225093F8213012
:105A3000DB0740F1AA802946614801F019FCA4E087
:105A40005E4801F015FC01362568B5F87630B342A2
:105A5000F6DC5C4801F00CFC05F12200FFF7E8FEE3
:105A6000FFF736FF05F122020146574801F000FC1E
:105A7000256805F12200FBF737FCA5F87400A5F8AE
:105A800076005AE70026DFE7B3F8761000293FF4E6
:105A900054AFB3F874504A1E013DADB292B2954274
:105AA000A3F87450A3F8762023D902F12200223102
:105AB000AA1A1944184401F0DDF90021236843486B
:105AC000B3F874201A4482F82210B3F87610223109
